:020000040000fa
:080000000001040000000000f3
:020000040000fa
:100008009801000098010000980100009801000084
:100018009801000098010000980100009801000074
:100028009801000098010000980100000e2e0000c1
:10003800980100009801000004300000262e0000fe
:1000480098010000202f00009801000000320000f5
:100058009801000098010000980100009801000034
:100068009801000098010000980100009801000024
:10007800980100004030000098010000980100003d
:100088009801000098010000980100009801000004
:1000980098010000980100009801000098010000f4
:1000a80098010000980100009801000098010000e4
:1000b80098010000980100009801000098010000d4
:1000c80098010000980100009801000098010000c4
:1000d80098010000980100009801000098010000b4
:1000e80098010000980100009801000098010000a4
:0800f8009801000098010000ce
:020000040000fa
:100108009801000098010000980100009801000083
:100118009801000098010000980100009801000073
:100128009801000098010000980100000e2e0000c0
:10013800980100009801000004300000262e0000fd
:1001480098010000202f00009801000000320000f4
:100158009801000098010000980100009801000033
:100168009801000098010000980100009801000023
:10017800980100004030000098010000980100003c
:100188009801000098010000980100009801000003
:1001980098010000980100009801000098010000f3
:1001a80098010000980100009801000098010000e3
:1001b80098010000980100009801000098010000d3
:1001c80098010000980100009801000098010000c3
:1001d80098010000980100009801000098010000b3
:1001e80098010000980100009801000098010000a3
:0801f8009801000098010000cd
:020000040000fa
:100200004f8b20000eff20000e0188000000000030
:1002100000012000200288000c000700402223007b
:100220000100200011000700000020000000e00095
:10023000020032000000020000000000a8320200ac
:10024000000000000040da000000fe004440a90069
:10025000200321000000e000030032000000200025
:10026000a00188004440a800000006009101880019
:10027000800078000000eb0015003700e2804000ad
:1002800032a0b4009101ba00e280400032a0b40074
:100290009102ba00e280400032a0b4000002eb00fc
:1002a000472bde00f507b200602ce10004003a00a5
:1002b0000059eb008301e900fdff3e000400370018
:1002c0006128e100010032000082eb000400070019
:1002d0001101ba000200e000e8ff3a000000060049
:1002e0003159ba008301e9000c0032002159ba00eb
:1002f0008301e900080032000400e00003003a0036
:10030000e280400032a0b400f5ff370011d9ba00f6
:100310008301e900faff3a008100e800e180400033
:1003200032a0b40000000600000000000000000041
:100330000040da000000fe00881f78000204780008
:100340000801780015030700080040004f047800fa
:10035000000006000000fa00881f78000004780002
:10036000ea8157003fb9970088007800c019200043
:1003700007000700e00f5000020035000042eb00cc
:10038000047478004f0478000080fa000000060032
:100390006200fa00889fbe008a9fbe008c9fbe004c
:1003a000000578008104780002047800830078005a
:1003b00020f92f000f00400003050700ea8f9f007f
:1003c000f98f9f000002eb00849f9f00eb8a2000c2
:1003d0002a8a2000f9ff2700184278008486fb0053
:1003e0000d06fb008d06ea00cf6ede0054022000f1
:1003f000840f56000d003200e18f56000b003a00ca
:100400000d017800880078007f8897006f8a970038
:1004100004000100f08f9f00e00f500089003200bf
:100420000f9a97000402e800849f9f000d04440087
:1004300054022000840f560004003200e00f5600e2
:10044000e5ff3a000f9897007f0037000002eb00ad
:10045000e4979f00d4979f00c4979f00b4979f0094
:10046000a4979f0094979f00050037000b00500051
:10047000000040006a027800af9a97000482720080
:10048000a49f9f00080678000c047800b846780006
:100490008d00fb00e08a2000c7020700e00f50003b
:1004a000f2ff3a00a4c2b30084cf56000e003a0017
:1004b0009f8a97000582e900948f9f0014027800bc
:1004c000949f9f00e00f520005003d000402ea00e7
:1004d000949f9f002f9a97000420a000a49f9f0044
:1004e0000c04e8000d003700909f9f0004003700c7
:1004f000890f5000020032006a00b900000042007b
:100500000c047800080678003c02fb000403b100ec
:10051000e90f5200f6ff3600909f9f00e4c2b3003f
:10052000984f1200020032000082eb0018003700e2
:10053000a4c2b300d84f120007003a009f8a970068
:100540000582e900948f9f0014027800f4979f00c1
:100550000804e8000f0037000002eb00f4979f004a
:100560008802780004003700890f52000200320030
:100570006a20b90000024300050478008802780070
:100580003503fb000603b100e90f5300f6ff360008
:10059000f4979f00184678008c00fb00a08920008b
:1005a00085020700e00f5000020032000804e80056
:1005b0000100370000467800ec779f0084c6b30046
:1005c000844f560004003a00984f16000a003a0083
:1005d0006642520006003700c4c6b300844f56007e
:1005e00005003a00984f160003003a0065424200a9
:1005f000e4779f000804e8001801fb0083fb2f004c
:100600008f81410021f92f008f80400040f92f0099
:100610000f00400011000700e00f500009003a00f1
:1006200081fb2f008f80400040f92f000f00400019
:10063000a9030700e00f5000020035000804e8009d
:1006400065ff37000080eb004f06be004f05be007f
:100650004f04be000080fa0000000600889fbe0024
:100660008a9fbe00e4c6b300844f5100bf00320031
:1006700010003c006b425200844f510018003200c1
:1006800005003c0054c2b300844f5100f900320011
:1006900084c5b3000f00370044c6b300844f510037
:1006a0001500320065424200844f5100f4003a00c8
:1006b0001100370004c7b300844f5100df0032003f
:1006c0005800350065424200844f51005500320009
:1006d00063424200844f5100e9003a005100370064
:1006e0009182e900850878007002900095427800b8
:1006f00085717a00e800370020629000c5c6b3001b
:10070000854f520009003a0011027800640452003b
:10071000880878001802be0098009000cf88de009c
:1007200001037800810378001200370015c7b30079
:10073000854f520003003200a5c6b300854f52001a
:1007400006003a009102780068825200840878001e
:100750005403be004402be00060037001182e900c7
:100760008408780014027800cfa2de000503780028
:10077000860378000498be000690be00a06090003a
:1007800088c6b30088cf50000e00320028c6b300e0
:1007900088cf500005003a000402fb00cfa2de0023
:1007a00005037800860378000900370048c7b300c6
:1007b00088cf5000030032006644440088cf5000c8
:1007c00005003a00cfa2de0005037800860378001a
:1007d0000498be000690be003004be002005be0096
:1007e00070029000d5c2b300e00f5400e08f5c00af
:1007f000e00f5d00e08f5d00080035008012900082
:100800006283620002003200b5c2b3000300370009
:10081000e18262005000320005c2b30085717a00a7
:100820004b00370020629000c5c6b300854f5200d0
:1008300007003a001102780064045200880878002a
:100840001802be000003eb00860378001200370098
:1008500015c7b300854f520003003200a5c6b30090
:10086000854f520006003a009102780068825200db
:10087000840878005403be004402be00060037001e
:100880001182e90084087800140278000500200035
:1008900006002000070020000498be000690be005d
:1008a000a060900088c6b30088cf50000e003200d0
:1008b00028c6b30088cf500005003a000482fb0030
:1008c0000500200006002000070020000900370076
:1008d00048c7b30088cf500003003200664444008c
:1008e00088cf500005003a000500200006002000d7
:1008f000070020000498be000690be000012900081
:1009000068026200140032003002be002003be0004
:10091000e00f5200e08f5a00e00f5b00e08f5b00b9
:100920000d00320084c7b300844f51000300320031
:1009300084c5b300844f510007003a007002900054
:1009400005c3b30085717a000402e80082717a0061
:100950000402e80074009800700290008481410055
:10096000630098008240780040003700a062900049
:10097000c6c6b3001182e90086cf520023003200c0
:100980000a003c006443530086cf52002600320028
:1009900006c3e80086cf52001300320068435300bc
:1009a00086cf52001f003a000a00370046c7b30046
:1009b00086cf52001c0032006643430086cf5200af
:1009c000190032006943530086cf520015003a00e7
:1009d0000500370084087800140278004058900021
:1009e000004a78002e00370084087800140278004e
:1009f00060089000cf80de0001017800820178005d
:100a0000009abe000292be002500370084087800dc
:100a100014027800600b9000cfb3de00068abe009f
:100a20001f0037001182e900840878001402780062
:100a300060089000000a7800190037001182e90070
:100a40008408780014027800cfa2de000503780045
:100a5000860378000498be000690be0070029000e5
:100a6000848141006300980081c7b3005d010700e5
:100a70000b0037007002900082717a000600370088
:100a80007002900084814100e04f510001003a0063
:100a900052c2b300824978000402e8007400980052
:100aa0000000eb004f05be004f04be000000060032
:100ab000889fbe008a9fbe008c1f780099000700a7
:100ac000a000330003866c006450e1002e00320069
:100ad0006420e100330032006150e1002f00320059
:100ae0006120e1003100320085855500eb07b00040
:100af0000900200008042000050037000804440015
:100b000089844c000a0031000603430087834b00b0
:100b10000001530081815b00f8ff33000203be0037
:100b20000800a0000804440089844c00f6ff390046
:100b3000c639dd008301730001003200130020007c
:100b40008904d1000884d3000998a300050032006d
:100b50000800a7000300a0008904d1000884d30086
:100b60008b05e8008904d1000884d3000001eb0064
:100b70000281d2003000070001f0a1000cf0a700b4
:100b800001f0a000780037006420e1007a00320014
:100b90000801be000200be00f7ff37006120e1003f
:100ba000750032006000b800f3ff3700000020003d
:100bb00001f82700f0ff37000001be0044000700e5
:100bc0000470a70003f0a10003f8a30013003a008b
:100bd0006509b10010003200090035006928e10004
:100be0000200350001002800000005000000400060
:100bf000818048008502e900fcff3a000000060001
:100c0000f88f4200050035008100d1000080d3003c
:100c10008502e800fcff3a00000006008000eb00bf
:100c2000000005004f89de00820178009c0037003b
:100c30006011b800aa0037008100200061805500d3
:100c40000b003d000b00200061fe2f000100e100c1
:100c50001d00340082817100610164008904d100ab
:100c60000884d3000000e800faff3a007100200079
:100c7000610064000300700002006000090032009f
:100c800061044400e0844c000988a500050032009e
:100c90008b05e8006808e10002003a008904d100f1
:100ca0000884d300f20f20000258e10005003d0047
:100cb000c75ddd00f907b200898075000800780083
:100cc000000006000bf827008b00780000000500ec
:100cd000c70ade00f107b200f50fb20008003200cb
:100ce000e1cf4200020032000170a00024000500a4
:100cf000810f700001003200040805004400050067
:100d0000810f700002003a00140005008502e9001e
:100d10000000400081c04800fcff3b000170a000c3
:100d2000240005000004be00e9ff07000003be0028
:100d30000405be000200be00e5ff0700844f7500f9
:100d4000000006000200be006450e100050036000d
:100d50006420e100020036000968a30001003a00a7
:100d60000800be000160a0004f0678004f05be00dd
:100d70004f04be0000000600f0ff2f00f1ff270027
:100d8000f9ff3700889fbe008a9fbe008c1f780045
:100d9000e4ff0700ebff330003866c006450e100c2
:100da000240032006420e100270032006150e1009d
:100db000220032006120e100210032008b854200d8
:100dc000eb07b1000134b800003ab8000804420053
:100dd00089844a00013ab8000030b8008880400099
:100de00009014a00040033000000400081804800ef
:100df000020149008b05e900c909dd00830170008b
:100e00000100320013002000c814de004814dd0089
:100e10004709de001200b200c808de000884700036
:100e200085ff070001f0a1000cf0a70001f0a00071
:100e3000cdff37006120e100cfff32000801be0086
:100e40000200be00f7ff37006150e100fcff3a00ee
:100e5000c9ff37006022b800060220000000d00061
:100e60008180d2000482d2008582d2000000a000de
:100e70000202520083825a00030031000202420043
:100e800083824a000000a1000603e900f3ff3a0054
:100e900000000600efff07000400be00000006008f
:100ea000881f7800030478000300e00007003d007d
:100eb00060001000e080180060011900e081190056
:100ec00002003b0001f02d00030037000400070082
:100ed00008f0a70001f0a0004f0478000000060011
:100ee000889fbe008a9fbe000082700004027100cd
:100ef00004827100260032000004be000200be0021
:100f00006011b8006b092000950220000182cf001b
:100f10000a0039000541b1000082cf000700390006
:100f20000541b1000982cf00040039000541b1003c
:100f30000882cf00010039000541b100054252008e
:100f4000120032000a003b008281710061016400de
:100f50008100d1000080d3008984d3000884d300ad
:100f60008b05e8000442e800f7ff3a00070037006d
:100f70000804440089844c00000048008180480037
:100f80008b05e9000442e900f9ff3a002aff070057
:100f90004f05be004f04be000000060000027800ae
:100fa00002003700315a78000201e900e00f5100d9
:100fb000fcff3a0000000600000278000200370043
:100fc000e0cf5200060032000400780000027800f2
:100fd000b442780081cf5200f9ff3a0000000600c9
:100fe000000005004f02b000889fbe008a9fbe002f
:100ff0008c9fbe008e1f78000006780084c5b30069
:1010000084cf50000a0032007742420084cf500063
:101010000a0032006942420084cf50000b003200c7
:101020009088200080bf9f00ae0020000a0037009b
:101030008487200084bf9f00060037009588200029
:1010400085bf9f008e002000030037009688200097
:1010500086bf9f000e0120003c02be002c03be0094
:101060000605be000404be0040c6b30080cf500099
:10107000030032006540400080cf50000b003a0072
:10108000e00f5200e08f5a00e00f5b00e08f5b0042
:1010900006003d006044b8006055b80004045400e8
:1010a00085845c0006055d0087855d00e80f5700bc
:1010b0000400320044002000f00f570038003a00ce
:1010c0000100370034002000e00f5400e08f5c0086
:1010d000e00f5d00e08f5d0004003a00dc0a900044
:1010e0008d012000e08f5200060032008e02e900e0
:1010f000888262008fbb9700e7c27a00f5e79f0005
:101100007d012000040078000000e90005003300a4
:101110008b05d1000a85d3008984d3000884d300cd
:10112000f9ff3700089ebe000a96be008e02e90055
:10113000110037008d06e900008362008fbb970025
:1011400067447b0007fd2f008f83430088f37e00f8
:10115000040378000603e900050033008381d10011
:101160000281d3008180d3000080d300f9ff3700d3
:10117000009ebe000296be003c00be002c01be00d8
:10118000e00f5000e08f5800e00f5900e08f590049
:1011900099003400e08f5600e6ff3c0096003700cf
:1011a0002c62900085c6b300854f52000b003200c0
:1011b00006003c00e04f520008003200e6c2520038
:1011c000854f520052003a0004003700c5c6b300f4
:1011d000854f52004e003a0024003700e00f5400c3
:1011e00004003a005c0a90008d012000e00f5200dc
:1011f00006003200110009000e84d8008fbb970052
:10120000e7c07800f1e79f007d0120001100090090
:101210000e84d8000a003700110009000e04d8001f
:101220008d06e9000e82b900040454000fba97003d
:10123000e4427c0004fd2f000f02420005f27e0014
:1012400000047800e00f540002003200e08f5600e6
:10125000f1ff3c00cfc4de00090578008a05780064
:10126000089ebe000a96be0063003700e00f5400df
:10127000e08f5c0004003a005c0a90008d012000c1
:10128000e00f5200070032006171b9000800be0093
:1012900000ff07000fbb970066437800f6e79f004a
:1012a0007d0120006175b9000a01be000800be0082
:1012b000e8fe07000b0037000a01be000800be0070
:1012c000430107008d06e90000f2b9000404540050
:1012d0008fbb970067427c0007fd2f008f83430080
:1012e00084f37e000004be00e00f5000e08f580041
:1012f00002003200e08f5600efff3c00088ebe0077
:101300004fcade0024069800340698003a003700e1
:10131000e00f5400e08f5c00e00f5d00e08f5d00a7
:1013200004003a005c0a90008d012000e00f52009a
:101330000b0032000e027800cfa2de000503780019
:10134000860378000800be000a01be00e101070024
:101350008fba9700e5427800f5e79f007d012000f5
:101360000e027800cfa2de00050378008603780025
:10137000c4b79f00d5b79f00e6b79f00f7b79f009f
:101380000800be000a01be00cb0107000f003700b5
:101390004fb29700dfb297006fb39700ffb397008b
:1013a0000800be000a01be00ce0107008d06e9005c
:1013b00000f2b900040454008fba970065437c0022
:1013c00005fd2f008f82420086f27e00009ebe0047
:1013d0000296be003c04be002c05be00e00f540087
:1013e000e08f5c00e00f5d00e08f5d0002003400e4
:1013f000e08f5600e6ff3c00e80f570010003a006f
:101400000c129000680262000d003200f78f560047
:1014100006003e0007fd2f008f834300e7c27e00d9
:1014200004c3b30084cf5200050032008d06e900ea
:1014300000c3b30008fd2f000f04440000f47e0039
:1014400078811600120e98006c00900004fd2f00a9
:101450000f0242008d004200d0fe07001c0a9000df
:10146000dc0a9000850f520006003d000482520005
:10147000040e98000c1290000440a100041698007d
:101480000f003700e08f52000d003d008c129000dd
:10149000f4826200f08f520009003a007c0b900049
:1014a000fc029000850253000c0b900086825200d3
:1014b000048252004240a90001003400040e98004a
:1014c0004f0778004f06be004f05be004f04be0018
:1014d0004f02b100000006000400fa00889fbe0021
:1014e0008a9fbe008c1f78000004780001067800f7
:1014f000f80d90007802900084855500080a90004d
:1015000084855500180a900084855500280a9000ab
:1015100084855500380a900084855500480a90005b
:10152000848555000402220094bf9f000403230019
:10153000a4bf9f00081290006402620015003a00e8
:10154000e08f5500130034000b0578008a04780002
:10155000e20f5500010036002900200048029000eb
:1015600009017800ee805700580090000400010047
:1015700050049800e00f50008c003200680a900080
:1015800009024200640c9800090555004240a90078
:10159000eeff3c0078019000e00f51000c00340099
:1015a000480290008c007800580090000400010070
:1015b000500498000082eb00e00f50007c003200e5
:1015c000e80a90007802900004824200640c9800bf
:1015d000880c9000e08f5400110034000905780059
:1015e000e28f5400010036002a00200048029000db
:1015f0000a017800ec8057005800900004000100b8
:1016000050049800e00f500068003200680a900013
:101610000a024200640c98008a845400edff3700ef
:1016200018099000e00f51000c00340048029000af
:10163000e800900058009000040001005004980059
:101640000082eb00e00f500059003200e80a9000e1
:10165000180a900004824200640c9800a80c9000c4
:10166000e08f54001100340009057800e28f540027
:10167000010036002a002000480290000a0178008c
:10168000ec805700580090000400010050049800be
:10169000e00f500045003200680a90000a02420044
:1016a000640c98008a845400edff370038099000dc
:1016b000e00f51000e003400e8009000180a90007e
:1016c000848040004802900058009000040001000f
:1016d000500498000082eb00e00f5000340032000c
:1016e000e80a9000380a900004824200640c9800d6
:1016f000c80c9000e08f54001100340009057800f8
:10170000e28f5400010036002a00200048029000b9
:101710000a017800ec805700580090000400010096
:1017200050049800e00f500020003200680a90003a
:101730000a024200640c98008a845400edff3700ce
:101740000812900064026200190032000002eb00ef
:10175000848f5500160034008b047800090578004a
:10176000e28f5400010036002a0020004802900059
:101770000a017800ee805700580090000400010034
:1017800050049800e00f500008003200680a9000f2
:101790000a024200640c98008a8454004240a90066
:1017a000eeff3c000002eb00010037000082eb007e
:1017b000040078004f0678004f05be004f04be00bd
:1017c0000080fa0000000600010878000000060012
:1017d000839f68000100e00002003d0060001000ef
:1017e000e08018000300e00002003d0060011100ed
:1017f000e081190097fd07004f00e00002003b0068
:1018000060001000e080180000000600889fbe0005
:101810008a9fbe003004be002005be0004044400c0
:1018200085844c0006054d0087854d000898be0054
:101830000a90be000440e10005c8e10006d0e100c6
:1018400007d8e10002003100680040001008e800fd
:101850004f05be004f04be00000006001000fa0055
:10186000889fbe008a9fbe000605be000404be001d
:101870003002be002003be00c4b79f00d5b79f0052
:10188000e6b79f00f7b79f000802520089825a000e
:101890000a035b008b835b0084bf9f0095bf9f00a2
:1018a000a6bf9f00b7bf9f000498be000698be0069
:1018b000110020004fb29700dfb297006fb397007e
:1018c000ffb397000820e10009a8e1000ab0e10099
:1018d0000bb8e100010039008000eb001088100017
:1018e0004f05be004f04be000080fa000000060055
:1018f0001400fa00889fbe008a9fbe008c9fbe0025
:101900003f0007000605be000404be000006eb0011
:10191000ccb79f00bcb79f00acb79f009cb79f009f
:101920008cb79f000d0420004fb39700bfb2970003
:10193000860343002fb29700e00f530004003d00e0
:101940003d0007000f004000b0ff07000300370014
:10195000390007000f004000c0ff0700cfb297001a
:1019600095bf9f00e08f5200090035002b00070053
:1019700014002000050020006033b8000000720051
:101980008180720002017300838173001c000700d4
:101990000c06e8008d0f5600e3ff3a001fba9700cf
:1019a000e00f520005003d000802be000a03be0021
:1019b00000fe2f000f00400094ff07004faa970081
:1019c000e00f520008003a000fb497009fb4970050
:1019d0002fb59700bfb59700d8b79f00e9b79f0014
:1019e000fab79f008bbf9f000c0007004f06be0098
:1019f0004f05be004f04be000080fa000000060044
:101a0000010007000000060090b79f00a1b79f00eb
:101a1000b2b79f00c3b79f00000006000100070097
:101a2000000006001fb09700afb097003fb19700cd
:101a3000cfb19700000006004f2bde008703730034
:101a4000a7b79f004f23de00858242008502730006
:101a500095b79f00ffaa97004f2bde0004024200bb
:101a60000402730084b79f006faa97004f23de0023
:101a70008582420085027300f5af9f00e9ff0700f1
:101a80004f18de000402420000027200e4af9f0023
:101a9000e4ff070000004000818048000201490087
:101aa00083814900d8ff07000802be000a03be0078
:101ab00000fe2f0000000600881f7800180020009c
:101ac000881f78008aff07008f87e9004f0478009d
:101ad00000000600801feb0085ff07008f87e900ec
:101ae00000000600889fbe008a9fbe00e00f5000e5
:101af000e08f5800e00f5900e08f59000c003d00c6
:101b00006044b8006055b8000000540081805c005b
:101b100002015d0083815d001800200015000700b0
:101b200008003d00180007000004eb000500370026
:101b30000004eb000f00070002003d001200070048
:101b400018002000dcff0700e00f54000600320000
:101b50006022b8006033b8000000520081805a0053
:101b600002015b0083815b004f05be004f04be0095
:101b700000000600e00f5200e08f5a00e00f5b000b
:101b8000e08f5b00000006006044b8006055b800bc
:101b90000402540085825c0006035d0087835d00bb
:101ba00000000600889fbe008a9fbe008c1f780040
:101bb000e00f5000e08f5800e00f5900e08f59000f
:101bc0000d003d006044b8006055b80000005400ae
:101bd00081805c0002015d0083815d001c002000ab
:101be0000820e10009a8e1000ab0e1000bb8e1001b
:101bf0000d003d00080037000006eb00e00f52002a
:101c0000e08f5a00e00f5b00e08f5b0006003d00b4
:101c10006044b8006055b8000402540085825c003e
:101c200006035d0087835d00aaff0700e00f5600f2
:101c3000060032006022b8006033b8000000520095
:101c400081805a0002015b0083815b004f067800af
:0c1c50004f05be004f04be00000006005f
:020000040000fa
:101c5c000000000000000000000000000000000078
:101c6c000000000000000000000000000000000068
:101c7c00000000003eff0000ff3e000000000000de
:101c8c0000000000000d00000d000000000000002e
:101c9c00000400000703000000040000070300001c
:101cac000000000000000000000000000000000028
:101cbc0010fe0000fe10000010fe0000fe100000e0
:101ccc00010f00000f010000010f00000f010000c8
:101cdc001c3e000022ff0000ff420000ce8c0000e2
:101cec0003070000040f00000f04000007030000ae
:101cfc000000000006c60000f03c00000e020000d0
:101d0c0000040000070300000006000006000000ad
:101d1c001e3f0000e1c10000412100003f1e0000f9
:101d2c00060f0000090900000b0c00001e16000035
:101d3c000000000004070000030000000000000089
:101d4c000000000000000000000000000000000087
:101d5c0000000000f8fe0000070100000000000079
:101d6c0000000000000700000e080000000000004a
:101d7c000000000001070000fef800000000000059
:101d8c0000000000080e0000070100000000000029
:101d9c0020a80000f870000070f80000a8200000d7
:101dac000000000000000000000000000000000027
:101dbc002020000020fc0000fc200000202000005f
:101dcc000000000000010000010000000000000005
:101ddc0000000000000000000000000000000000f7
:101dec0000000000203c00001c000000000000006f
:101dfc0020200000202000002020000020200000d7
:101e0c0000000000000000000000000000000000c6
:101e1c0000000000000000000000000000000000b6
:101e2c0000000000000c00000c000000000000008e
:101e3c000000000000c00000f03c00000f03000098
:101e4c00000c00000f030000000000000000000068
:101e5c00feff00000101000001010000fffe000078
:101e6c00070f000008080000080800000f0700001a
:101e7c000004000006ff0000ff000000000000004e
:101e8c0000080000080f00000f0800000800000008
:101e9c000203000081c10000613100001f0e000030
:101eac000e0f00000908000008080000080c0000d4
:101ebc00020300000121000021210000ffde0000d0
:101ecc00040c000008080000080800000f070000c0
:101edc00e0f00000988c000086ff0000ff0000007e
:101eec000000000000000000080f00000f080000b8
:101efc003f3f00002121000021210000e1c1000032
:101f0c00040c000008080000080800000f0700007f
:101f1c00fcfe00002321000021210000e0c0000095
:101f2c00070f000008080000080800000f07000059
:101f3c000303000001810000e17900001f0700008d
:101f4c0000000000000f00000f0000000000000067
:101f5c00deff00002121000021210000ffde000037
:101f6c00070f000008080000080800000f07000019
:101f7c001e3f00002121000021210000fffe000077
:101f8c000008000008080000080c0000070300000f
:101f9c000000000000180000180000000000000005
:101fac000000000000060000060000000000000019
:101fbc0000000000001800001800000000000000e5
:101fcc0000000000101e00000e00000000000000c9
:101fdc0040e00000b01800000c06000002000000f9
:101fec000000000001030000060c000008000000c7
:101ffc0000a00000a0a00000a0a00000a000000015
:10200c0000000000000000000000000000000000c4
:10201c0000020000060c000018b00000e0400000b8
:10202c00000800000c060000030100000000000086
:10203c000203000001c10000e13100001f0e00008e
:10204c0000000000000d00000d000000000000006a
:10205c000203000001c10000e13100001f0e00006e
:10206c0000000000000d00000d000000000000004a
:10207c00f8fc00008683000083860000fcf800005a
:10208c000f0f000000000000000000000f0f000008
:10209c00ffff00002121000021210000ffde0000d5
:1020ac000f0f000008080000080800000f070000d0
:1020bc00fcfe00000301000001010000030600000b
:1020cc00030700000c080000080800000c060000c4
:1020dc0001ff0000ff01000001030000fefc0000f6
:1020ec00080f00000f080000080c00000703000098
:1020fc0001ff0000ff21000021710000030300001c
:10210c00080f00000f080000080800000c0c00006d
:10211c0001ff0000ff2100002171000003030000fb
:10212c00080f00000f080000000000000000000075
:10213c00fcfe00000301000041410000c3c600008a
:10214c00030700000c08000008080000070f00003f
:10215c00ffff00002020000020200000ffff0000f7
:10216c000f0f000000000000000000000f0f000027
:10217c000001000001ff0000ff0100000100000051
:10218c0000080000080f00000f0800000800000005
:10219c00000000000000000001ff0000ff01000033
:1021ac00060e000008080000080f000007000000e1
:1021bc0001ff0000ff700000d88c00000703000036
:1021cc00080f00000f000000000100000f0e0000bf
:1021dc0001ff0000ff0100000000000000000000f3
:1021ec00080f00000f080000080800000c0c00008d
:1021fc00ffff00000c780000780c0000ffff0000cf
:10220c000f0f000000000000000000000f0f000086
:10221c00ffff00001c38000070e00000ffff000012
:10222c000f0f000000000000000000000f0f000066
:10223c00feff00000101000001010000fffe000094
:10224c00070f000008080000080800000f07000036
:10225c0001ff0000ff210000212100003f1e0000b3
:10226c00080f00000f080000000000000000000034
:10227c00feff00000101000001010000fffe000054
:10228c00070f0000080e00001c3800002f0700008c
:10229c0001ff0000ff21000021610000ff9e0000f3
:1022ac00080f00000f080000000000000f0f0000d6
:1022bc000e1f00003121000021610000c7860000c4
:1022cc00060e000008080000080800000f070000b8
:1022dc000303000001ff0000ff01000003030000e6
:1022ec0000000000080f00000f08000000000000b4
:1022fc00ffff00000000000000000000ffff0000d6
:10230c00070f000008080000080800000f07000075
:10231c00ffff00000000000000000000ffff0000b5
:10232c0001030000060c00000c0600000301000075
:10233c00ffff000000e00000e0000000ffff0000d5
:10234c00010f00000e030000030e00000f0100003f
:10235c00070f000098f00000f09800000f07000035
:10236c000e0f000001000000000100000f0e000025
:10237c000f1f000030e00000e03000001f0f0000d5
:10238c0000000000080f00000f0800000000000013
:10239c0003830000c1610000311900000f07000029
:1023ac000f0f000008080000080800000c0c0000cb
:1023bc0000000000ffff0000010100000000000011
:1023cc00000000000f0f00000808000000000000d3
:1023dc0055aa000055aa000055aa000055aa0000f5
:1023ec0055aa000055aa000055aa000055aa0000e5
:1023fc000000000001010000ffff000000000000d1
:10240c0000000000080800000f0f00000000000092
:10241c00080c000006030000030600000c08000076
:10242c0000000000000000000000000000000000a0
:10243c000000000000000000000000000000000090
:10244c001010000010100000101000001010000000
:10245c0000000000080f0000070000000000000052
:10246c000000000000000000000000000000000060
:10247c00009000009090000090f00000e000000040
:10248c00070f000008080000080700000f080000f4
:10249c0001ff0000ff10000010300000e0c0000041
:1024ac00080f000007080000080800000f070000d4
:1024bc00e0f00000101000001010000030200000b0
:1024cc00070f000008080000080800000c040000ba
:1024dc00c0e000003010000011ff0000ff00000001
:1024ec00070f000008080000080700000f08000094
:1024fc00e0f000009090000090900000f0e00000f0
:10250c00070f000008080000080800000c04000079
:10251c0000100000feff000011110000030200007b
:10252c00000800000f0f0000080000000000000071
:10253c00e0f000001010000010e00000f0100000af
:10254c00276f000048480000487f00003f00000053
:10255c0001ff0000ff20000010100000f0e0000060
:10256c00080f00000f000000000000000f0f00001b
:10257c000010000010f60000f60000000000000043
:10258c0000080000080f00000f0800000800000001
:10259c000000000010100000f6f600000000000023
:1025ac0030600000404000007f3f00000000000051
:1025bc0001ff0000ffc00000c060000030100000f0
:1025cc00080f00000f000000010300000e0c0000bb
:1025dc000001000001ff0000ff00000000000000ef
:1025ec0000080000080f00000f08000008000000a1
:1025fc00f0f0000030e00000e0300000f0e00000ff
:10260c000f0f000000070000070000000f0f000074
:10261c0010f00000e010000010100000f0e00000ce
:10262c00000f00000f000000000000000f0f000062
:10263c00e0f000001010000010100000f0e00000ae
:10264c00070f000008080000080800000f07000032
:10265c0010f00000e010000010100000f0e000008e
:10266c00407f00007f480000080800000f070000b2
:10267c00e0f000001010000010e00000f01000006e
:10268c00070f000008080000487f00007f40000092
:10269c0010f00000e01000001010000030200000ce
:1026ac00000f00000f000000000000000000000000
:1026bc0060f00000909000009010000030200000ae
:1026cc00040c000008080000090900000f060000b7
:1026dc0010100000feff00001010000000000000b1
:1026ec0000000000070f0000080c000004000000b0
:1026fc00f0f000000000000000f00000f00000000e
:10270c00070f000008080000080700000f08000071
:10271c00f0f000000000000000000000f0f00000ed
:10272c0001030000060c00000c0600000301000071
:10273c00f0f000000080000080000000f0f00000cd
:10274c00070f00000c070000070c00000f0700002b
:10275c001030000060c00000c060000030100000ad
:10276c00080c000006030000030600000c08000023
:10277c00f0f000000000000000000000f0f000008d
:10278c00474f000048480000486800003f1f000009
:10279c003030000010900000d070000030100000ad
:1027ac000c0e00000b090000080800000c0c0000c7
:1027bc00000000000000000000000000005f0000ae
:1027cc0000000000000700000007000000140000db
:1027dc007f1400007f140000242a00007f2a0000d0
:1027ec001223000013080000646200003649000048
:1027fc0055220000500000000503000000000000fe
:10280c00001c0000224100000000000041220000da
:10281c001c000000082a00001c2a00000808000008
:10282c00083e0000080800000050000030000000c6
:10283c000008000008080000080800000030000034
:10284c00300000000020000010080000040200000e
:10285c003e510000494500003e000000427f000050
:10286c004000000042610000514900004621000078
:10287c00414500004b31000018140000127f00008d
:10288c001027000045450000453900003c4a000077
:10289c0049490000300100007109000005030000e7
:1028ac00364900004949000036060000494900003d
:1028bc00291e000000360000360000000000000059
:1028cc005636000000000000000800001422000032
:1028dc0041140000141400001414000041220000e4
:1028ec00140800000002000001510000090600005d
:1028fc0032490000794100003e7e000011110000b9
:10290c00117e00007f49000049490000363e00005e
:10291c0041410000412200007f41000041220000a3
:10292c001c7f000049490000494100007f0900005c
:10293c0009010000013e000041410000513200003d
:10294c007f080000080800007f000000417f0000a5
:10295c004100000020400000413f0000017f0000ca
:10296c0008140000224100007f400000404000009d
:10297c00407f000002040000027f00007f04000082
:10298c00081000007f3e000041410000413e000065
:10299c007f09000009090000063e000041510000bb
:1029ac00215e00007f090000192900004646000046
:1029bc004949000049310000010100007f0100007d
:1029cc00013f000040400000403f00001f2000007d
:1029dc00402000001f7f000020180000207f000016
:1029ec006314000008140000630300000478000066
:1029fc000403000061510000494500004300000041
:102a0c00007f00004141000002040000081000009b
:102a1c0020410000417f0000000000000402000083
:102a2c000102000004400000404000004040000053
:102a3c0000010000020400000020000054540000bb
:102a4c00547800007f4800004444000038380000ef
:102a5c004444000044200000384400004448000076
:102a6c007f3800005454000054180000087e000009
:102a7c00090100000208000014540000543c00003e
:102a8c007f0800000404000078000000447d000072
:102a9c004000000020400000443d00000000000009
:102aac007f10000028440000004100007f4000001f
:102abc00007c000004180000047800007c08000072
:102acc00040400007838000044440000443800003e
:102adc007c140000141400000808000014140000fa
:102aec00187c00007c08000004040000084800006a
:102afc005454000054200000043f000044400000e7
:102b0c00203c000040400000207c00001c20000005
:102b1c00402000001c3c000040300000403c000005
:102b2c004428000010280000440c00005050000005
:102b3c00503c000044640000544c00004400000071
:102b4c000836000041000000000000007f0000007b
:102b5c0000000000413600000800000008080000da
:102b6c002a1c0000080800001c2a000008080000ad
:102b7c000000000000000000000000000000000049
:102b8c000000000000800000c0e00000f0f8000031
:102b9c00f0e00000c0800000000000000000000019
:102bac000000000000000000000000000000000019
:102bbc00ff000000000000000000000008180000ea
:102bcc0038780000f8f80000f8f80000f8f8000079
:102bdc00f8f80000f8f80000f8f80000f8780000a9
:102bec003818000008000000000000000000000081
:102bfc00ff000000000000000000000000000000ca
:102c0c000000000000000000e0300000188c000004
:102c1c00040400008c18000030e0000000000000ec
:102c2c000000000000000000000000000000000098
:102c3c00ff00000000000000000000000000000089
:102c4c00000000000008000010e0000060b0000070
:102c5c0030600000c0000000000000000000000018
:102c6c000000000000000000000000000000000058
:102c7c0000000000000000000020000030380000c0
:102c8c003c3e00003f3f00003f3f00003f3f000044
:102c9c003f3f00003f3f00003f3e00003c3800003b
:102cac0030200000000000000000000000000000c8
:102cbc00ff00000000000000000000000000000009
:102ccc000000000000010000030700000f1f0000bf
:102cdc003f1f00000f070000030100000000000070
:102cec0000000000000000000000000000000000d8
:102cfc00ff000000000000000000000000000000c9
:102d0c00000000000000000001030000063d000070
:102d1c007f7900003d060000030100000000000068
:102d2c000000000000000000000000000000000097
:102d3c00ff00000000000000000000000000000088
:102d4c0000000000000000000f0800001828000020
:102d5c00291a00000c0f00001020000000000000d9
:102d6c000000000000000000000000000000000057
:102d7c000202000002020000020200000202000037
:102d8c000202000002020000020200000202000027
:102d9c000202000002020000020200000202000017
:102dac000202000002020000020200000202000007
:102dbc0003020000020200000202000002020000f6
:102dcc0002020000020200000202000002020000e7
:102ddc0002020000020200000202000002020000d7
:102dec0002020000020200000202000002020000c7
:102dfc0003020000020200000202000002020000b6
:102e0c0002020000020200000202000002020000a6
:102e1c000202000002020000020200000202000096
:102e2c000202000002020000020200000202000086
:102e3c000302000002020000020200000202000075
:102e4c000202000002020000020200000202000066
:102e5c000202000002020000020200000202000056
:102e6c000202000002020000020200000202000046
:102e7c000000000000000000000000000000000046
:1031dc000000000000000000007c000044440000df
:1031ec00440000007c440000444400007c000000cb
:1031fc004864000054480000000000000044000037
:10320c002010000008440000000000000000000036
:10321c0000000000000000000000000000000000a2
:10322c000000000000000000000000000000000092
:10323c000000000000000000000000000000000082
:10324c000000000000000000000000000000000072
:10325c000000000000000000000000000000000062
:10326c000000000000000000000000000000000052
:10327c000000000000000000000000000000000042
:10328c000000000000000000003f000021210000b1
:10329c00212100002121000021210000212100001a
:1032ac00212100002121000021210000212100000a
:1032bc0021210000212100002121000021210000fa
:1032cc0021210000212100002121000021210000ea
:1032dc0021210000212100002121000021210000da
:1032ec0021210000212100002121000021210000ca
:1032fc0021210000212100002121000021210000ba
:10330c0021210000212100002121000021210000a9
:10331c002121000021210000212100002121000099
:10332c002121000021210000212100002121000089
:10333c002121000021210000212100002121000079
:10334c002121000021210000212100002121000069
:10335c00212100003f0000000000000000000000e0
:10336c000000000000000000000000000000000051
:10337c000000000000000000000000000000000041
:10338c000000000000800000c0e00000f0f8000029
:10339c00f0e00000c0800000000000000000000011
:1033ac000000000000000000000000000000000011
:1033bc00ff000000000000000000000008180000e2
:1033cc0038780000f8f80000f8f80000f8f8000071
:1033dc00f8f80000f8f80000f8f80000f8780000a1
:1033ec003818000008000000000000000000000079
:1033fc00ff000000000000000000000000000000c2
:10340c000000000000000000e0300000188c0000fc
:10341c00040400008c18000030e0000000000000e4
:10342c000000000000000000000000000000000090
:10343c00ff00000000000000000000000000000081
:10344c00000000000008000010e0000060b0000068
:10345c0030600000c0000000000000000000000010
:10346c000000000000000000000000000000000050
:10347c0000000000000000000020000030380000b8
:10348c003c3e00003f3f00003f3f00003f3f00003c
:10349c003f3f00003f3f00003f3e00003c38000033
:1034ac0030200000000000000000000000000000c0
:1034bc00ff00000000000000000000000000000001
:1034cc000000000000010000030700000f1f0000b7
:1034dc003f1f00000f070000030100000000000068
:1034ec0000000000000000000000000000000000d0
:1034fc00ff000000000000000000000000000000c1
:10350c00000000000000000001030000063d000068
:10351c007f7900003d060000030100000000000060
:10352c00000000000000000000000000000000008f
:10353c00ff00000000000000000000000000000080
:10354c0000000000000000000f0800001828000018
:10355c00291a00000c0f00001020000000000000d1
:10356c00000000000000000000000000000000004f
:10357c00020200000202000002020000020200002f
:10358c00020200000202000002020000020200001f
:10359c00020200000202000002020000020200000f
:1035ac0002020000020200000202000002020000ff
:1035bc0003020000020200000202000002020000ee
:1035cc0002020000020200000202000002020000df
:1035dc0002020000020200000202000002020000cf
:1035ec0002020000020200000202000002020000bf
:1035fc0003020000020200000202000002020000ae
:10360c00020200000202000002020000020200009e
:10361c00020200000202000002020000020200008e
:10362c00020200000202000002020000020200007e
:10363c00030200000202000002020000020200006d
:10364c00020200000202000002020000020200005e
:10365c0002020000c242000042420000c20200000e
:10366c00020200000202000002020000020200003e
:10367c00000000000000000000000000000000003e
:10368c00000000000000000000000000000000002e
:10369c00000000000000000000000000000000001e
:1036ac00000000000000000000000000000000000e
:1036bc0000000000000000000000000000000000fe
:1036cc0000000000000000000000000000000000ee
:1036dc0000000000000000000000000000000000de
:1036ec0000000000000000000000000000000000ce
:1036fc0000000000000000000000000000000000be
:10370c0000000000000000000000000000000000ad
:10371c00000000000000000000000000000000009d
:10372c00000000000000000000000000000000008d
:10373c00000000000000000000000000000000007d
:10374c00000000000000000000000000000000006d
:10375c00fcfc0000fffc00003cfc0000fffc000037
:10376c00fc00000000000000000000000000000051
:10377c00000000000000000000000000000000003d
:10378c00000000000000000000000000000000002d
:10379c00000000000000000000000000000000001d
:1037ac00000000000000000000000000000000000d
:1037bc0000000000000000000000000000000000fd
:1037cc0000000000000000000000000000000000ed
:1037dc0000000000000000000000000000000000dd
:1037ec0000000000000000000000000000000000cd
:1037fc0000000000000000000000000000000000bd
:10380c0000000000000000000000000000000000ac
:10381c00000000000000000000000000000000009c
:10382c00000000000000000000000000000000008c
:10383c00000000000000000000000000000000007c
:10384c00000000000000000000000000000000006c
:10385c000303000003030000030300000303000044
:10386c000300000000000000000000000000000049
:10387c00000000000000000000000000000000003c
:10388c00000000000000000000000000000000002c
:10389c00000000000000000000000000000000001c
:1038ac00000000000000000000000000000000000c
:1038bc0000000000000000000000000000000000fc
:1038cc0000000000000000000000000000000000ec
:1038dc0000000000000000000000000000000000dc
:1038ec0000000000000000000000000000000000cc
:1038fc0000000000000000000000000000000000bc
:10390c0000000000000000000000000000000000ab
:10391c00000000000000000000000000000000009b
:10392c00000000000000000000000000000000008b
:10393c00000000000000000000000000000000007b
:10394c00000000000000000000000000000000006b
:10395c00000000000000000000000000000000005b
:10396c00000000000000000000000000000000004b
:10397c00000000000000000000000000000000003b
:10398c00000000000000000000000000000000002b
:10399c00000000000000000000000000000000001b
:1039ac00000000000000000000000000000000000b
:1039bc0000000000000000000000000000000000fb
:1039cc0000000000000000000000000000000000eb
:1039dc000000000000000000007c000044440000d7
:1039ec00440000007c440000444400007c000000c3
:1039fc00486400005448000000000000004400002f
:103a0c00201000000844000000000000000000002e
:103a1c00000000000000000000000000000000009a
:103a2c00000000000000000000000000000000008a
:103a3c00000000000000000000000000000000007a
:103a4c00000000000000000000000000000000006a
:103a5c00000000000000000000000000000000005a
:103a6c00000000000000000000000000000000004a
:103a7c00000000000000000000000000000000003a
:103a8c000000000000000000003f000021210000a9
:103a9c002121000021210000212100002121000012
:103aac002121000021210000212100002121000002
:103abc0021210000212100002121000021210000f2
:103acc0021210000212100002121000021210000e2
:103adc0021210000212100002121000021210000d2
:103aec0021210000212100002121000021210000c2
:103afc0021210000212100002121000021210000b2
:103b0c0021210000212100002121000021210000a1
:103b1c002121000021210000212100002121000091
:103b2c002121000021210000212100002121000081
:103b3c002121000021210000212100002121000071
:103b4c002121000021210000212100002121000061
:103b5c00212100003f0000000000000000000000d8
:103b6c000000000000000000000000000000000049
:103b7c0002010000414c0000415200004d210000a8
:103b8c00212100000a0000004f500000454e0000ab
:103b9c000a000000434c00004f5300004544000055
:103bac000a0000004c4f0000434b0000454400004d
:103bbc000a000000554e00004c4f0000434b000023
:103bcc00454400000a0000004f4e00000a000000af
:103bdc004f460000460a000000250000640000006b
:103bec002d2d0000204400004f4f000052200000fb
:103bfc005359000053540000454d0000202d000087
:103c0c002d0d00000a000000446f00006f720000d0
:103c1c0020690000733a0000200000000a0d00002b
:103c2c00004400006f6f0000722000006c6f0000f9
:103c3c00636b000020690000733a00002000000054
:103c4c004c69000067680000742000006973000074
:103c5c003a200000004300007572000072650000fd
:103c6c006e740000204300004f320000206c0000f6
:103c7c0065760000656c00003a20000000450000ed
:103c8c006e760000697200006f6e00006d650000ba
:103c9c006e740000206c00006967000068740000fe
:103cac00206c000065760000656c00003a20000076
:043cbc000000000004
:020000040000fa
:103cc0000200fa00004f78001e427800e04f5200d8
:103cd00005003200151780000402200004827200e3
:103ce000141788000400370015178000f4fd2f001a
:103cf00004826200141788000080fa0000000600a9
:103d00000200fa00004f78001e427800e04f520097
:103d100004003200141780000440a000141788002b
:103d20000400370015178000f4fe2f0004826200a3
:103d3000141788000080fa00000006000200fa0054
:103d4000004f78001e427800e04f5200040032001d
:103d5000141780000410a000141788000400370016
:103d600015178000d4ff2f0004826200141788000a
:103d70000080fa00000006000200fa00004f780000
:103d80001e427800e04f52000400320014178000f9
:103d90000400a000141788000400370015178000e5
:103da000e4ff2f0004826200141788000080fa00ec
:103db000000006000200fa00004f78001e42780062
:103dc000e04f52000500320055168000040220002a
:103dd00004827200541688000400370055168000d3
:103de000f4fd2f0004826200541688000080fa005f
:103df000000006000200fa00004f78001e42780022
:103e0000e04f520004003200541680000440a0002d
:103e1000541688000400370055168000f4fe2f0069
:103e200004826200541688000080fa000000060038
:103e30000000fa00dea2a900de82a900de22a900ad
:103e4000de02a900a8a2a800c6a2a900a882a80014
:103e5000c682a900a802a800c602a900a822a8003c
:103e6000c622a900a842a800c642a900a862a800cc
:103e7000c662a900d202a900d222a900d242a9009a
:103e8000d262a9000080fa00000006000200fa00d9
:103e9000004f78001e427800e04f520008003a00c0
:103ea000d202a900d222a900d242a900d262a9005e
:103eb000c662a900c642a900c622a900c602a9007e
:103ec0001e427800e14f520008003a00d202a800da
:103ed000d222a800d242a800d262a800c662a800de
:103ee000c642a800c622a800c602a8000080fa00a8
:103ef000000006000400fa00204798002e429000bf
:103f0000044f7800b516800004ff2f000482620081
:103f1000b41688005516800004ff2f00048262004a
:103f2000541688009e4278006fc2620014479800c1
:103f30001e4290008482fb005416800004827200ae
:103f4000541688009e4278000582fb004422de0061
:103f5000044f78001e4278008482fb00b416800073
:103f600004827200b41688000080fa000000060087
:103f70000200fa00a4168000044f78001e42780068
:103f8000450020000522dd00044f78004416800023
:103f9000144798001e4290006f4262001447980038
:103fa0001e4290001e424200144798001e4290009c
:103fb000044078000080fa00000006000000fa00cb
:103fc00010c0b3004eff07000040eb004cff07009d
:103fd0000080fa00000006000200fa00004f78009e
:103fe0000040eb0064ff07000040eb0053ff0700b8
:103ff0001e407800bfff0700f0ff07000080fa00b6
:10400000000006000400fa00100798000002eb0010
:10401000040f7800010037001e0fe8001e02900018
:104020009e027800848f5200fbff39000080fa0066
:10403000000006000200fa000040eb004eff0700ff
:1040400010c0b3003dff070010c0b3008fff070092
:1040500010c0b3002aff0700c5ff07000042780028
:10406000044f78000040eb0025ff070003003700f5
:10407000bfff070000427800044f78001e4278001e
:10408000e04f5200faff35000080fa000000060001
:104090000200fa00004f7800f4c3b3009e4278009b
:1040a00084cf52000a003e0010c0b3003900070060
:1040b00004c4b3001e42720004407800c6ff07002b
:1040c00014c0b300044078006ce8b7000f0037005c
:1040d0001e427800e04f52000c0035000040eb001b
:1040e0002c00070004ccb3001e424200844278003a
:1040f00004c4b30004c2720004407800b6ff070095
:104100000042eb00044078006ce8b7001e407800e5
:104110006ae8b7000080fa00000006000200fa001a
:10412000004f78001e427800e74f520006003e0024
:1041300084cbb3001e42720004407800a6ff070043
:104140001e4078006be8b7000080fa00000006000f
:104150000200fa00004f7800114798001e407800d6
:10416000cbff07001e409000ecff07000080fa0024
:10417000000006000200fa00004f780004ccb300f3
:104180001e4272000440780093ff07000080fa008e
:10419000000006000200fa00004f78000040eb002b
:1041a000f5fe07001e427800e04f52000c003a0076
:1041b0000040eb00e1fe070010c0b3000dff070058
:1041c0000040eb00fbfe0700f0c3b30082ff0700d6
:1041d0000042eb00044078006ce8b7000b003700a9
:1041e0000040eb00d5fe07000040eb0001ff070098
:1041f00010c0b300effe0700f0c3b30076ff070066
:1042000014c0b300044078006ce8b7000080fa00e6
:10421000000006000200fa00004f780010c0b30052
:10422000d5fe07000040eb00c4fe07001e407800ea
:1042300030ff070061ff07000080fa000000060061
:104240000200fa0010c0b30010ff070010c0b30056
:10425000c9fe070010c0b300b8fe070057ff0700f3
:1042600010c0b300a6fe070041ff0700004278001f
:10427000044f78000040eb00a1fe07000040eb0077
:1042800002ff07000040eb00bbfe07000040eb0010
:10429000aafe07001e427800044078000080fa0061
:1042a000000006000200fa000042eb0014479800ec
:1042b0001d0037009e4090000040eb00a4ff070067
:1042c0000042eb00044f78000300370000c0eb0011
:1042d000d0ff07001e4fe800f4c3b3009e427800f1
:1042e00084cf5200f9ff36009e40900000c4b30016
:1042f00097ff07000042eb00044f780003003700ef
:1043000000c0eb00c3ff07001e4fe800f4c3b3007a
:104310009e42780084cf5200f9ff36001e42900082
:104320000442e800144798001e429000e74f5200f4
:10433000e0ff36000080fa00000006000200fa00ec
:104340000042eb00144798001d0037009e4090008b
:104350000040eb007eff07000042eb00044f7800b6
:10436000030037000040eb00aaff07001e4fe800e3
:10437000f4c3b3009e42780084cf5200f9ff3600a8
:104380009e40900000c4b30071ff07000042eb00a4
:10439000044f7800030037000040eb009dff07004a
:1043a0001e4fe800f4c3b3009e42780084cf520051
:1043b000f9ff36001e4290000442e80014479800be
:1043c0001e429000e74f5200e0ff36000080fa00e6
:1043d000000006000000fa0095fe07000040eb0018
:1043e000c4fe07000040eb0063fe07000040eb0046
:1043f00052fe07000040eb0041fe07000040eb00ca
:104400007cfe07000040eb006afe070010c0b3000e
:104410002bfe0700a0002000fafe07000040eb0082
:1044200027fe0700a0002000f6fe070010c0b30022
:1044300023fe070010c0b30056ff0700e0c3b3001f
:10444000e5fe070000ccb300e3fe070080cbb3001d
:10445000e1fe070000c4b300dffe0700f0c3b300b5
:10446000ddfe07000040eb004aff0700e0c3b30099
:10447000d9fe070000ccb300d7fe070080cbb30005
:10448000d5fe070000c4b300d3fe0700f0c3b3009d
:10449000d1fe0700a9ff0700e09b290002000700ea
:1044a0000080fa00000006000400fa0010079800df
:1044b0000042eb0014479800300037009e40900007
:1044c0000040eb0022ff07000042eb00044f7800a1
:1044d0000c0037001e4290000482fb00c722dd0062
:1044e0001e4378000682fb00048242009e02900078
:1044f00004824200144278000440780045ff07001f
:104500001e4fe800f4c3b3009e42780084cf5200ef
:10451000f0ff36009e40900000c4b3000cff07007f
:104520000042eb00044f78000d0037001e4290005f
:104530000482fb00c722dd001e4378000682fb00d8
:10454000048242000404b0009e02900004824200f3
:1045500014427800044078002eff07001e4fe80048
:10456000f4c3b3009e42780084cf5200efff3600c0
:104570001e4290000442e800144798001e4290003a
:10458000e74f5200cdff36000080fa000000060021
:104590000400fa0020479800314798000042eb00e1
:1045a000044f78003e4290000482fb004322de006c
:1045b00004427800844078002e409000e4fe07001a
:1045c0001fff070000427800044f78003e42900031
:1045d0000482fb004322de0004427800844078001d
:1045e0002e409000dafe07003e4290000482fb005d
:1045f0006702620015002000042add008442780072
:104600001e42780004c272000440780001ff0700d7
:104610000080fa00000006000400fa00204798001d
:10462000314798000042eb00044f78003e42900072
:104630000482fb004322de000442780084407800bc
:104640002e409000c2fe0700fdfe070000427800e9
:10465000044f78003e4290000482fb004322de00bb
:1046600004427800844078002e409000b8fe070095
:104670003e4290000482fb006702620015002000a9
:10468000042add000442780084c2ea001e42780059
:1046900004c2620004407800defe07000080fa00d9
:1046a000000006000c00fa00004f9800114f98001f
:1046b000224f98000002eb00040f78000002eb008c
:1046c000140798000002eb00240798009e4a90000f
:1046d0000e4a900004c25200644798002e4a90008f
:1046e0000482fb00140798002e4a90008482fb008d
:1046f000e4ff2f0004aab90004027800630f42000f
:10470000740037001e029000844278001e4a900018
:1047100084c242002e029000044378000e4a9000aa
:1047200004424300854078000440780098ff070069
:104730001e029000044278009e4a900084c25200fb
:104740002e029000044378000e4a90000442430079
:1047500085407800044078008dff07001e0290001d
:10476000844278001e4a900084c242002e029000cb
:10477000044278000e4b90000442530085407800bc
:104780000440780082ff07001e0290000442780077
:104790009e4a900084c252002e029000044278008b
:1047a0000e4b90000442530085407800044078008e
:1047b00077ff07002e029000844278001e4a900086
:1047c00084c242001e029000044378001e4a9000fa
:1047d000044343006e429000044253008540780039
:1047e000044078006aff07002e029000044278001f
:1047f0009e4a900084c252001e029000044378003a
:104800001e4a9000044343006e429000044253004d
:1048100085407800044078005dff07002e0290007c
:10482000844278001e4a900084c242001e0290001a
:10483000044278001e4b9000044353006e429000e7
:1048400004425300854078000440780050ff070080
:104850002e029000044278009e4a900084c25200ca
:104860001e029000044278001e4b90000443530047
:104870006e42900004425300854078000440780066
:1048800043ff07001e027800e00f520005003d00c4
:104890002e0290004222dd00660242001e0f4200fe
:1048a00009003700ae0290001e0290000482520000
:1048b0004222dd006a0242001e0f42001e029000ea
:1048c0000402e900140798002e0290000402e80098
:1048d00024079800ae0290001e029000848f5200c0
:1048e00088ff34000080fa00000006000600fa008d
:1048f0002047980031479800424798005347980056
:104900000042eb00044f78000042eb00044f7800b7
:104910000b0037002e4290001e424200be40900025
:10492000044078001aff07002e4290001e42420009
:10493000de4090000440780015ff07001e4fe8009d
:104940001e4278008482fb004e4290000483fb00ec
:104950002e4290000482fb00040253000402e8008f
:10496000848f5200ebff35000042eb00044f7800cb
:104970000b0037003e4290001e4242008440780007
:104980002e40900002ff07003e4290001e4242006f
:10499000844078004e409000fdfe07001e4fe80066
:1049a0001e4278008482fb005e4290000483fb007c
:1049b0003e4290000482fb00040253000402e8001f
:1049c000848f5200ebff35000080fa0000000600e3
:1049d0000400fa0020479800a486200014427800c2
:1049e0000482fb00e5024200f4072000848f52009d
:1049f0000f003400b4862000144278000442e8001e
:104a0000044078006be8b700b486200014427800b8
:104a1000e74f5200030036000042eb0004407800ec
:104a20006be8b7000042eb00044078006ae8b7008a
:104a3000b586200095427800a486200014427800b4
:104a40008540780004407800c1fd07000042eb007b
:104a5000044f78001a0037002e4290000402fb0039
:104a60006522b9000402780005f62f008482420016
:104a70001e4378000682fb0004824200e53d2900c7
:104a800065427a0004407800e2fd0700a486200019
:104a9000144278000442e800044078006ae8b70055
:104aa000b586200095427800a48620001442780044
:104ab0008540780004407800a5fd07001e4fe800ff
:104ac0001e427800e44f5200e3ff36000040eb0046
:104ad000d0fd0700a4862000144278000442e800bc
:104ae000044078006ae8b7000080fa000000060081
:104af0000400fa0020479800a486200014427800a1
:104b00000482fb00e8024200f4072000848f520078
:104b100014003400b4862000144278000442e800f7
:104b2000044078006be8b700b48620001442780097
:104b30000442e800044078006be8b700b486200027
:104b400014427800e74f5200030036000042eb00a9
:104b5000044078006be8b7000042eb0004407800a6
:104b60006ae8b7000042eb00044f780056003700b7
:104b7000b586200095427800a48620001442780073
:104b8000854078000440780071fd07002e429000b7
:104b90000402fb000402b100c422dd001e437800c1
:104ba0000682fb0004824200e5e2280065427a00aa
:104bb0000440780097fd0700b48620001442780076
:104bc0000442e8008442780084cbb30004c272003f
:104bd0000440780000fd0700a5862000954278007b
:104be000f4c3b30084cf52000c003e0010c0b300e9
:104bf00068fd0700a58620009542780004c4b30034
:104c000004c2720004407800f3fc070014c0b30033
:104c1000044078006ce8b70012003700a48620003a
:104c200014427800e04f52000e0035000040eb00c7
:104c300058fd0700a58620009542780004ccb300fb
:104c400004c242008442780004c4b30004c272006b
:104c500004407800e0fc07000042eb0004407800cc
:104c60006ce8b7002e4290000402fb000402b10081
:104c7000c422dd001e4378000682fb00048242004d
:104c800068024200e5e2280065427a0004407800ac
:104c900060fd0700a4862000144278000442e8006a
:104ca000044078006ae8b700b58620009542780095
:104cb000a4862000144278008540780004407800e3
:104cc00023fd07001e4fe8001e427800e74f520008
:104cd000a7ff36000080fa00000006000200fa007c
:104ce000000f7800050037001e027800144278009b
:104cf0000440780036ff07001e0fe8001e0278000f
:104d000014427800e04f5200f7ff3a000080fa00aa
:104d1000000006000600fa00404798004e4290004e
:104d20000482fb00cfa2de000400be00bdef07003e
:104d30000002be006266260063fa23000400be0083
:104d40005bef07000002be000400be009aef070000
:104d50000002be00244798000042eb00044f780098
:104d6000140037002e4290001447980007003700c7
:104d70009e4090001e40780005fe07009e42900075
:104d80002e42900004c24200144798001e42900038
:104d90008482fb002e4290000482fb000604200067
:104da00004025300848f5200f1ff35001e42780048
:104db000634f4200e4c7b3009e42780084cf5200a4
:104dc000e8ff36004e42900004cfe9000f003700a4
:104dd0000042eb0014479800060037009e40900008
:104de0001e407800eafd07001e42900004c2e80061
:104df000144798009e429000e4c3b30084cf520051
:104e0000f6ff36004e4290001e4f4200b4c7b3007a
:104e10009e42780084cf5200edff36000080fa00f9
:104e2000000006000400fa0020479800314798006f
:104e30002e4290006e4242001447980094c3b30083
:104e4000044f78000b0037003e429000e14f5200c3
:104e500004003a009e4078001e409000ccfd070000
:104e6000030037009e4078001e409000eafd0700d6
:104e70001e4fe800c4c3b3009e42780084cf5200a6
:104e8000f1ff36000080fa00000006000200fa0080
:104e9000004f780011479800d58620009542780091
:104ea0001e42900084cf5200110032001e4290003a
:104eb000e14f520006003a00e09b29007afd07000e
:104ec0000042eb000440780072e8b70005003700ac
:104ed000e05b290074fd07000042eb00044078000d
:104ee00072e8b7001e4090006de8b7001f00370061
:104ef00024872000144278009e42780084cf52001c
:104f00001a00320024872000144278009e42780064
:104f100084cf52000b003600248720001442780012
:104f200011c0b30004407800beff070024872000b2
:104f3000144278000442e8000440780072e8b700a8
:104f40000a00370024872000144278008040eb00dc
:104f500004407800b3ff0700248720001442780043
:104f60000442e9000440780072e8b7000080fa00cb
:104f7000000006000000fa00d302a900d702a90031
:104f8000c162a900c562a900dec2a900e2c2a900ef
:104f9000d322a8000082eb00441588000082eb00b9
:104fa000341688000080fa00000006000000fa00b5
:104fb00021002000800c2000db0307000080fa00a5
:104fc000000006000000fa0081022000800c200092
:104fd000d50307000080fa00000006000400fa0074
:104fe000080307000002be00048fbe00140020006a
:104ff000050020003e034200ae834a00f40f20006b
:10500000050020000600780007037800840378007c
:10501000050278000700600004026300050020001c
:10502000c022dd00040020000403be006102b800bd
:105030000403730085837300e00f5300e08f5b006f
:1050400008003a0005178000040420000482620072
:10505000e00f520002003a00e2c2a800010037004f
:10506000e2c2a90014002000050020003e03420017
:10507000ae834a00f41f20000500200006007800df
:1050800007037800840378000502780007006000b9
:105090000402630005002000c022dd00040020009f
:1050a0000403be006102b80004037300858373002b
:1050b000e00f5300e08f5b0009003a0044872000b6
:1050c00014427800f54f520002003a0044c5b30084
:1050d0000100370054c1b3000440780074e8b70001
:1050e00044872000144278000482fb00040078000a
:1050f000b60307000080fa00000006000200fa0074
:105100000042eb00044f7800044380000432b100f9
:10511000050020004606200006abb9000603780013
:105120006020b90080037800070343008402780000
:1051300044062000042ab8000503430086027800d4
:10514000e2c42000030020000400be0041ef07007d
:105150000002be00044f780044c6b3009e427800af
:1051600084cf52000200360044c6b300044f7800da
:105170001e427800044078000080fa00000006001b
:105180000200fa000042eb00044f7800f442800075
:10519000050020004606200006abb9000603780093
:1051a0006020b90080037800070343008402780080
:1051b00044062000042ab800050343008602780054
:1051c000e2c42000030020000400be0021ef07001d
:1051d0000002be00044f780044c6b3009e4278002f
:1051e00084cf52000200360044c6b300044f78005a
:1051f0001e427800044078000080fa00000006009b
:105200000200fa00deff070000427800044f780039
:10521000baff070000427800144798009e429000b1
:1052200014c3b30084cf52000800360014c0b3008a
:105230000440780046e8b70014c0b300044078008a
:1052400045e8b7001fe1a8000f0037001e4290009c
:10525000ea4f52000c003e006484200014427800a3
:10526000e14f520008003a000042eb000440780091
:1052700046e8b7000042eb000440780045e8b7007c
:10528000e2c2a9001fe1a900a516800004202000a9
:1052900004826200e00f52000c003200051780000b
:1052a0000404200004826200e00f520007003a006c
:1052b00014c3b3009e42780084cf520003003e0026
:1052c00014c0b3000440780044e8b70045168000dd
:1052d0000480200004826200e00f520005003a00c2
:1052e000451680000400210004826200e00f520095
:1052f0000f0032000485200014427800e04f520075
:1053000007003a0014c0b3000440780042e8b70038
:1053100014c0b3000440780050e8b7000a0037001a
:105320000042eb000440780042e8b7000600370076
:105330000042eb000440780042e8b7000042eb0076
:105340000440780050e8b70070030700e503070049
:1053500000027800e00f520004003a00dc0307006e
:1053600000027800e00f52000400320014c0b300c5
:105370000440780043e8b700030037000042eb0028
:105380000440780043e8b7000080fa0000000600ff
:105390000000fa00451680000480200004826200ac
:1053a000e00f52000200320014c0b30008003700c2
:1053b000451680000400210004826200e00f5200c4
:1053c0000200320024c0b3000100370000c2eb002d
:1053d000044078000080fa00000006000200fa0095
:1053e000ebff070000427800044f78001e4278006f
:1053f000e14f42002400320004842000144278006f
:105400000482fb00e5db290065427a009e4f5200d2
:1054100019003a000484200014427800e14f520041
:105420000f003a000042eb000440780041e8b7006a
:10543000f40107000003be0004e224000500200080
:105440000602420087824a00644288007542880052
:105450000042eb000440780040e8b7000b00370042
:1054600004842000144278000442e80004407800dc
:1054700040e8b700050037000042eb000440780028
:1054800040e8b70001003700000000000080fa008b
:10549000000006000400fa008d03070000027800f7
:1054a000040f78008f0307000002780014079800ab
:1054b0001e029000f90f5200430036009e02900039
:1054c000f4032000848f52003f003e0004022000bd
:1054d0009e027800848f520008003e001484200051
:1054e00014427800e04f520037003a0014c0b30075
:1054f0000440780045e8b70033003700040220007c
:105500009e027800848f52000c00360004042000b4
:105510009e027800848f520008003e0064842000c0
:1055200014427800e04f520027003a000042eb009e
:105530000440780045e8b700230037000404200049
:105540009e027800848f52000e0036000406200070
:105550009e027800848f52000a003e00448420009e
:1055600014427800e04f520002003a0014c0b30029
:10557000010037000042eb000440780044e8b70027
:1055800011003700040620009e027800848f52002c
:105590000d003600040820009e027800848f52001f
:1055a00009003e006484200014427800e14f52005c
:1055b00005003a000042eb000440780046e8b700de
:1055c000e2c2a9001fe1a9000080fa000000060065
:1055d0000a00fa006484200014427800e14f52006f
:1055e00003003a0004dc2900040f780009003700aa
:1055f0005484200014427800e14f520003003a0026
:10560000a4dc2900040f78000200370004dd290023
:10561000040f78001484200014427800e14f5200f7
:1056200003003a0084dd29001407980002003700c7
:1056300004de2900140798000517800004042000e8
:1056400004826200e00f520003003200a4de290051
:105650002407980002003700e4de290024079800a0
:10566000c7fe0700004278008482fb003e029000e3
:10567000851f780035df2900851f78000400780039
:1056800034eb0700e4875700054380004e0290008a
:10569000851f780035df2900851f78000400780019
:1056a0002ceb0700e487570064df29000400780032
:1056b000d5010700a4e0290004007800d20107000a
:1056c0001e007800d001070044e1290004007800a2
:1056d000cd01070074e1290004007800ca01070029
:1056e0001e009000c801070044e129000400780072
:1056f000c501070064e2290004007800c201070028
:105700002e009000c001070044e129000400780049
:10571000bd01070014e3290004007800ba01070066
:105720004e009000b801070044e129000400780011
:10573000b501070054e4290004007800b201070015
:105740003e009000b001070044e129000400780009
:10575000ad01070044e1290004007800aa01070018
:105760000080fa00000006000400fa00250107008e
:105770000002be00048fbe00548420001442780052
:10578000e14f520002003a0008fe07000100370016
:105790000cfe07006484200014427800e04f5200a1
:1057a000010032000dfe07004484200014427800fe
:1057b000e14f52000b003a00e2c2a800047122003f
:1057c000050020003e034200ae834a000602be00f0
:1057d00044428800554288000042eb0004407800b3
:1057e00044e8b700f47f2000050020001e03be003f
:1057f000060078000703780084037800050278002b
:10580000070060000402630005002000c022dd00e4
:10581000040020000403be006102b800040373000a
:1058200085837300e00f5300e08f5b0001003a00b6
:1058300067ff07000080fa00000006000400fa007d
:10584000f00007000002be00048fbe00444280004a
:10585000554280001e03be00840f5300858f5b00fd
:1058600006003a000517800004042000048262004c
:10587000e00f520001003200e2c2a9006442800041
:10588000754280001e03be00840f5300858f5b00ad
:105890000a003a006484200014427800e14f52006c
:1058a000060032000042eb000440780045e8b700f3
:1058b00014c0b3000440780041e8b7000080fa004b
:1058c000000006000400fa00881f780034842000dd
:1058d00014427800e04f520001003200edfe070054
:1058e000c80007000002be00048fbe001e02be00fa
:1058f00052002000030020000400be0065ed0700f8
:105900000002be00e00f5200e08f5a0007003a008c
:105910001884200018447800f8fd07000042780041
:10592000884078000440780058fd07004f04780054
:105930000080fa00000006000000fa000042eb00c0
:105940000440780045e8b7000042eb0004407800ce
:1059500046e8b70014c0b3000440780041e8b7003f
:105960000042eb000440780044e8b70081fd0700e6
:105970008b000700c70007005f02070095fa0700c9
:10598000dd0107000080fa00000006000000fa00b8
:105990001bfe07002484200014427800e14f5200cf
:1059a00001003a008dfe0700c6ff07006eff0700ea
:1059b000a2ff07000080fa00000006000000fa00c5
:1059c0008c60a90005e1a9008460a9000080fa00ac
:1059d000000006000200fa00000f78008460a900b1
:1059e0001e0278000442780067426200674262004b
:1059f000674262000482fb00670262004c22dd0005
:105a0000a6048000f5ff280085026300048272006e
:105a1000a40488009e027800688262004322de00af
:105a200004427800614262000482fb00610262006d
:105a30004322dd006604800075ff2f0085026300ad
:105a400004827200640488000080fa0000000600ee
:105a50000400fa00000f7800110798000002eb0024
:105a6000040888001e029000140888001e027800b6
:105a7000240888000080fa00000006000000fa00f8
:105a800004088000040078000080fa00000006008e
:105a90000200fa00000f78001e0278000408880057
:105aa0000080fa00000006000400fa0090ff2f00ba
:105ab000c8ff07000000eb00f5ff0700744d200051
:105ac00005002000048fbe001e02780084007800cc
:105ad00090f82d00deff07004440a8008e80a9004a
:105ae000b40c80000400a1000410a1000420a10057
:105af000b40c88008680a9000080fa00000006002f
:105b00000000fa000002eb00340888000082eb007d
:105b1000640888001021a900840880000440a000c7
:105b20000450a0008408880084c0a9008cc0a8008c
:105b300011e1a8000080fa00000006000000fa0051
:105b40000002eb00540888008438210074088800a3
:105b50001221a90084e0a9008ce0a80013e1a800ac
:105b60000080fa00000006000000fa000002eb00ce
:105b7000a40888000082eb00d40888001e21a90038
:105b8000f40880000440a0000450a000f40888003d
:105b900086a0a9008ea0a8000080fa0000000600e0
:105ba0000000fa00c0ff0700d5ff0700e3ff070071
:105bb000edff07000080fa00000006000200fa0076
:105bc000000f78000002eb00340888001e02780005
:105bd00004024200640888000080fa000000060009
:105be0000200fa00000f78000002eb00a408880011
:105bf0001e02780004024200d40888000080fa00e7
:105c0000000006000000fa00344380004543800095
:105c10000400be000080fa0000000600841f780027
:105c20003400f80004002000a40188000000fa00fd
:105c30000002eb00040888008460a9000080fa00dc
:105c40003400f9004f02780000400600849fbe0037
:105c50003400f80004002000a40188000000fa00cd
:105c6000344380004543800061024200e0824a00e4
:105c700034438800454388000002eb005408880044
:105c800084e0a9000080fa003400f9004f02be0051
:105c9000004006000000fa0004012000a410880063
:105ca0000d42a9008d20a80075108000c4ff2f00b0
:105cb00004826200741088000de2a8000f42a80060
:105cc0000080fa00000006000000fa0004872000af
:105cd00014427800044078000080fa0000000600ba
:105ce0000200fa000487200014427800e04f5200be
:105cf00002003a0000c2eb0014003700e4862000e6
:105d0000144278000483fb000580200085024300d4
:105d1000154f78000442e800044078006ee8b700b0
:105d2000e486200014427800f443b2000440780076
:105d30006ee8b70004872000144278000442e900ae
:105d40000440780070e8b7001e42780004407800f4
:105d50000080fa00000006000400fa00881f7800a6
:105d6000100798000042eb00044f7800080037004d
:105d70009e4278000582fb009e029000048442004f
:105d8000d7ff070000427800044c78001e4fe8005f
:105d90000487200014427800e04f5200f4ff3a00dc
:105da0001e427800044078004f0478000080fa001a
:105db000000006000200fa00004f7800000000001a
:105dc000751080000410200004826200e00f520071
:105dd000fbff32006410800066026200e60f520092
:105de00004003a009e4278000582fb00841088007f
:105df000030037009e4278000582fb008410880073
:105e00000080fa00000006000200fa00000f78008f
