:020000040000fa
:080000000001040000000000f3
:020000040000fa
:0400080024020000ce
:020000040000fa
:04000c0024020000ca
:020000040000fa
:0400100024020000c6
:020000040000fa
:0400140024020000c2
:020000040000fa
:0400180024020000be
:020000040000fa
:04001c0024020000ba
:020000040000fa
:0400200024020000b6
:020000040000fa
:0400240024020000b2
:020000040000fa
:0400280024020000ae
:020000040000fa
:04002c0024020000aa
:020000040000fa
:0400300024020000a6
:020000040000fa
:04003400c8010000ff
:020000040000fa
:04003800240200009e
:020000040000fa
:04003c00240200009a
:020000040000fa
:04004000ee010000cd
:020000040000fa
:040044002402000092
:020000040000fa
:04004800240200008e
:020000040000fa
:04004c00240200008a
:020000040000fa
:040050002402000086
:020000040000fa
:0400540004020000a2
:020000040000fa
:04005800240200007e
:020000040000fa
:04005c00240200007a
:020000040000fa
:040060002402000076
:020000040000fa
:040064002402000072
:020000040000fa
:04006800240200006e
:020000040000fa
:04006c00240200006a
:020000040000fa
:040070002402000066
:020000040000fa
:040074002402000062
:020000040000fa
:04007800240200005e
:020000040000fa
:04007c00240200005a
:020000040000fa
:040080002402000056
:020000040000fa
:040084002402000052
:020000040000fa
:04008800240200004e
:020000040000fa
:04008c00240200004a
:020000040000fa
:040090002402000046
:020000040000fa
:040094002402000042
:020000040000fa
:04009800240200003e
:020000040000fa
:04009c00240200003a
:020000040000fa
:0400a0002402000036
:020000040000fa
:0400a4002402000032
:020000040000fa
:0400a800240200002e
:020000040000fa
:0400ac00240200002a
:020000040000fa
:0400b0002402000026
:020000040000fa
:0400b4002402000022
:020000040000fa
:0400b800240200001e
:020000040000fa
:0400bc00240200001a
:020000040000fa
:0400c0002402000016
:020000040000fa
:0400c4002402000012
:020000040000fa
:0400c800240200000e
:020000040000fa
:0400cc00240200000a
:020000040000fa
:0400d0002402000006
:020000040000fa
:0400d4002402000002
:020000040000fa
:0400d80024020000fe
:020000040000fa
:0401080024020000cd
:020000040000fa
:04010c0024020000c9
:020000040000fa
:0401100024020000c5
:020000040000fa
:0401140024020000c1
:020000040000fa
:0401180024020000bd
:020000040000fa
:04011c0024020000b9
:020000040000fa
:0401200024020000b5
:020000040000fa
:0401240024020000b1
:020000040000fa
:0401280024020000ad
:020000040000fa
:04012c0024020000a9
:020000040000fa
:0401300024020000a5
:020000040000fa
:04013400c8010000fe
:020000040000fa
:04013800240200009d
:020000040000fa
:04013c002402000099
:020000040000fa
:04014000ee010000cc
:020000040000fa
:040144002402000091
:020000040000fa
:04014800240200008d
:020000040000fa
:04014c002402000089
:020000040000fa
:040150002402000085
:020000040000fa
:0401540004020000a1
:020000040000fa
:04015800240200007d
:020000040000fa
:04015c002402000079
:020000040000fa
:040160002402000075
:020000040000fa
:040164002402000071
:020000040000fa
:04016800240200006d
:020000040000fa
:04016c002402000069
:020000040000fa
:040170002402000065
:020000040000fa
:040174002402000061
:020000040000fa
:04017800240200005d
:020000040000fa
:04017c002402000059
:020000040000fa
:040180002402000055
:020000040000fa
:040184002402000051
:020000040000fa
:04018800240200004d
:020000040000fa
:04018c002402000049
:020000040000fa
:040190002402000045
:020000040000fa
:040194002402000041
:020000040000fa
:04019800240200003d
:020000040000fa
:04019c002402000039
:020000040000fa
:0401a0002402000035
:020000040000fa
:0401a4002402000031
:020000040000fa
:0401a800240200002d
:020000040000fa
:0401ac002402000029
:020000040000fa
:0401b0002402000025
:020000040000fa
:0401b4002402000021
:020000040000fa
:0401b800240200001d
:020000040000fa
:0401bc002402000019
:020000040000fa
:0401c0002402000015
:020000040000fa
:0401c4002402000011
:020000040000fa
:0401c800240200000d
:020000040000fa
:0401cc002402000009
:020000040000fa
:0401d0002402000005
:020000040000fa
:0401d4002402000001
:020000040000fa
:0401d80024020000fd
:020000040000fa
:10020000af8120000eff20000e01880000000000da
:10021000000020000000e000020032000001200089
:100220002002880014000700890007000000e00099
:1002300003003a0000c7220001002000020037003e
:100240000000200001002000810f7000010032003a
:1002500014000700000020000000e000020032004f
:100260000000020000000000902c020000000000ce
:100270000040da000000fe004440a900409b21003d
:100280000000e0000300320000002000a001880010
:100290004440a800000006008a1f78008b1f7800e9
:1002a0000000060091018800800478000000eb0047
:1002b0001a003700e284440032a0b4009905ba0065
:1002c000e284440032a0b4009906ba00e2844400fb
:1002d00032a0b4000006eb00476fde00fd07b2005d
:1002e000636ce10003003a00ebff07000000eb0045
:1002f0000a003700606ce10004003a00005deb008a
:100300008b05e900fdff3e00040037006168e10055
:10031000010032000086eb000b00070019c7ba008d
:100320001905ba000e04e00003003a000a00e000dc
:10033000e0ff3a0000000600fe07b2009e018800c0
:100340008a047800f5ff3700395dba008b05e900b3
:100350000c003200295dba008b05e900080032006c
:100360000c00e00003003a00e284440032a0b40034
:10037000f5ff370019ddba008b05e900faff3a00f6
:100380008904e800e184440032a0b40000000600c3
:10039000801f78003400f80000002000a0018800d1
:1003a0000000fa00b0408000e10f4000040032007d
:1003b000b04080000000e800b04088000100370035
:1003c0001628ef000021ef008460a9000080fa00e9
:1003d0003400f9004f007800004006003400f800b7
:1003e000881f780008002000a80188004f047800ca
:1003f0000000fa000621ef0084c0a9000080fa0086
:100400003400f90000400600801f78003400f80036
:1004100000002000a00188000000fa000014800005
:100420006040880010148000704088002014800014
:10043000804088008560a9000080fa003400f9003f
:100440004f007800004006000040da000000fe0087
:10045000000005000001be001c0007000470a7009a
:1004600003f0a10003f8a30013003a006509b100ee
:1004700010003200090035006928e1000200350053
:1004800001002800000005000000400081804800b5
:100490008502e900fcff3a0000000600f88f4200e8
:1004a000050035008100d1000080d3008502e800fe
:1004b000fcff3a00000006008000eb000000050091
:1004c0004f89de008201780094013700c70ade0000
:1004d000f107b200f50fb20008003200e1cf420090
:1004e000020032000170a00024000500810f70009e
:1004f000010032000408050044000500810f70006f
:1005000002003a00140005008502e90000004000e6
:1005100081c04800fcff3b000170a00024000500e2
:10052000889fbe008a9fbe008c9fbe001b002000db
:100530000202be0005866800060028000606660066
:100540004709de00f20fb200820032000243e800e9
:1005500080003200c729de00f30fb2007d003200b8
:100560000343e8007b003200f107b2000170a000f5
:10057000f507b2000570a000c708dd004903de00e2
:10058000868070004700dd00c72add004923de00b9
:10059000868272004722dd000305510004035000eb
:1005a000858358000300310000004000818048002e
:1005b0000a05e9008c1f78008a9fbe0004005000e5
:1005c000858058000402420085824a0000004000f5
:1005d000818048000005eb000004be006033b800d5
:1005e0000406be000d48e10056003100110009006c
:1005f0004dccd8000c01b8000d02b8008481410038
:1006000060824a008283530003045c0084845c009f
:1006100060055d000a00e00025003a0080057800d2
:100620000d40e100490031008800780007007800a3
:10063000110009004d88d8000c01b8000d02b80067
:100640008481410060824a006003110083835b0063
:1006500004045c00e0845c000900e00021003a0032
:100660004f01be000300e0002b003200e3016000f8
:10067000070673008c817100010032006400700075
:100680004200de004e5edd000c007000c258de004d
:1006900001e0a0009b000700cf017800818071007d
:1006a0004f06be004f05be004f04be00000006000e
:1006b0008c8343000d044c00e0844c0060054d0029
:1006c0000000e9000a00e000d4ff32008c83430000
:1006d0000d044c00e0844c0060054d000000e90072
:1006e000ceff37000c0343008d834b0060044c00a9
:1006f000e0844c000000e9000900e000d8ff32006f
:100700000c0343008d834b0060044c00e0844c00dc
:100710000000e900d2ff37004200de004e5edd003f
:100720000c007000c258de0001e0a000cf0178008c
:100730000300e000daff320060001000e0801800e3
:10074000d7ff3700f0ff2f00aaff3700f0ff2f0080
:10075000b9ff37000404be00500007008706780088
:100760000004fd008104fd004c00070007836600c3
:100770000678a300030032000960a7000800be004d
:100780002c0037000d78a300020032000800be00e4
:10079000280037000778a30026003a0001f0a100e6
:1007a00009f0a1000668a30003003200f1ff270052
:1007b000f0ff2f00baff37000d68a30003003200de
:1007c0000800be008c807000b5ff37000768a300ea
:1007d00007003a000648a30003003200f1ff27009b
:1007e000f0ff2f00aeff37000d48a30003003200da
:1007f0006000b8008c807000a9ff37000748a30094
:100800000400320001f82700000020008c807000f6
:10081000a3ff37008e0007000004fd008104fd00e7
:10082000020578008a0007000802be008a017800ed
:1008300059ff37000160a00012022000c24088006a
:1008400097ff37000100e000120032000500e000d1
:1008500010003200889fbe008a9fbe008c9fbe00a1
:100860000006eb0001f8a300030032006000100056
:10087000e08018000cf0a00005f8a300030032008f
:1008800060021200e0821a000cf0a2008005eb006a
:1008900041ff37006000b80002000500270020007b
:1008a00001f0a70017002000470bde00f60fb20092
:1008b000040032000643e8000a0032004702b30099
:1008c0000000060001037800f607b200060370007e
:1008d00002003a000703b300000006008702b300dd
:1008e0000000060001037800f607b200060370005e
:1008f000020032000770a000000006000760a000a0
:100900000000060081017000270032008002eb0029
:1009100001f8a3000300320060001000e08018001e
:1009200015002000f40720000202420020003400dd
:10093000f703200087036000060420000003630023
:1009400002082000000161004700de00c909dd0047
:1009500000807100c708de000600e00008003200d9
:1009600087037100060032001000b0000180b00063
:100970000188a30002003200c108de000402e80082
:10098000f107b200f30f20000320e10003003d0057
:100990004722dd00810072002900370001f827009e
:1009a0000000eb00260037006000b80000000600e1
:1009b000680212007f20e100020034006000b800ed
:1009c0001f0037006011b8007020e10004003500fe
:1009d00080017800010078008000eb007002520076
:1009e0000400e00009003400f00312000719dd00e4
:1009f0008419de000703dd00868171000400de003b
:100a0000070bdd00060070008408de00f7ff2700fa
:100a100083836300870371000600280003036300db
:100a2000070032000700e00003003a0061016000a7
:100a300002817300020032001000b0000180b0009b
:100a40000500a6000000060001f0a000000006005e
:100a50004f0ade004709de00f107b200f20fb200d4
:100a60000b003200f207b1000170a000c708dd00e2
:100a7000c901de00838070004700dd000400a6008d
:100a80000000060060001000e08018000000060072
:100a9000810f700001003a00000006008182cf0043
:100aa0000500e00010003e008082cf00ee82420090
:100ab0007028e1000400390007003e008000780043
:100ac0000000eb000e003700708312008600de008d
:100ad0000500dd000a003700708352008600dd004b
:100ae0000000eb0006003700e28252008508dd00be
:100af000708312000603de00868070000500dd00b2
:100b00007507b0000501ea000400a6000000060019
:100b100060001000e080180000000600881f7800c8
:100b2000030478000300e00007003d0060001000af
:100b3000e080180060011900e081190002003b000c
:100b400001f02d00030037000400070008f0a700a3
:100b500001f0a0004f04780000000600889fbe004e
:100b60008a9fbe000082700004027100048271003e
:100b7000260032000004be000200be006011b80072
:100b80006b092000950220000182cf000a00390085
:100b90000541b1000082cf00070039000541b100d6
:100ba0000982cf00040039000541b1000882cf005e
:100bb000010039000541b100054252001200320027
:100bc0000a003b0082817100610164008100d10054
:100bd0000080d3008984d3000884d3008b05e8000b
:100be0000442e800f7ff3a00070037000804440019
:100bf00089844c0000004800818048008b05e90092
:100c00000442e900f9ff3a00030007004f05be0067
:100c10004f04be00000006008100200061805500e6
:100c20000b003d000b00200061fe2f000100e100e1
:100c30001d00340082817100610164008904d100cb
:100c40000884d3000000e800faff3a007100200099
:100c500061006400030070000200600009003200bf
:100c600061044400e0844c000988a50005003200be
:100c70008b05e8006808e10002003a008904d10011
:100c80000884d300f20f20000258e10005003d0067
:100c9000c75ddd00f907b2008980750008007800a3
:100ca000000006000bf827008b007800000005000c
:020000040000fa
:100cb000ffff0000ffff0000ffff0000ffff00003c
:100cc000ffff0000ffff0000ffff0000ffff00002c
:100cd000ffff0000ffff0000ffff0000ffff00001c
:100ce000ffff0000ffff0000ffff0000ffff00000c
:100cf000ffff0000ffff0000ffff0000ffff0000fc
:100d0000ffff0000ffff0000ffff0000ffff0000eb
:100d1000ffff0000ffff00007f7f00007f7f0000db
:100d20007f7f00007f7f00007f7f00007f7f0000cb
:100d30007f7f00007f7f00007f7f00007f3f0000fb
:100d40001f1f00001f1f00001f1f00001f1f0000ab
:100d50001fdf0000ffff0000ffff0000ffff00009b
:100d6000ffff0000ffff0000ffff0000ffff00008b
:100d7000ffff0000ffff0000ffff0000ffff00007b
:100d8000ffff0000ffff0000ffff0000ffff00006b
:100d9000ffff0000ffff0000ffff0000ffff00005b
:100da000ffff0000ffff0000ffff0000ffff00004b
:100db000ffff0000ffff0000ffff0000ffff00003b
:100dc000ffff0000ffff0000ffff0000ffff00002b
:100dd000ffff0000ffff0000ffff0000ffff00001b
:100de000ff7f00007f7f00001f1f00001f1f00000b
:100df0000f0f0000070700000703000003030000b7
:100e000003030000030100000100000000000000d7
:100e100000000000000000000000000000000000d2
:100e200000000000000000000000000000000000c2
:100e300000000000000000000000000000000000b2
:100e400000000000000000000000000000000000a2
:100e50000103000003030000030300000707000074
:100e6000070f00000f0f00001f1f00003f7f000052
:100e70007fff0000ffff0000ffff0000ffff0000fa
:100e8000ffff0000ffff0000ffff0000ffff00006a
:100e9000ffff0000ffff0000ffff0000ffff00005a
:100ea000ffff0000ffff0000ffff0000ffff00004a
:100eb000ffff0000ffff0000ffff0000ffff00003a
:100ec000ffff0000ffff0000ffff0000ffff00002a
:100ed0003f1f00000f0f0000070700000100000087
:100ee0000000000000000000000000000000000002
:100ef00000000000000000000000000000000000f2
:100f0000000000008080000080c00000c0e0000001
:100f1000e0e00000e0f00000f0f00000f0f0000081
:100f2000f8f80000f8780000381800000000000011
:100f300000000000000000000000000000e00000d1
:100f4000f0e00000e0e00000c0c00000c080000051
:100f50008000000000000000000000000000000011
:100f60000000000000000000000000000000000081
:100f7000000000000000000000030000070f000058
:100f80000f1f00001f7f0000ffff0000ffff000099
:100f9000ffff0000ffff0000ffff0000ffff000059
:100fa000ffff0000ffff0000ffff0000ffff000049
:100fb000ffff0000ffff0000ffff0000ffff000039
:100fc000ffff0000ffff0000ff3f00000f010000d7
:100fd0000000000000000000000000000000000011
:100fe0000000000000000000000000000000000001
:100ff0000000000000c00000f0f80000f8fc000055
:10100000ffff0000ffff0000ffff0000ffff0000e8
:10101000ffff0000ffff00007f3f00001f1f0000d8
:1010200007030000030000000000000000000000b3
:10103000000000000404000006070000070700008d
:101040000707000007070000070700000707000068
:101050000707000006060000060000000000000070
:10106000000400000404000004040000000000006c
:101070000000000000000000000000000000000070
:101080000000000000000000011f0000ffff000042
:10109000ffff0000ffff0000ffff0000ffff000058
:1010a000ffff0000ffff0000ffff0000ffff000048
:1010b000ffff0000ffff0000ffff0000ffff000038
:1010c000ffff0000ffff0000fff8000080000000ad
:1010d0000000000000000000000000000000000010
:1010e0000000000000000000000000000000000000
:1010f00000000000000700003f7f00007fff0000ad
:10110000ffff0000ffff0000ffff0000ff7f000067
:101110007f3f00000f0300000000000000000000ff
:101120000000000000800000201800000c0f0000ec
:101130000f0f00000f0f00000f0f00000f0f000037
:101140000703000000000000000000000000000095
:1011500080c00000f8fe0000fe7f00001f1f00009e
:1011600007e00000fcff0000ffff00001f0300007d
:10117000030000000000000000000000000000006c
:10118000000000000000000000c00000ffff0000a1
:10119000ffff0000ffff0000ffff0000ffff000057
:1011a000ffff0000ffff0000ffff0000ffff000047
:1011b000ffff0000ffff0000ffff0000ffff000037
:1011c000ffff0000ffff0000ffff0000ffff000027
:1011d000f8e00000c0c000008080000000000000b7
:1011e00000000000000000000000000000000000ff
:1011f00000000000000000000000000000000000ef
:1012000001010000030700000703000000000000c8
:1012100000000000000000008020000030300000ce
:101220007c7e00007e7e00007e7e00007e7e0000d0
:101230001e06000002020000000000000000000086
:101240000000000000800000c8c80000e6e70000c1
:10125000f3f30000797c00007c3c00001f1f0000bd
:101260001f07000003030000010000000000000051
:10127000000000000000000000000000808000006e
:10128000e0e00000e0f80000feff0000ffff0000cb
:10129000ffff0000ffff0000ffff0000ffff000056
:1012a000ffff0000ffff0000ffff0000ffff000046
:1012b000ffff0000ffff0000ffff0000ffff000036
:1012c000ffff0000ffff0000ffff0000ffff000026
:1012d000ffff0000ffff0000ffff0000fefe000018
:1012e000fcfc0000f8f80000f0f00000f0e0000066
:1012f000e0c00000c0c0000080000000000000004e
:1013000000000000000000000000000000000000dd
:1013100000000000000000000707000007070000b1
:101320000707000007070000070700000300000090
:1013300000000000000000000000000000000000ad
:101340000002000003010000010100000100000094
:10135000000000000000000000000000808000008d
:10136000c0c00000e0e00000e0f00000f0f8000085
:10137000f8fc0000fcfc0000feff0000ffff000086
:10138000ffff0000ffff0000ffff0000ffff000065
:10139000ffff0000ffff0000ffff0000ffff000055
:1013a000ffff0000ffff0000ffff0000ffff000045
:1013b000ffff0000ffff0000ffff0000ffff000035
:1013c000ffff0000ffff0000ffff0000ffff000025
:1013d000ffff0000ffff0000ffff0000ffff000015
:1013e000ffff0000ffff0000ffff0000ffff000005
:1013f000ffff0000ffff0000ffff0000ffff0000f5
:10140000ffff0000fefe0000fefe0000fcfc0000ee
:10141000fcfc0000fcfc0000fcfc0000e0e0000024
:10142000e0e00000e0e00000e0e00000f0f8000094
:10143000f8f80000fcfc0000fcfc0000fcfc0000d4
:10144000fcfc0000fcfc0000fcfc0000fefe0000b8
:10145000fefe0000ffff0000ffff0000ffff000096
:10146000ffff0000ffff0000ffff0000ffff000084
:10147000ffff0000ffff0000ffff0000ffff000074
:10148000ffff0000ffff0000ffff0000ffff000064
:10149000ffff0000ffff0000ffff0000ffff000054
:1014a000ffff0000ffff0000ffff0000ffff000044
:1014b000ffff0000ffff0000ffff0000ffff000034
:1014c000ffff0000ffff0000ffff0000ffff000024
:1014d000ffff0000ffff0000ffff0000ffff000014
:1014e000ffff0000ffff0000ffff0000ffff000004
:1014f000ffff0000ffff0000ffff0000ffff0000f4
:10150000ffff00007fff00007fff00007fbf0000a3
:101510007fbf0000bfbf0000bf7f0000bfbf000053
:10152000bfff0000bfff0000ff7f00003f7f000003
:101530003f7f0000ffff0000ffef0000f77f00008b
:101540003f5f00002f5700002f170000172f0000eb
:10155000172f0000172f0000172f0000172f000073
:10156000172f00002f2f00000f3f00000f5f00001b
:101570002fbf00005fbf00003fff00007fff0000a3
:10158000ffff0000ffff0000ffff0000ffff000063
:10159000ffff0000ffff0000ffff0000ffff000053
:1015a000ffff0000ffff0000ffff0000ffff000043
:1015b000ffff0000ffff0000ffff0000ffff000033
:1015c000ffff0000ffff0000ffff0000ffff000023
:1015d000ffff0000ffff0000ffbf0000dfbf0000b3
:1015e000afdf00006f5700002fd700002bfb00007b
:1015f000af530000a1030000000100000001000043
:1016000000020000010200000102000001040000cd
:10161000010400000204000002080000020a0000a9
:10162000000a000002150000051a0000071f000054
:101630000f1b0000071f0000010b0000000100004d
:10164000000000000000000000000000000000009a
:10165000000000000000000000000000000000008a
:10166000000000000000000000000000000000007a
:101670000000000000000000000100000005000064
:1016800012ad0000abf70000ffff0000ffff0000fd
:10169000ffff0000ffff0000ffff0000ffff000052
:1016a000ffff0000ffff0000ffff0000ffff000042
:1016b000ffff0000ffff0000ffbf00005faf000062
:1016c000578f00002b4b00002b8500003bcb000008
:1016d0003eab0000552b00000a0b00002adf000083
:1016e000b50100000002000000020000010000003f
:1016f00000010000000200002a00000000000000bd
:1017000000000000000000000000000000000000d9
:1017100000000000000000000000000000000000c9
:101720000000000000000000808000004040000039
:10173000a0a00000d0000000e0000000a8a8000069
:1017400070e80000f08000000000000000000000d1
:101750000000000000000000000000000000000089
:101760000000000000000000000000000000000079
:101770000000000000000000000000000000000069
:101780000080000092aa0000f6fd0000ffff0000ac
:10179000ffff0000ffff0000ffff0000ffff000051
:1017a000ffff0000ffff0000ffff0000ffff000041
:1017b000ffff0000ffff0000ffa2000055400000f7
:1017c000a00000000000000000040000012a00004a
:1017d0004104000040010000408000005112000060
:1017e00006050000000000000000000000000000ee
:1017f00000000000000000000000000000000000e9
:1018000000000000000000000000000000000000d8
:1018100000000000000000000000000000000000c8
:101820000000000000080000165a0000a16000003f
:1018300078f10000d9fb0000fe9500006e920000d8
:1018400005030000061f000054a8000080000000ef
:101850000000000000000000000000000000000088
:101860000000000000000000000000000000000078
:10187000000000000000000000800000a0500000f8
:10188000d4aa0000fdfe0000ffff0000ffff0000e3
:10189000ffff0000ffff0000ffff0000ffff000050
:1018a000ffff0000ffff0000ffff0000ffff000040
:1018b000af570000afab000057af0000af5d0000b6
:1018c000baea000055aa000054500000555000002c
:1018d000a5900000552000004a200000882000004c
:1018e00080200000800000008000000080000000d8
:1018f0000000000080000000000000000000000068
:1019000000000000000000000000000000000000d7
:1019100000000000000000000000000000000000c7
:1019200000000000000000000001000000070000af
:101930000b1600000b2500001241000010000000f3
:101940000000000000280000150a0000020000004e
:101950000000000000000000000000000000000087
:10196000800000004040000040a00000a080000077
:10197000d0a00000d4ea0000f5fa0000feff00004d
:10198000f5fe0000ffff0000ffff0000ffff00006a
:10199000ffff0000ffff0000ffff0000ffff00004f
:1019a000ffff0000ffff0000ffff0000ffff00003f
:1019b0004aa500000a52000005aa00000095000098
:1019c000022a000005290000132500002759000005
:1019d000962a00005555000055aa0000aa540000a0
:1019e000aaa800005254000050a5000050a4000016
:1019f00051a400005045000050850000a8a500003b
:101a000054a8000055a8000055a80000545000003c
:101a10005450000054a8000054a00000a84000004a
:101a200050800000508000004080000020800000b6
:101a30004000000040800000408000004080000026
:101a400040200000d0020000d0000000d0000000c4
:101a5000d0a00000e8e80000fafa0000fdfe000057
:101a6000fff50000fdfd0000fffe0000fefe00008f
:101a7000ffff0000ffff0000ffff0000ffff00006e
:101a8000ffff0000ffff0000ffff0000ffff00005e
:101a9000ffff0000ffff0000ffff0000ffff00004e
:101aa000ffff0000ffff0000ffff0000ffff00003e
:101ab0000a0800000aa0000028400000a8800000da
:101ac0005080000028800000a8400000a8a000006e
:101ad000a8510000a842000052440000d4a9000010
:101ae000cab20000d555000065ca000065da0000e2
:101af00065da0000ad9500004d5a0000aa7a00009a
:101b0000157a0000356a0000b55a000075550000ce
:101b100055950000152a0000152a00002ad500005e
:101b2000fb9c00005bbc00005bbc0000bfbc000075
:101b30007ffc00007ffe0000fffe0000fffe0000b3
:101b4000ffff0000ffff0000ffff0000ffff00009d
:101b5000ffff0000ffff0000ffff0000ffff00008d
:101b6000ffff0000ffff0000ffff0000ffff00007d
:101b7000ffff0000ffff0000ffff0000ffff00006d
:101b8000ffff0000ffff0000ffff0000ffff00005d
:101b9000ffff0000ffff0000ffff0000ffff00004d
:101ba000ffff0000ffff0000ffff0000ffff00003d
:101bb000508a000051840000aa5000004aa800008a
:101bc00055aa000055aa000056a90000aed2000098
:101bd000dab50000eaeb000075eb0000f7ee00005c
:101be000f6ed0000fefd0000fffe0000fffe00001d
:101bf000fffe0000faf60000fbfd0000fefd000005
:101c0000fffd0000fffc0000fffd0000fffc0000e6
:101c1000faf80000f4f00000e8e40000d4c9000085
:101c2000caab0000aaa80000508100005093000039
:101c300049aa0000a5410000b2410000b0a5000083
:101c4000d5ab0000ebd70000ffff0000ffff000056
:101c5000ffff0000ffff0000ffff0000ffff00008c
:101c6000ffff0000ffff0000ffff0000ffff00007c
:101c7000ffff0000ffff0000ffff0000ffff00006c
:101c8000ffff0000ffff0000ffff0000ffff00005c
:101c9000ffff0000ffff0000ffff0000ffff00004c
:101ca000ffff0000ffff0000ffff0000ffff00003c
:101cb000ffaf000055eb00003ec90000779d00001b
:101cc0006b9400006f9100006e9100006e91000017
:101cd0006e110000d6090000569100004a11000064
:101ce000852100009401000089400000426000004e
:101cf00024220000212000001020000010200000fd
:101d000001200000402000005028000040aa0000f0
:101d1000846a0000444b00008c2a00000c3a00004a
:101d20002cda0000acf90000e1d50000a1ca0000e7
:101d3000858a000095c200009582000095d60000bb
:101d4000c5fe0000c9f70000eaf50000fecb000068
:101d5000f6db0000ecd30000fdd60000fbd600004f
:101d6000fdd70000adfb0000aef50000bb7f00001a
:101d7000da7f0000f57f0000fef70000efff0000b3
:101d8000ffff0000ffff0000ffff0000ffff00005b
:101d9000ffff0000ffff0000ffff0000ffff00004b
:101da000ffff0000ffff0000ffff0000ffff00003b
:101db000ad5a0000af580000bf5a0000b55a0000ed
:101dc000b56a0000b54a0000d56a000095c200005f
:101dd0004dc20000548100004a840000c18200000e
:101de00040a0000042a30000442300004432000051
:101df00084300000883000008830000088500000e7
:101e0000085000002848000030080000300e000094
:101e1000330f000034080000340800002c0a0000d2
:101e200028060000110f000011070000110f00002c
:101e300021170000c9070000cb170000c7170000da
:101e4000ab4700001f4700001f4700003f4f000046
:101e50003f5f0000bf7f0000bf7f0000ff7f0000ea
:101e6000ffff00007fff0000ffff0000ffff0000fa
:101e7000ffff0000ffff0000ffff0000ffff00006a
:101e8000ffff0000ffff0000ffff0000ffff00005a
:101e9000ffff0000ffff0000ffff0000ffff00004a
:101ea000ffff0000ffff0000ffff0000ffff00003a
:101eb0000205000002050000020500000205000006
:101ec00082410000a2510000211800000518000006
:101ed00006050000020500000201000002000000eb
:101ee00002000000020000000100000081800000ec
:101ef0004000000000200000008000000000000002
:101f000000000000000000000000000000000000d1
:101f100000000000000000000000000000000000c1
:101f2000000000000000000080200000ea9d00008a
:101f3000fafd0000e25d0000220500000001000043
:101f4000827900004714000001000000000000003a
:101f50000000000000000000000000000100000080
:101f60000100000003000000030d0000022f00002c
:101f7000152b0000bf5f0000bfff0000ffff000047
:101f8000ffff0000ffff0000ffff0000ffff000059
:101f9000ffff0000ffff0000ffff0000ffff000049
:101fa000ffff0000ffff0000ffff0000ffff000039
:101fb0000000000000000000e058000006050000de
:101fc000010100000000000000000000000000000f
:101fd000008000002048000010080000845000002d
:101fe0001c0000000c020000004100001006000070
:101ff0000100000000000000008000004000000020
:1020000000000000000000000000000000000000d0
:1020100000000000000000000000000000000000c0
:102020000000000000000000026c0000a33300006c
:102030005b2f0000952f0000607c00005a360000e6
:102040000d01000000000000000000000000000082
:102050000000000000000000000000000000000080
:102060000000000000000000000000000000000070
:10207000000000000000000003080000f70f00004f
:10208000ff7f0000bfff0000ffff0000ffff000018
:10209000ffff0000ffff0000ffff0000ffff000048
:1020a000ffff0000ffff0000ffff0000ffff000038
:1020b0000832000048300000cf3d000070c0000032
:1020c000c0800000000000000000000000000000d0
:1020d0002a000000fd000000f8200000df200000c2
:1020e000c0400000800a0000b54000000008000069
:1020f00034c2000080010000000000000000000069
:1021000000000000000000000000000000000000cf
:1021100000000000000000000000000000000000bf
:1021200000000000000000000000000000000000af
:10213000000000000000000000000000000000009f
:10214000000000000000000000000000000000008f
:10215000000000000000000000000000000000007f
:10216000000000000000000000000000000000006f
:10217000000000000000000000000000c02000007f
:10218000cbb40000ebfe0000ffff0000ffff0000eb
:10219000ffff0000ffff0000ffff0000ffff000047
:1021a000ffff0000ffff0000ffff0000ffff000037
:1021b0006db200006db200006cbb00006cf300005b
:1021c0007cbb00003fda00001ebd00003ab40000f6
:1021d00078f00000e0d00000e081000040830000c3
:1021e0004081000001820000030d00001224000065
:1021f0000040000000010000021100000205000084
:1022000002040000020100000201000002010000bf
:1022100002010000020100000001000000010000b6
:102220000180000043a80000e7e80000b7c80000f4
:102230007488000070c00000c0c0000000000000f2
:10224000000000000000000000000000000000008e
:10225000000000000000000000000000000000007e
:10226000000000000000000000000000000000006e
:102270000000000000000000c0bb0000e4ff000000
:10228000feff0000ffff0000ffff0000ffff000057
:10229000ffff0000ffff0000ffff0000ffff000046
:1022a000ffff0000ffff0000ffff0000ffff000036
:1022b000edb200005da600005ba500007b8400007d
:1022c0007b8400007bc400003bc200003ac20000d7
:1022d00029c2000030490000537f0000cfb7000042
:1022e000470e00008e0d00004e1d00000a3d00004c
:1022f0001a39000036390000347800006078000098
:102300006068000060d00000e0d00000c0f0000075
:10231000c0d00000c0b00000c0a000008064000079
:102320009a6000009f7d0000f93d0000df7f000003
:102330008f7500008c7300008fbf0000fff000005d
:102340005ca0000050a0000040a0000080500000f1
:1023500080a000004090000040a00000402000004d
:10236000c0200000d0a00000d0e00000e8f4000091
:10237000f8fb0000fcff0000feff0000ffff000074
:10238000ffff0000ffff0000ffff0000ffff000055
:10239000ffff0000ffff0000ffff0000ffff000045
:1023a000ffff0000ffff0000ffff0000ffff000035
:1023b000fbf60000ddeb0000b6d900006fd2000094
:1023c000bd520000ad5a0000e55a0000a55a0000b9
:1023d000e51a0000e51a0000e5120000ed1000000b
:1023e000ef130000ea150000c6150000e615000016
:1023f000a45a00002491000044aa000004a2000096
:1024000012c20000318100002180000028a20000db
:1024100008a100004da300004d930000679b000041
:10242000679f0000679f0000679f0000679f000094
:1024300067df000027df00002fdf00006fbf000014
:102440005fae0000ff8e0000ffde00007edf0000b8
:10245000febe0000df7e0000dfbe0000ffdf0000e8
:10246000bfff0000ffbf0000ffbf0000ffff000034
:10247000ffff0000efff0000ffdf0000ffff000094
:10248000ffff0000ffff0000ffff0000ffff000054
:10249000ffff0000ffff0000ffff0000ffff000044
:1024a000ffff0000ffff0000ffff0000ffff000034
:1024b000000000000000000000000000000000001c
:1024c000000000000000000000000000000000000c
:1024d000000000003eff0000ff3e00000000000082
:1024e00000000000000d00000d00000000000000d2
:1024f00000040000070300000004000007030000c0
:1025000000000000000000000000000000000000cb
:1025100010fe0000fe10000010fe0000fe10000083
:10252000010f00000f010000010f00000f0100006b
:102530001c3e000022ff0000ff420000ce8c000085
:1025400003070000040f00000f0400000703000051
:102550000000000006c60000f03c00000e02000073
:102560000004000007030000000600000600000051
:102570001e3f0000e1c10000412100003f1e00009d
:10258000060f0000090900000b0c00001e160000d9
:10259000000000000407000003000000000000002d
:1025a000000000000000000000000000000000002b
:1025b00000000000f8fe000007010000000000001d
:1025c00000000000000700000e08000000000000ee
:1025d0000000000001070000fef8000000000000fd
:1025e00000000000080e00000701000000000000cd
:1025f00020a80000f870000070f80000a82000007b
:1026000000000000000000000000000000000000ca
:102610002020000020fc0000fc2000002020000002
:1026200000000000000100000100000000000000a8
:10263000000000000000000000000000000000009a
:1026400000000000203c00001c0000000000000012
:10265000202000002020000020200000202000007a
:10266000000000000000000000000000000000006a
:10267000000000000000000000000000000000005a
:1026800000000000000c00000c0000000000000032
:102690000000000000c00000f03c00000f0300003c
:1026a000000c00000f03000000000000000000000c
:1026b000feff00000101000001010000fffe00001c
:1026c000070f000008080000080800000f070000be
:1026d0000004000006ff0000ff00000000000000f2
:1026e00000080000080f00000f08000008000000ac
:1026f0000203000081c10000613100001f0e0000d4
:102700000e0f00000908000008080000080c000077
:10271000020300000121000021210000ffde000073
:10272000040c000008080000080800000f07000063
:10273000e0f00000988c000086ff0000ff00000021
:102740000000000000000000080f00000f0800005b
:102750003f3f00002121000021210000e1c10000d5
:10276000040c000008080000080800000f07000023
:10277000fcfe00002321000021210000e0c0000039
:10278000070f000008080000080800000f070000fd
:102790000303000001810000e17900001f07000031
:1027a00000000000000f00000f000000000000000b
:1027b000deff00002121000021210000ffde0000db
:1027c000070f000008080000080800000f070000bd
:1027d0001e3f00002121000021210000fffe00001b
:1027e0000008000008080000080c000007030000b3
:1027f00000000000001800001800000000000000a9
:1028000000000000000600000600000000000000bc
:102810000000000000180000180000000000000088
:1028200000000000101e00000e000000000000006c
:1028300040e00000b01800000c060000020000009c
:102840000000000001030000060c0000080000006a
:1028500000a00000a0a00000a0a00000a0000000b8
:102860000000000000000000000000000000000068
:1028700000020000060c000018b00000e04000005c
:10288000000800000c06000003010000000000002a
:102890000203000001c10000e13100001f0e000032
:1028a00000000000000d00000d000000000000000e
:1028b0000203000001c10000e13100001f0e000012
:1028c00000000000000d00000d00000000000000ee
:1028d000f8fc00008683000083860000fcf80000fe
:1028e0000f0f000000000000000000000f0f0000ac
:1028f000ffff00002121000021210000ffde000079
:102900000f0f000008080000080800000f07000073
:10291000fcfe0000030100000101000003060000ae
:10292000030700000c080000080800000c06000067
:1029300001ff0000ff01000001030000fefc000099
:10294000080f00000f080000080c0000070300003b
:1029500001ff0000ff2100002171000003030000bf
:10296000080f00000f080000080800000c0c000011
:1029700001ff0000ff21000021710000030300009f
:10298000080f00000f080000000000000000000019
:10299000fcfe00000301000041410000c3c600002e
:1029a000030700000c08000008080000070f0000e3
:1029b000ffff00002020000020200000ffff00009b
:1029c0000f0f000000000000000000000f0f0000cb
:1029d0000001000001ff0000ff01000001000000f5
:1029e00000080000080f00000f08000008000000a9
:1029f000000000000000000001ff0000ff010000d7
:102a0000060e000008080000080f00000700000084
:102a100001ff0000ff700000d88c000007030000d9
:102a2000080f00000f000000000100000f0e000062
:102a300001ff0000ff010000000000000000000096
:102a4000080f00000f080000080800000c0c000030
:102a5000ffff00000c780000780c0000ffff000072
:102a60000f0f000000000000000000000f0f00002a
:102a7000ffff00001c38000070e00000ffff0000b6
:102a80000f0f000000000000000000000f0f00000a
:102a9000feff00000101000001010000fffe000038
:102aa000070f000008080000080800000f070000da
:102ab00001ff0000ff210000212100003f1e000057
:102ac000080f00000f0800000000000000000000d8
:102ad000feff00000101000001010000fffe0000f8
:102ae000070f0000080e00001c3800002f07000030
:102af00001ff0000ff21000021610000ff9e000097
:102b0000080f00000f080000000000000f0f000079
:102b10000e1f00003121000021610000c786000067
:102b2000060e000008080000080800000f0700005b
:102b30000303000001ff0000ff0100000303000089
:102b400000000000080f00000f0800000000000057
:102b5000ffff00000000000000000000ffff000079
:102b6000070f000008080000080800000f07000019
:102b7000ffff00000000000000000000ffff000059
:102b800001030000060c00000c0600000301000019
:102b9000ffff000000e00000e0000000ffff000079
:102ba000010f00000e030000030e00000f010000e3
:102bb000070f000098f00000f09800000f070000d9
:102bc0000e0f000001000000000100000f0e0000c9
:102bd0000f1f000030e00000e03000001f0f000079
:102be00000000000080f00000f08000000000000b7
:102bf00003830000c1610000311900000f070000cd
:102c00000f0f000008080000080800000c0c00006e
:102c100000000000ffff00000101000000000000b4
:102c2000000000000f0f0000080800000000000076
:102c300055aa000055aa000055aa000055aa000098
:102c400055aa000055aa000055aa000055aa000088
:102c50000000000001010000ffff00000000000074
:102c600000000000080800000f0f00000000000036
:102c7000080c000006030000030600000c0800001a
:102c80000000000000000000000000000000000044
:102c90000000000000000000000000000000000034
:102ca00010100000101000001010000010100000a4
:102cb00000000000080f00000700000000000000f6
:102cc0000000000000000000000000000000000004
:102cd000009000009090000090f00000e0000000e4
:102ce000070f000008080000080700000f08000098
:102cf00001ff0000ff10000010300000e0c00000e5
:102d0000080f000007080000080800000f07000077
:102d1000e0f0000010100000101000003020000053
:102d2000070f000008080000080800000c0400005d
:102d3000c0e000003010000011ff0000ff000000a4
:102d4000070f000008080000080700000f08000037
:102d5000e0f000009090000090900000f0e0000093
:102d6000070f000008080000080800000c0400001d
:102d700000100000feff000011110000030200001f
:102d8000000800000f0f0000080000000000000015
:102d9000e0f000001010000010e00000f010000053
:102da000276f000048480000487f00003f000000f7
:102db00001ff0000ff20000010100000f0e0000004
:102dc000080f00000f000000000000000f0f0000bf
:102dd0000010000010f60000f600000000000000e7
:102de00000080000080f00000f08000008000000a5
:102df0000000000010100000f6f6000000000000c7
:102e000030600000404000007f3f000000000000f4
:102e100001ff0000ffc00000c06000003010000093
:102e2000080f00000f000000010300000e0c00005e
:102e30000001000001ff0000ff0000000000000092
:102e400000080000080f00000f0800000800000044
:102e5000f0f0000030e00000e0300000f0e00000a2
:102e60000f0f000000070000070000000f0f000018
:102e700010f00000e010000010100000f0e0000072
:102e8000000f00000f000000000000000f0f000006
:102e9000e0f000001010000010100000f0e0000052
:102ea000070f000008080000080800000f070000d6
:102eb00010f00000e010000010100000f0e0000032
:102ec000407f00007f480000080800000f07000056
:102ed000e0f000001010000010e00000f010000012
:102ee000070f000008080000487f00007f40000036
:102ef00010f00000e0100000101000003020000072
:102f0000000f00000f0000000000000000000000a3
:102f100060f0000090900000901000003020000051
:102f2000040c000008080000090900000f0600005a
:102f300010100000feff0000101000000000000054
:102f400000000000070f0000080c00000400000053
:102f5000f0f000000000000000f00000f0000000b1
:102f6000070f000008080000080700000f08000015
:102f7000f0f000000000000000000000f0f0000091
:102f800001030000060c00000c0600000301000015
:102f9000f0f000000080000080000000f0f0000071
:102fa000070f00000c070000070c00000f070000cf
:102fb0001030000060c00000c06000003010000051
:102fc000080c000006030000030600000c080000c7
:102fd000f0f000000000000000000000f0f0000031
:102fe000474f000048480000486800003f1f0000ad
:102ff0003030000010900000d07000003010000051
:103000000c0e00000b090000080800000c0c00006a
:10301000000000000000000000000000005f000051
:10302000000000000007000000070000001400007e
:103030007f1400007f140000242a00007f2a000073
:1030400012230000130800006462000036490000eb
:1030500055220000500000000503000000000000a1
:10306000001c00002241000000000000412200007e
:103070001c000000082a00001c2a000008080000ac
:10308000083e00000808000000500000300000006a
:1030900000080000080800000808000000300000d8
:1030a00030000000002000001008000004020000b2
:1030b0003e510000494500003e000000427f0000f4
:1030c000400000004261000051490000462100001c
:1030d000414500004b31000018140000127f000031
:1030e0001027000045450000453900003c4a00001b
:1030f000494900003001000071090000050300008b
:1031000036490000494900003606000049490000e0
:10311000291e0000003600003600000000000000fc
:1031200056360000000000000008000014220000d5
:103130004114000014140000141400004122000087
:103140001408000000020000015100000906000000
:1031500032490000794100003e7e0000111100005c
:10316000117e00007f49000049490000363e000002
:1031700041410000412200007f4100004122000047
:103180001c7f000049490000494100007f09000000
:1031900009010000013e00004141000051320000e1
:1031a0007f080000080800007f000000417f000049
:1031b0004100000020400000413f0000017f00006e
:1031c00008140000224100007f4000004040000041
:1031d000407f000002040000027f00007f04000026
:1031e000081000007f3e000041410000413e000009
:1031f0007f09000009090000063e0000415100005f
:10320000215e00007f0900001929000046460000e9
:103210004949000049310000010100007f01000020
:10322000013f000040400000403f00001f20000020
:10323000402000001f7f000020180000207f0000b9
:103240006314000008140000630300000478000009
:1032500004030000615100004945000043000000e4
:10326000007f00004141000002040000081000003f
:1032700020410000417f0000000000000402000027
:1032800001020000044000004040000040400000f7
:10329000000100000204000000200000545400005f
:1032a000547800007f480000444400003838000093
:1032b000444400004420000038440000444800001a
:1032c0007f3800005454000054180000087e0000ad
:1032d000090100000208000014540000543c0000e2
:1032e0007f0800000404000078000000447d000016
:1032f0004000000020400000443d000000000000ad
:103300007f10000028440000004100007f400000c2
:10331000007c000004180000047800007c08000015
:1033200004040000783800004444000044380000e1
:103330007c1400001414000008080000141400009d
:10334000187c00007c08000004040000084800000d
:103350005454000054200000043f0000444000008a
:10336000203c000040400000207c00001c200000a9
:10337000402000001c3c000040300000403c0000a9
:103380004428000010280000440c000050500000a9
:10339000503c000044640000544c00004400000015
:1033a0000836000041000000000000007f0000001f
:1033b000000000004136000008000000080800007e
:1033c0002a1c0000080800001c2a00000808000051
:1033d00000000000000000000000000000000000ed
:1033e00000000000000000000000000000000000dd
:1033f00000000000000000000000000000000000cd
:1034000000000000000000000000000000000000bc
:1038300000000000000000000000000000c00000c8
:10384000f8fc0000fcfc0000f8c0000000000000d4
:103850000000000000000000000000000000000068
:103860000000000000000000000000000000000058
:103870000000000000000000000000000000000048
:103880000000000000000000000000000000000038
:103890000000000000000000000000000000000028
:1038a0000000000000000000000000000000000018
:1038b00000000000000000000000000000c0000048
:1038c000f8fc0000fcfc0000f8c000000000000054
:1038d00000000000000000000000000000000000e8
:1038e00000000000000000000000000000000000d8
:1038f00000000000000000000000000000000000c8
:1039000000000000000000000000000000000000b7
:1039100000000000000000000000000000000000a7
:103920000000000000000000000000000000000097
:10393000000000000000000000e00000feff0000aa
:10394000ffff00001fff0000ffff0000fef000006f
:103950000000000000000000000000000000000067
:103960000000000000000000000000000000000057
:103970000000000000000000000000000000000047
:103980000000000000000000000000000000000037
:103990000000000000000000000000000000000027
:1039a0000000000000000000000000000000000017
:1039b000000000000000000080f00000feff00009a
:1039c000ff7f00000f7f0000ffff0000fef00000ff
:1039d0008000000000000000000000000000000067
:1039e00000000000000000000000000000000000d7
:1039f00000000000000000000000000000000000c7
:103a000000000000000000000000000000000000b6
:103a100000c00000e0e00000e0e00000e0e00000a6
:103a2000e0e00000e0e00000f0f00000f0f0000056
:103a3000f0f00000f0f80000ffff0000ff7f000042
:103a40000f010000000000000f7f0000ffff0000da
:103a5000fff80000f0f00000f0f00000f0f00000cf
:103a6000f0e00000e0e00000e0e00000e0e0000046
:103a7000e0e00000e0c000000000000000000000e6
:103a800000000000000000000080000080800000b6
:103a9000808000008080000080800000c0c00000a6
:103aa000c0c00000c0c00000c0c00000c0c0000016
:103ab000c0c00000e0fc0000ffff0000ff1f00008e
:103ac0000300000000000000031f0000ffff0000d3
:103ad000fffc0000e0c00000c0c00000c0c000004b
:103ae000c0c00000c0c00000c0c00000c080000016
:103af00080800000808000008080000080800000c6
:103b000000000000000000000000000000000000b5
:103b10000001000003030000070f00001f3f00002a
:103b20003f7f0000ffff0000f9f10000e1c100004d
:103b3000c18100000101000001010000010000003e
:103b40000000000000000000000000000101000073
:103b50000101000001810000c1c10000e1f100008d
:103b6000f9ff0000ff7f00003f3f00001f0f000033
:103b70000703000003010000000000000000000037
:103b80000000000000000000070f00000f1f0000f1
:103b90003f3f00007fff0000ffff0000ffe7000045
:103ba000e7c70000870700000707000007070000bd
:103bb00007070000070700000703000000000000df
:103bc00000000000000000000000000000030000f2
:103bd00007070000070700000707000007070000ad
:103be0000707000087c70000e7e70000ffff0000ad
:103bf000ffff00007f7f00003f1f00000f0f00004d
:103c000007000000000000000000000000000000ad
:103c100000000000000000000000000000000000a4
:103c2000000000000001000003830000ffff00000f
:103c3000ffff00007f0e00000000000000000000f9
:103c40000000000000000000000000000000000074
:103c5000000e00007fff0000ffff0000ff83000058
:103c60000301000000000000000000000000000050
:103c70000000000000000000000000000000000044
:103c80000000000000000000000000000000000034
:103c90000000000000000000010100000307000018
:103ca0000f0f00001f3f0000fffe0000fcfc0000a3
:103cb000f87000000000000000000000000000009c
:103cc00000000000000000000000000000000000f4
:103cd0000000000000700000f8fc0000fcfe000086
:103ce000ff3f00001f0f00000f070000030100004e
:103cf00001000000000000000000000000000000c3
:103d000000000000000000000000000000000000b3
:103d100000000000000000000000000000000000a3
:103d20000000000000c00000fcff0000ffff0000da
:103d3000ffc70000e0f00000f8f80000fc7e000083
:103d40007f3f00001f3f00007f7e0000fcf8000066
:103d5000f8f00000e0e70000ffff0000ffff0000b8
:103d6000fcc0000000000000000000000000000097
:103d70000000000000000000000000000000000043
:103d80000000000000000000000000000000000033
:103d90000000000000000000000000000000000023
:103da00000000000e0fe0000ffff0000ff1f000019
:103db000030000000000000080c00000c0e0000020
:103dc000f0f00000f8f00000f0e00000c0c00000db
:103dd0008000000000000000031f0000ffff000043
:103de000fffe0000f00000000000000000000000e6
:103df00000000000000000000000000000000000c3
:103e000000000000000000000000000000000000b2
:103e100000000000000000000000000000000000a2
:103e2000000000003c7f00007f7f00003f1f00007b
:103e30001f0f000007030000030100000000000046
:103e40000000000000000000000000000001000071
:103e500003030000070f00000f1f00003f7f00005a
:103e60007f7f00003e000000000000000000000016
:103e70000000000000000000000000000000000042
:103e80000000000000000000000000000000000032
:103e900000000000000000000000000000c0000062
:103ea000f8ff0000ffff0000ffff0000f9fc00002a
:103eb000fc7e00003f3f00001f0f00000f070000c6
:103ec0000303000001030000030700000f0f0000c0
:103ed0001f3f00003f7e0000fcfc0000f8ff0000d8
:103ee000ffff0000ffff0000f8c00000000000001e
:103ef00000000000000000000000000000000000c2
:103f000000000000000000000000000000000000b1
:103f100000000000000000000000000000000000a1
:103f20000000000000000000000000000000000091
:103f30000000000000000000000000000000000081
:103f40000000000000000000000000000000000071
:103f50000000000000000000000000000000000061
:103f60000000000000000000000000000000000051
:103f70000000000000000000000000000000000041
:103f80000000000000000000000000000000000031
:103f9000000000000000000000000000000700001a
:103fa0000f0f00000f0700000303000001000000d6
:103fb0000000000000000000000000000000000001
:103fc00000000000000000000000000000000000f1
:103fd00000000000000000000000000001030000dd
:103fe000030700000f0f00000f0700000000000093
:103ff00000000000000000000000000000000000c1
:1040000000000000000000000000000000000000b0
:0840100000080000000300009d
:020000040000fa
:104018000200fa00004f78001e4078000004e0001b
:1040280004003200101780000050a000101788000c
:1040380003003700101780000050a10010178800f7
:104048000080fa00000006000200fa00004f780025
:104058001e4078000004e0000400320010178000c1
:104068000040a000101788000300370010178000d8
:104078000040a100101788000080fa000000060028
:104088000200fa00004f78001e4078000004e000ab
:1040980004003200101780000010a00010178800dc
:1040a80003003700101780000010a10010178800c7
:1040b8000080fa00000006000200fa00004f7800b5
:1040c8001e4078000004e000040032001017800051
:1040d8000000a000101788000300370010178000a8
:1040e8000000a100101788000080fa0000000600f8
:1040f8000200fa00004f78001e4078000004e0003b
:1041080004003200501680000050a00050168800ad
:1041180003003700501680000050a1005016880098
:104128000080fa00000006000200fa00004f780044
:104138001e4078000004e0000400320050168000a1
:104148000040a00050168800030037005016800079
:104158000040a100501688000080fa000000060008
:104168000000fa00dea2a900de82a900de22a90072
:10417800de02a900a8a2a800c6a2a900a882a800d9
:10418800c682a900a802a800c602a900a822a80001
:10419800c622a900a842a800c642a900a862a80091
:1041a800c662a900d202a900d222a900d242a9005f
:1041b800d262a9000080fa00000006000200fa009e
:1041c800004f78001e407800e14f500008003a0088
:1041d800d202a800d222a800d242a800d262a80027
:1041e800c662a800c642a800c622a800c602a80047
:1041f8001e4078000004e00008003a00d202a9003e
:10420800d222a900d242a900d262a900c662a9009e
:10421800c642a900c622a900c602a9000080fa0069
:10422800000006000400fa008e80e800804878004c
:104238000e80e800104f7800b116800000ff2f00b4
:1042480000806000b01688005116800000ff2f0023
:1042580000806000501688001e417800ef40610021
:104268000e00e800014878000e00e80010407800d1
:104278000080fb00511680000080700050168800f6
:104288001e80fb004400de00004f78001e80fb000b
:10429800b116800000807000b01688000080fa0017
:1042a800000006000200fa00a0168000004f780007
:1042b8001e4078004400dd00004f78004116800061
:1042c8000e00e800014878000e00e8001040780071
:1042d800ef4060000e00e800014878000e00e8009a
:1042e800104078009e4040000e00e8000148780029
:1042f8000e00e800104078000080fa000000060078
:104308000400fa008e80e800800878000000eb00c6
:10431800000f7800010037001e0fe8000e80e8004b
:10432800100078009e007800808f5000faff390056
:104338000080fa00000006000000fa0010c0b30078
:1043480041ff070010002000edff07000040eb00d0
:104358003dff07000080fa00000006000200fa0096
:10436800004f78000040eb0053ff07000040eb00cf
:1043780043ff07001e407800aaff0700eeff070072
:104388000080fa00000006000200fa000040eb007e
:1043980049ff070010c0b30039ff07000040eb00d9
:1043a80086ff070010c0b30027ff0700bdff070006
:1043b800004f78000040eb0023ff070002003700a1
:1043c800b8ff0700004f78001e4078000004e000a6
:1043d800fbff35000080fa00000006000200fa002a
:1043e800004f7800f0c3b3009e40780080cf5000a3
:1043f80008003e0010c0b300340007001e407800db
:104408000064a000d5ff070010c0b30014e8b7008f
:104418000a0037001e4078000004e000070035005d
:104428000040eb002900070000ccb3001e4040000c
:104438000064a000c9ff07001468ef001e4178005f
:1044480021812000824878000080fa0000000600e0
:104458000200fa00004f78001e407800e74f500035
:1044680006003e0080cbb3001e407000bbff070073
:104478001e41780031812000824878000080fa00cf
:10448800000006000200fa00004f78000e00e80065
:10449800014878001e407800d0ff07000e00e800b1
:1044a80010407800eaff07000080fa0000000600cc
:1044b8000200fa00004f780000ccb3001e407000e4
:1044c800a6ff07000080fa00000006000200fa00bc
:1044d800004f78000040eb00f7fe07001e40780010
:1044e8000004e0000a003a000040eb00e4fe070088
:1044f80010c0b3000cff07000040eb00fcfe0700f3
:10450800f0c3b30095ff07001468ef000a003700f6
:104518000040eb00dafe07000040eb0002ff070056
:1045280010c0b300f2fe0700f0c3b3008bff070012
:1045380010c0b30014e8b7000080fa0000000600bd
:104548000200fa000040eb001cff070010c0b30097
:10455800d9fe070010c0b300c9fe070076ff0700a8
:1045680010c0b300b8fe07004eff0700004f7800e8
:104578000040eb00b4fe070010c0b3000fff0700b7
:104588000040eb00ccfe07000040eb00bcfe07003b
:104598001e4078000080fa00000006000200fa00c1
:1045a8008040eb000e00e800014878002100370049
:1045b8000e00e800904078000040eb00b1ff0700d3
:1045c8000040eb00004f7800030037000040eb008c
:1045d8007c0007001e4fe800f0c3b3009e4078003f
:1045e80080cf5000f9ff36000e00e80090407800b8
:1045f80000c4b300a3ff07000040eb00004f7800a1
:10460800030037000040eb006e0007001e4fe80073
:10461800f0c3b3009e40780080cf5000f9ff360009
:104628000e00e800104078008040e8000e00e80026
:10463800014878000e00e80010407800e74f50006d
:10464800dbff36000080fa00000006000200fa00d6
:104658008040eb000e00e800014878002100370098
:104668000e00e800904078000040eb0085ff07004e
:104678000040eb00004f78000300370000c0eb005b
:10468800500007001e4fe800f0c3b3009e407800ba
:1046980080cf5000f9ff36000e00e8009040780007
:1046a80000c4b30077ff07000040eb00004f78001c
:1046b8000300370000c0eb00420007001e4fe8006f
:1046c800f0c3b3009e40780080cf5000f9ff360059
:1046d8000e00e800104078008040e8000e00e80076
:1046e800014878000e00e80010407800e74f5000bd
:1046f800dbff36000080fa00000006000000fa0028
:104708000040eb00c7fe07000040eb006afe070010
:104718000040eb005afe07000040eb004afe07008d
:104728000040eb0080fe07000040eb0070fe070031
:1047380010c0b30036fe0700a0002000f0fe0700fe
:104748000040eb0032fe0700a0002000ecfe07004e
:1047580010c0b3002efe070010c0b3005bff0700b7
:10476800e0c3b300fdfe070000ccb300fbfe07006a
:1047780080cbb300f9fe070000c4b300f7fe0700c2
:10478800f0c3b300f5fe07000040eb004fff070041
:10479800e0c3b300f1fe070000ccb300effe070052
:1047a80080cbb300edfe070000c4b300ebfe0700aa
:1047b800f0c3b300e9fe070078ff07000080fa00a5
:1047c800000006000200fa00004f780010c0b30095
:1047d80039fe07000040eb0029fe07001e40780064
:1047e80090fe0700d4fe07000080fa0000000600d3
:1047f8000400fa008e80e800800878008040eb0012
:104808000e00e80001487800340037000e00e80088
:10481800904078000040eb001aff07000040eb00d2
:10482800004f78000c0037000e00e80010407800b8
:104838000080fb00c700dd001e80fb0000804000f8
:104848008e80e800910078000080400010407800d9
:10485800dcff07001e4fe800f0c3b3009e4078005d
:1048680080cf5000f0ff36000e00e800904078003e
:1048780000c4b30003ff07000040eb00004f7800be
:104888000d0037000e00e800104078000080fb00a3
:10489800c700dd001e80fb00008040000004b0005f
:1048a8008e80e80091007800008040001040780079
:1048b800c4ff07001e4fe800f0c3b3009e40780015
:1048c80080cf5000efff36000e00e800104078005f
:1048d8008040e8000e00e800014878000e00e8007b
:1048e80010407800e74f5000c8ff36000080fa00fb
:1048f800000006000400fa000e81e8000049780074
:1049080063004700014878000040eb00004f780042
:1049180063004700104078000080fb004300de0081
:1049280000407800804078000e80e8001040780051
:10493800d4fe070002ff0700004f7800630047001d
:10494800104078000080fb004300de000040780043
:10495800804078000e80e80010407800c9fe07000b
:1049680063004700104078000080fb00670060008b
:10497800110020000008dd00804078001e4078000b
:1049880000c070008fff07000080fa0000000600da
:104998000400fa000e81e80000497800630047002f
:1049a800014878000040eb00004f780063004700a2
:1049b800104078000080fb004300de0000407800d3
:1049c800804078000e80e80010407800adfe0700b7
:1049d800dbfe0700004f78006300470010407800b6
:1049e8000080fb004300de00004078008040780033
:1049f8000e80e80010407800a2fe07006300470020
:104a0800104078000080fb00670060001100200063
:104a18000008dd000040780080c0ea001e407800f1
:104a280000c0600067ff07000080fa000000060071
:104a38000c00fa00e8014700804978006900470047
:104a4800014878006a004700024878000000eb003f
:104a5800000f78008000eb000e80e8000108780065
:104a68008000eb00640047000108780069004700f7
:104a780090407800680047001040780080c05000df
:104a880066004700014878006a0047001040780037
:104a98008080fb000e80e800010878006a0047006b
:104aa800104078008080fb00e0ff2f000088b900ec
:104ab80000007800630f40008f0037000e80e80088
:104ac80010007800804078006900470010407800a6
:104ad80080c0400064004700100078000041780062
:104ae80068004700104078000040410081ff07003f
:104af8000e80e8001000780000407800e9004700c8
:104b08009140780080c05000640047001000780091
:104b180000417800680047001040780000404100dc
:104b280074ff07000e80e8001000780080407800cd
:104b3800690047001040780080c0400064004700ca
:104b480010007800004078006801470012417800a2
:104b58000040510067ff07000e80e8001000780051
:104b680000407800e90047009140780080c050007c
:104b78006400470010007800004078006801470092
:104b880012417800004051005aff070064004700b6
:104b980010007800804078006900470010407800d5
:104ba80080c040000e80e8001000780000417800c6
:104bb8006900470010407800004141006600470046
:104bc80010407800004051004aff07006400470089
:104bd8001000780000407800e90047009140780014
:104be80080c050000e80e800100078000041780076
:104bf8006900470010407800004141006600470006
:104c080010407800004051003aff07006400470058
:104c18001000780080407800690047001040780054
:104c280080c040000e80e800100078000040780046
:104c380069014700124178000041510066004700b1
:104c480010407800004051002aff07006400470028
:104c58001000780000407800e90047009140780093
:104c680080c050000e80e8001000780000407800f6
:104c78006901470012417800004151006600470071
:104c880010407800004051001aff07001e0078000d
:104c98000000e00006003d006400470010007800b6
:104ca8004200dd00660040001e0f40000d00370086
:104cb80064004700900078000e80e800100078003b
:104cc800008050004200dd006a0040001e0f4000d6
:104cd8000e80e800100078008000e9000e80e800ef
:104ce8000108780064004700100078008000e800a0
:104cf80064004700010878006400470090007800cd
:104d08000e80e80010007800808f50006bff3400a0
:104d18000080fa00000006000600fa000e82e80093
:104d2800004a7800630047000148780064004700a3
:104d38000248780065004700034878000040eb000f
:104d4800004f78000040eb00004f78000d0037005e
:104d58000e80e800104078001e404000e300470045
:104d680091407800e3fe07000e80e80010407800cc
:104d78001e404000e500470091407800ddfe070036
:104d88001e4fe8009e80fb0064004700104078003a
:104d98000081fb000e80e800104078000080fb00d6
:104da800000051000000e800808f5000e8ff350047
:104db8000040eb00004f78000f0037006300470009
:104dc800104078001e404000804078000e80e800c7
:104dd80010407800c7fe07006300470010407800c5
:104de8001e40400080407800640047001040780072
:104df800c0fe07001e4fe8009e80fb0065004700cc
:104e0800104078000081fb006300470010407800e4
:104e18000080fb00000051000000e800808f500077
:104e2800e6ff35000080fa00000006000400fa00e2
:104e38008e80e8008048780012c8bf000080fb0020
:104e4800e5004000f0072000808f50000800340083
:104e580013c8bf000040e80013e8b70013c8bf003c
:104e6800e74f5000010036001368ef001268ef00aa
:104e7800318120009140780012c8bf0081fd0700f1
:104e88000040eb00004f7800150037000e80e80066
:104e9800104078000000fb006500b90000007800b1
:104ea80001f62f00808040001e80fb00008040003b
:104eb80081802900008040001040780041fe0700f2
:104ec80012c8bf000040e80012e8b7003181200096
:104ed8009140780012c8bf006afd07001e4fe80025
:104ee8001e407800e44f5000e8ff36000040eb0019
:104ef80034fe070012c8bf000040e80012e8b700ff
:104f08000080fa00000006000400fa008e80e80025
:104f18008048780012c8bf000080fb00e80040000d
:104f2800f0072000808f50000b00340013c8bf002a
:104f38000040e80013e8b70013c8bf000040e800cd
:104f480013e8b70013c8bf00e74f50000100360050
:104f58001368ef001268ef000040eb00004f780084
:104f680042003700318120009140780012c8bf000c
:104f780044fd07000e80e800104078000000fb00a8
:104f88000002b100c400dd001e80fb00008040006c
:104f980081252900008040001040780009fe0700a4
:104fa80013c8bf000040e8008040780080cbb30001
:104fb80000c07000e9fc07002181200091407800c2
:104fc800f0c3b30080cf500008003e0010c0b3000b
:104fd8003efd070012c8bf000064a000dffc070008
:104fe80010c0b30014e8b7000c00370012c8bf00a7
:104ff8000004e000090035000040eb0033fd070025
:10500800218120009140780000ccb30000c040000e
:105018000064a000d1fc07001468ef000e80e800cf
:10502800104078000000fb000002b100c400dd0061
:105038001e80fb0000804000680040008125290098
:105048000080400010407800defd070012c8bf0055
:105058000040e80012e8b700318120009140780054
:1050680012c8bf0007fd07001e4fe8001e40780069
:10507800e74f5000bbff36000080fa000000060032
:105088000200fa00000f7800040037001e007800c4
:105098001040780065ff07001e0fe8001e0078002a
:1050a800104078000004e000f8ff3a000080fa00a1
:1050b800000006000600fa00e40047008048780077
:1050c80064004700104078000080fb00cf80de00bd
:1050d800f9ec07006266260063fa23000eed07006c
:1050e800daec07000e81e800004978000040eb0088
:1050f800004f78001b0037000e00e8008e80e800a3
:10510800114878000b0037000e00e8009040780046
:105118001e407800f7fd07000e00e8009040780078
:105128000e80e8001040780080c040000e00e800c3
:10513800014878000e00e800104078008080fb00ed
:105148000e80e800104078000080fb000204200078
:1051580000005100808f5000ebff35009e40780022
:1051680063cf4000e0c7b3009e40780080cf500076
:10517800e1ff3600640047001040780000cfe900e6
:10518800150037008040eb000e00e8000148780069
:10519800090037000e00e800904078001e407800b3
:1051a800d4fd07000e00e8001040780080c0e80039
:1051b8000e00e800014878000e00e80090407800f2
:1051c800e0c3b30080cf5000f2ff36006400470010
:1051d800104078001e4f4000b0c7b3009e407800d2
:1051e80080cf5000e7ff36000080fa00000006007c
:1051f8000600fa00e400470080087800b2010700c2
:10520800000f780064004700100078009e004000fe
:105218000e80e8000108780000000000aa010700dd
:105228008e80e80091007800810f5000fbff3a0063
:105238000080fa00000006000200fa00004f780023
:105248000e00e800014878001e80fb00e20f5000c5
:105258001e003200e20f500005003c000000e00094
:1052680008003200e10f50000f0032003200370012
:10527800e30f50001e003200e40f500025003200fa
:105288002d0037000e00e800104078000080fb0079
:10529800110020000008dd00211680000080700049
:1052a80020168800240037000e00e800104078001f
:1052b8000080fb00110020000008dd00511680006e
:1052c80000807000501688001b0037000e00e800b0
:1052d800104078000080fb00110020000008dd006d
:1052e8008116800000807000801688001200370048
:1052f8000e00e800104078000080fb00110020003c
:105308000008dd00b116800000807000b01688002b
:10531800090037000e00e800104078000080fb000c
:10532800110020000008dd001117800000807000c7
:1053380010178800000000000080fa000000060036
:105348000200fa00004f78000e00e80001487800db
:105358001e80fb00e20f500020003200e20f5000d8
:1053680005003c000000e00008003200e10f50009a
:105378001000320037003700e30f500021003200e0
:10538800e40f500029003200320037000e00e80018
:10539800104078000080fb00110020000008dd00ac
:1053a8000080ea00211680000100600020168800b5
:1053b800280037000e00e800104078000080fb004d
:1053c800110020000008dd000080ea00511680006e
:1053d80001006000501688001e0037000e00e8002b
:1053e800104078000080fb00110020000008dd005c
:1053f8000080ea00811680000100600080168800a5
:10540800140037000e00e800104078000080fb0010
:10541800110020000008dd000080ea00b1168000bd
:1054280001006000b01688000a0037000e00e8008e
:10543800104078000080fb00110020000008dd000b
:105448000080ea0011178000010060001017880032
:10545800000000000080fa00000006000400fa00c6
:105468000e81e80000497800630047000148780091
:105478000e80e800104078000080fb00e20f50002a
:1054880020003200e20f500005003c000000e00060
:1054980008003200e10f50001000320037003700da
:1054a800e30f500021003200e40f500029003200c1
:1054b8003200370063004700104078000080fb008e
:1054c800110020000008dd008040780010168000e0
:1054d8000040780000cf60002800370063004700d4
:1054e800104078000080fb00110020000008dd005b
:1054f80080407800401680000040780000cf6000af
:105508001e00370063004700104078000080fb0051
:10551800110020000008dd0080407800701680002f
:105528000040780000cf6000140037006300470097
:10553800104078000080fb00110020000008dd000a
:1055480080407800a01680000040780000cf6000fe
:105558000a00370063004700104078000080fb0015
:10556800110020000008dd0080407800001780004e
:105578000040780000cf6000000000001e40780066
:105588000080fa00000006000600fa000e82e8001b
:10559800004a78006300470001487800640047002b
:1055a8000248780065004700034878006400470017
:1055b80010407800e5004700914078008180fb00aa
:1055c8000088b90000007800004f780063004700a9
:1055d800904078000e80e8001040780016ff070021
:1055e8001e80fb0002ff0700630047009040780020
:1055f8000e80e8001040780051ff07006400470063
:10560800104078008080fb001e80fb000080500066
:10561800f7fe07000080fa00000006000000fa000c
:105628000080fa00000006000000fa000080fa007e
:10563800000006000000fa000080fa0000000600e2
:105648000200fa001e0078000080fa000000060040
:105658000000fa000080fa00000006000200fa00cc
:1056680041168000010f7800504080009e007800ad
:10567800808f50001800320000c8bf000080fb0077
:1056880081002a0000804000104078000080fb0064
:105698009e0f50000a003a0000c8bf00e34f5000b8
:1056a80003003a000168ef000068ef0007003700c8
:1056b80000c8bf000040e80000e8b700030037005a
:1056c80010c0b30001e8b7000068ef009e00780042
:1056d8005140880001003700000000000080fa00f7
:1056e800000006000000fa000080fa000000060032
:1056f8000000fa000080fa00000006000000fa002e
:105708000080fa00000006000000fa000268ef00be
:105718000768ef0010c0b30001e8b7000868ef00a1
:105728000668ef000428ef000068ef00beff0700de
:105738000080fa00000006000000fa00c4ff07001d
:10574800c6ff0700eaff0700ecff07000080fa0029
:10575800000006000000fa00a1a2a90001158000bf
:10576800f0cf2f0000806000001588000115800030
:10577800000e20000100700000158800a022a8007b
:105788001115800000002e0001007000101588001f
:10579800a342a8001115800030fc2f000080600093
:1057a8000030a00010158800a222a900a202a900ba
:1057b8002115800000f021000100700020158800ec
:1057c800a4e2a8002115800000fc2f0000806000e2
:1057d800f001b30020158800a782a900a682a900bd
:1057e8003115800000ff2f00008060003015880010
:1057f80031158000f00f2f00008060003015880000
:10580800a822ef000007200050158800a042a80039
:105818008d60a8008560a8000080fa0000000600de
:105828000200fa00000f78000021ef009e007800c7
:10583800110888000421a9008460a9008c60a800d0
:1058480005e1a8000080fa00000006000200fa0046
:10585800000f78000621ef009e007800610888009c
:105868001021a90084c0a9008cc0a80011e1a800db
:105878000080fa00000006000400fa00004f7800db
:105888000e80e800010878001e80fb000000e000a0
:1058980003003200e10f5000050032000800370015
:1058a8000e80e80010007800ddff070004003700d4
:1058b8000e80e80010007800e4ff070000000000f8
:1058c8000080fa00000006000000fa00b0408000e6
:0858d8000080fa000000060048
:020000040000fa
:1058e0001608000002000000000000000c08000084
:1058f0000600000000000000120800000400000084
:1059000000000000000800000c0000000000000083
:105910001808000002000000000000000000000065
:020000040000fa
:105920000400fa00000f78000e80e80001087800fb
:10593000017122000040eb00d1ff070087ff070044
:1059400070fb070072ff07007dff0700feff3700b6
:020000040000fa
:0200000401f009
:040000000587000070
:020000040000fa
:0200000401f009
:040004003f000000b9
:00000001FF
