:020000040000fa
:080000000001040000000000f3
:020000040000fa
:100008009401000094010000940100009401000094
:100018009401000094010000940100009401000084
:100028009401000094010000940100007a2500006a
:1000380094010000940100004a2600009225000067
:1000480094010000fa2300009401000046280000f3
:100058009401000094010000940100009401000044
:100068009401000094010000940100009401000034
:10007800940100008626000094010000940100000d
:100088009401000094010000940100009401000014
:100098009401000094010000940100009401000004
:1000a80094010000940100009401000094010000f4
:1000b80094010000940100009401000094010000e4
:1000c80094010000940100009401000094010000d4
:1000d80094010000940100009401000094010000c4
:1000e80094010000940100009401000094010000b4
:0800f8009401000094010000d6
:020000040000fa
:100108009401000094010000940100009401000093
:100118009401000094010000940100009401000083
:100128009401000094010000940100007a25000069
:1001380094010000940100004a2600009225000066
:1001480094010000fa2300009401000046280000f2
:100158009401000094010000940100009401000043
:100168009401000094010000940100009401000033
:10017800940100008626000094010000940100000c
:100188009401000094010000940100009401000013
:100198009401000094010000940100009401000003
:1001a80094010000940100009401000094010000f3
:1001b80094010000940100009401000094010000e3
:1001c80094010000940100009401000094010000d3
:1001d80094010000940100009401000094010000c3
:1001e80094010000940100009401000094010000b3
:0801f8009401000094010000d5
:020000040000fa
:100200008f8720000eff20000e01880000000000f4
:1002100000012000200288000c000700a0862200b8
:100220000100200011000700000020000000e00095
:10023000020032000000020000000000b8280200a6
:10024000000000000040da000000fe004440a90069
:10025000800221000000e0000300320000002000c6
:10026000a00188004440a800000006009101880019
:10027000800078000000eb0015003700e2804000ad
:1002800032a0b4009101ba00e280400032a0b40074
:100290009102ba00e280400032a0b4000002eb00fc
:1002a000472bde00f507b200602ce10004003a00a5
:1002b0000059eb008301e900fdff3e000400370018
:1002c0006128e100010032000082eb000400070019
:1002d0001101ba000200e000e8ff3a000000060049
:1002e0003159ba008301e9000c0032002159ba00eb
:1002f0008301e900080032000400e00003003a0036
:10030000e280400032a0b400f5ff370011d9ba00f6
:100310008301e900faff3a008100e800e180400033
:1003200032a0b400000006000040da000000fe0029
:10033000889fbe008a9fbe008c1f7800990007002e
:10034000a000330003866c006450e1002e003200f0
:100350006420e100330032006150e1002f003200e0
:100360006120e1003100320085855500eb07b000c7
:10037000090020000804200005003700080444009c
:1003800089844c000a0031000603430087834b0038
:100390000001530081815b00f8ff33000203be00bf
:1003a0000800a0000804440089844c00f6ff3900ce
:1003b000c639dd0083017300010032001300200004
:1003c0008904d1000884d3000998a30005003200f5
:1003d0000800a7000300a0008904d1000884d3000e
:1003e0008b05e8008904d1000884d3000001eb00ec
:1003f0000281d2003000070001f0a1000cf0a7003c
:1004000001f0a000780037006420e1007a0032009b
:100410000801be000200be00f7ff37006120e100c6
:10042000750032006000b800f3ff370000002000c4
:1004300001f82700f0ff37000001be00440007006c
:100440000470a70003f0a10003f8a30013003a0012
:100450006509b10010003200090035006928e1008b
:1004600002003500010028000000050000004000e7
:10047000818048008502e900fcff3a000000060088
:10048000f88f4200050035008100d1000080d300c4
:100490008502e800fcff3a00000006008000eb0047
:1004a000000005004f89de00820178009c003700c3
:1004b0006011b800aa00370081002000618055005b
:1004c0000b003d000b00200061fe2f000100e10049
:1004d0001d00340082817100610164008904d10033
:1004e0000884d3000000e800faff3a007100200001
:1004f0006100640003007000020060000900320027
:1005000061044400e0844c000988a5000500320025
:100510008b05e8006808e10002003a008904d10078
:100520000884d300f20f20000258e10005003d00ce
:10053000c75ddd00f907b20089807500080078000a
:10054000000006000bf827008b0078000000050073
:10055000c70ade00f107b200f50fb2000800320052
:10056000e1cf4200020032000170a000240005002b
:10057000810f7000010032000408050044000500ee
:10058000810f700002003a00140005008502e900a6
:100590000000400081c04800fcff3b000170a0004b
:1005a000240005000004be00e9ff07000003be00b0
:1005b0000405be000200be00e5ff0700844f750081
:1005c000000006000200be006450e1000500360095
:1005d0006420e100020036000968a30001003a002f
:1005e0000800be000160a0004f0678004f05be0065
:1005f0004f04be0000000600f0ff2f00f1ff2700af
:10060000f9ff3700889fbe008a9fbe008c1f7800cc
:10061000e4ff0700ebff330003866c006450e10049
:10062000240032006420e100270032006150e10024
:10063000220032006120e100210032008b8542005f
:10064000eb07b1000134b800003ab80008044200da
:1006500089844a00013ab8000030b8008880400020
:1006600009014a0004003300000040008180480076
:10067000020149008b05e900c909dd008301700012
:100680000100320013002000c814de004814dd0011
:100690004709de001200b200c808de0008847000be
:1006a00085ff070001f0a1000cf0a70001f0a000f9
:1006b000cdff37006120e100cfff32000801be000e
:1006c0000200be00f7ff37006150e100fcff3a0076
:1006d000c9ff37006022b800060220000000d000e9
:1006e0008180d2000482d2008582d2000000a00066
:1006f0000202520083825a000300310002024200cb
:1007000083824a000000a1000603e900f3ff3a00db
:1007100000000600efff07000400be000000060016
:10072000881f7800030478000300e00007003d0004
:1007300060001000e080180060011900e0811900dd
:1007400002003b0001f02d00030037000400070009
:1007500008f0a70001f0a0004f0478000000060098
:10076000889fbe008a9fbe00008270000402710054
:1007700004827100260032000004be000200be00a8
:100780006011b8006b092000950220000182cf00a3
:100790000a0039000541b1000082cf00070039008e
:1007a0000541b1000982cf00040039000541b100c4
:1007b0000882cf00010039000541b1000542520016
:1007c000120032000a003b00828171006101640066
:1007d0008100d1000080d3008984d3000884d30035
:1007e0008b05e8000442e800f7ff3a0007003700f5
:1007f0000804440089844c000000480081804800bf
:100800008b05e9000442e900f9ff3a002aff0700de
:0c0810004f05be004f04be0000000600b3
:020000040000fa
:10081c0000000000000000000000000000000000cc
:10082c0000000000000000000000000000000000bc
:10083c00000000003eff0000ff3e00000000000032
:10084c0000000000000d00000d0000000000000082
:10085c000004000007030000000400000703000070
:10086c00000000000000000000000000000000007c
:10087c0010fe0000fe10000010fe0000fe10000034
:10088c00010f00000f010000010f00000f0100001c
:10089c001c3e000022ff0000ff420000ce8c000036
:1008ac0003070000040f00000f0400000703000002
:1008bc000000000006c60000f03c00000e02000024
:1008cc000004000007030000000600000600000002
:1008dc001e3f0000e1c10000412100003f1e00004e
:1008ec00060f0000090900000b0c00001e1600008a
:1008fc0000000000040700000300000000000000de
:10090c0000000000000000000000000000000000db
:10091c0000000000f8fe00000701000000000000cd
:10092c0000000000000700000e080000000000009e
:10093c000000000001070000fef8000000000000ad
:10094c0000000000080e000007010000000000007d
:10095c0020a80000f870000070f80000a82000002b
:10096c00000000000000000000000000000000007b
:10097c002020000020fc0000fc20000020200000b3
:10098c000000000000010000010000000000000059
:10099c00000000000000000000000000000000004b
:1009ac0000000000203c00001c00000000000000c3
:1009bc00202000002020000020200000202000002b
:1009cc00000000000000000000000000000000001b
:1009dc00000000000000000000000000000000000b
:1009ec0000000000000c00000c00000000000000e3
:1009fc000000000000c00000f03c00000f030000ed
:100a0c00000c00000f0300000000000000000000bc
:100a1c00feff00000101000001010000fffe0000cc
:100a2c00070f000008080000080800000f0700006e
:100a3c000004000006ff0000ff00000000000000a2
:100a4c0000080000080f00000f080000080000005c
:100a5c000203000081c10000613100001f0e000084
:100a6c000e0f00000908000008080000080c000028
:100a7c00020300000121000021210000ffde000024
:100a8c00040c000008080000080800000f07000014
:100a9c00e0f00000988c000086ff0000ff000000d2
:100aac000000000000000000080f00000f0800000c
:100abc003f3f00002121000021210000e1c1000086
:100acc00040c000008080000080800000f070000d4
:100adc00fcfe00002321000021210000e0c00000ea
:100aec00070f000008080000080800000f070000ae
:100afc000303000001810000e17900001f070000e2
:100b0c0000000000000f00000f00000000000000bb
:100b1c00deff00002121000021210000ffde00008b
:100b2c00070f000008080000080800000f0700006d
:100b3c001e3f00002121000021210000fffe0000cb
:100b4c000008000008080000080c00000703000063
:100b5c000000000000180000180000000000000059
:100b6c00000000000006000006000000000000006d
:100b7c000000000000180000180000000000000039
:100b8c0000000000101e00000e000000000000001d
:100b9c0040e00000b01800000c060000020000004d
:100bac000000000001030000060c0000080000001b
:100bbc0000a00000a0a00000a0a00000a000000069
:100bcc000000000000000000000000000000000019
:100bdc0000020000060c000018b00000e04000000d
:100bec00000800000c0600000301000000000000db
:100bfc000203000001c10000e13100001f0e0000e3
:100c0c0000000000000d00000d00000000000000be
:100c1c000203000001c10000e13100001f0e0000c2
:100c2c0000000000000d00000d000000000000009e
:100c3c00f8fc00008683000083860000fcf80000ae
:100c4c000f0f000000000000000000000f0f00005c
:100c5c00ffff00002121000021210000ffde000029
:100c6c000f0f000008080000080800000f07000024
:100c7c00fcfe00000301000001010000030600005f
:100c8c00030700000c080000080800000c06000018
:100c9c0001ff0000ff01000001030000fefc00004a
:100cac00080f00000f080000080c000007030000ec
:100cbc0001ff0000ff210000217100000303000070
:100ccc00080f00000f080000080800000c0c0000c2
:100cdc0001ff0000ff210000217100000303000050
:100cec00080f00000f0800000000000000000000ca
:100cfc00fcfe00000301000041410000c3c60000df
:100d0c00030700000c08000008080000070f000093
:100d1c00ffff00002020000020200000ffff00004b
:100d2c000f0f000000000000000000000f0f00007b
:100d3c000001000001ff0000ff01000001000000a5
:100d4c0000080000080f00000f0800000800000059
:100d5c00000000000000000001ff0000ff01000087
:100d6c00060e000008080000080f00000700000035
:100d7c0001ff0000ff700000d88c0000070300008a
:100d8c00080f00000f000000000100000f0e000013
:100d9c0001ff0000ff010000000000000000000047
:100dac00080f00000f080000080800000c0c0000e1
:100dbc00ffff00000c780000780c0000ffff000023
:100dcc000f0f000000000000000000000f0f0000db
:100ddc00ffff00001c38000070e00000ffff000067
:100dec000f0f000000000000000000000f0f0000bb
:100dfc00feff00000101000001010000fffe0000e9
:100e0c00070f000008080000080800000f0700008a
:100e1c0001ff0000ff210000212100003f1e000007
:100e2c00080f00000f080000000000000000000088
:100e3c00feff00000101000001010000fffe0000a8
:100e4c00070f0000080e00001c3800002f070000e0
:100e5c0001ff0000ff21000021610000ff9e000047
:100e6c00080f00000f080000000000000f0f00002a
:100e7c000e1f00003121000021610000c786000018
:100e8c00060e000008080000080800000f0700000c
:100e9c000303000001ff0000ff010000030300003a
:100eac0000000000080f00000f0800000000000008
:100ebc00ffff00000000000000000000ffff00002a
:100ecc00070f000008080000080800000f070000ca
:100edc00ffff00000000000000000000ffff00000a
:100eec0001030000060c00000c06000003010000ca
:100efc00ffff000000e00000e0000000ffff00002a
:100f0c00010f00000e030000030e00000f01000093
:100f1c00070f000098f00000f09800000f07000089
:100f2c000e0f000001000000000100000f0e000079
:100f3c000f1f000030e00000e03000001f0f000029
:100f4c0000000000080f00000f0800000000000067
:100f5c0003830000c1610000311900000f0700007d
:100f6c000f0f000008080000080800000c0c00001f
:100f7c0000000000ffff0000010100000000000065
:100f8c00000000000f0f0000080800000000000027
:100f9c0055aa000055aa000055aa000055aa000049
:100fac0055aa000055aa000055aa000055aa000039
:100fbc000000000001010000ffff00000000000025
:100fcc0000000000080800000f0f000000000000e7
:100fdc00080c000006030000030600000c080000cb
:100fec0000000000000000000000000000000000f5
:100ffc0000000000000000000000000000000000e5
:10100c001010000010100000101000001010000054
:10101c0000000000080f00000700000000000000a6
:10102c0000000000000000000000000000000000b4
:10103c00009000009090000090f00000e000000094
:10104c00070f000008080000080700000f08000048
:10105c0001ff0000ff10000010300000e0c0000095
:10106c00080f000007080000080800000f07000028
:10107c00e0f0000010100000101000003020000004
:10108c00070f000008080000080800000c0400000e
:10109c00c0e000003010000011ff0000ff00000055
:1010ac00070f000008080000080700000f080000e8
:1010bc00e0f000009090000090900000f0e0000044
:1010cc00070f000008080000080800000c040000ce
:1010dc0000100000feff00001111000003020000d0
:1010ec00000800000f0f00000800000000000000c6
:1010fc00e0f000001010000010e00000f010000004
:10110c00276f000048480000487f00003f000000a7
:10111c0001ff0000ff20000010100000f0e00000b4
:10112c00080f00000f000000000000000f0f00006f
:10113c000010000010f60000f60000000000000097
:10114c0000080000080f00000f0800000800000055
:10115c000000000010100000f6f600000000000077
:10116c0030600000404000007f3f000000000000a5
:10117c0001ff0000ffc00000c06000003010000044
:10118c00080f00000f000000010300000e0c00000f
:10119c000001000001ff0000ff0000000000000043
:1011ac0000080000080f00000f08000008000000f5
:1011bc00f0f0000030e00000e0300000f0e0000053
:1011cc000f0f000000070000070000000f0f0000c9
:1011dc0010f00000e010000010100000f0e0000023
:1011ec00000f00000f000000000000000f0f0000b7
:1011fc00e0f000001010000010100000f0e0000003
:10120c00070f000008080000080800000f07000086
:10121c0010f00000e010000010100000f0e00000e2
:10122c00407f00007f480000080800000f07000006
:10123c00e0f000001010000010e00000f0100000c2
:10124c00070f000008080000487f00007f400000e6
:10125c0010f00000e0100000101000003020000022
:10126c00000f00000f000000000000000000000054
:10127c0060f0000090900000901000003020000002
:10128c00040c000008080000090900000f0600000b
:10129c0010100000feff0000101000000000000005
:1012ac0000000000070f0000080c00000400000004
:1012bc00f0f000000000000000f00000f000000062
:1012cc00070f000008080000080700000f080000c6
:1012dc00f0f000000000000000000000f0f0000042
:1012ec0001030000060c00000c06000003010000c6
:1012fc00f0f000000080000080000000f0f0000022
:10130c00070f00000c070000070c00000f0700007f
:10131c001030000060c00000c06000003010000001
:10132c00080c000006030000030600000c08000077
:10133c00f0f000000000000000000000f0f00000e1
:10134c00474f000048480000486800003f1f00005d
:10135c003030000010900000d07000003010000001
:10136c000c0e00000b090000080800000c0c00001b
:10137c00000000000000000000000000005f000002
:10138c00000000000007000000070000001400002f
:10139c007f1400007f140000242a00007f2a000024
:1013ac00122300001308000064620000364900009c
:1013bc005522000050000000050300000000000052
:1013cc00001c00002241000000000000412200002f
:1013dc001c000000082a00001c2a0000080800005d
:1013ec00083e00000808000000500000300000001b
:1013fc000008000008080000080800000030000089
:10140c003000000000200000100800000402000062
:10141c003e510000494500003e000000427f0000a4
:10142c0040000000426100005149000046210000cc
:10143c00414500004b31000018140000127f0000e1
:10144c001027000045450000453900003c4a0000cb
:10145c00494900003001000071090000050300003b
:10146c003649000049490000360600004949000091
:10147c00291e0000003600003600000000000000ad
:10148c005636000000000000000800001422000086
:10149c004114000014140000141400004122000038
:1014ac0014080000000200000151000009060000b1
:1014bc0032490000794100003e7e0000111100000d
:1014cc00117e00007f49000049490000363e0000b3
:1014dc0041410000412200007f41000041220000f8
:1014ec001c7f000049490000494100007f090000b1
:1014fc0009010000013e0000414100005132000092
:10150c007f080000080800007f000000417f0000f9
:10151c004100000020400000413f0000017f00001e
:10152c0008140000224100007f40000040400000f1
:10153c00407f000002040000027f00007f040000d6
:10154c00081000007f3e000041410000413e0000b9
:10155c007f09000009090000063e0000415100000f
:10156c00215e00007f09000019290000464600009a
:10157c004949000049310000010100007f010000d1
:10158c00013f000040400000403f00001f200000d1
:10159c00402000001f7f000020180000207f00006a
:1015ac0063140000081400006303000004780000ba
:1015bc000403000061510000494500004300000095
:1015cc00007f0000414100000204000008100000f0
:1015dc0020410000417f00000000000004020000d8
:1015ec0001020000044000004040000040400000a8
:1015fc000001000002040000002000005454000010
:10160c00547800007f480000444400003838000043
:10161c0044440000442000003844000044480000ca
:10162c007f3800005454000054180000087e00005d
:10163c00090100000208000014540000543c000092
:10164c007f0800000404000078000000447d0000c6
:10165c004000000020400000443d0000000000005d
:10166c007f10000028440000004100007f40000073
:10167c00007c000004180000047800007c080000c6
:10168c000404000078380000444400004438000092
:10169c007c1400001414000008080000141400004e
:1016ac00187c00007c0800000404000008480000be
:1016bc005454000054200000043f0000444000003b
:1016cc00203c000040400000207c00001c2000005a
:1016dc00402000001c3c000040300000403c00005a
:1016ec004428000010280000440c0000505000005a
:1016fc00503c000044640000544c000044000000c6
:10170c000836000041000000000000007f000000cf
:10171c00000000004136000008000000080800002e
:10172c002a1c0000080800001c2a00000808000001
:10173c00000000000000000000000000000000009d
:10174c000000000000800000c0e00000f0f8000085
:10175c00f0e00000c080000000000000000000006d
:10176c00000000000000000000000000000000006d
:10177c00ff0000000000000000000000081800003e
:10178c0038780000f8f80000f8f80000f8f80000cd
:10179c00f8f80000f8f80000f8f80000f8780000fd
:1017ac0038180000080000000000000000000000d5
:1017bc00ff0000000000000000000000000000001e
:1017cc000000000000000000e0300000188c000059
:1017dc00040400008c18000030e000000000000041
:1017ec0000000000000000000000000000000000ed
:1017fc00ff000000000000000000000000000000de
:10180c00000000000008000010e0000060b00000c4
:10181c0030600000c000000000000000000000006c
:10182c0000000000000000000000000000000000ac
:10183c000000000000000000002000003038000014
:10184c003c3e00003f3f00003f3f00003f3f000098
:10185c003f3f00003f3f00003f3e00003c3800008f
:10186c00302000000000000000000000000000001c
:10187c00ff0000000000000000000000000000005d
:10188c000000000000010000030700000f1f000013
:10189c003f1f00000f0700000301000000000000c4
:1018ac00000000000000000000000000000000002c
:1018bc00ff0000000000000000000000000000001d
:1018cc00000000000000000001030000063d0000c5
:1018dc007f7900003d0600000301000000000000bd
:1018ec0000000000000000000000000000000000ec
:1018fc00ff000000000000000000000000000000dd
:10190c0000000000000000000f0800001828000074
:10191c00291a00000c0f000010200000000000002d
:10192c0000000000000000000000000000000000ab
:10193c00020200000202000002020000020200008b
:10194c00020200000202000002020000020200007b
:10195c00020200000202000002020000020200006b
:10196c00020200000202000002020000020200005b
:10197c00030200000202000002020000020200004a
:10198c00020200000202000002020000020200003b
:10199c00020200000202000002020000020200002b
:1019ac00020200000202000002020000020200001b
:1019bc00030200000202000002020000020200000a
:1019cc0002020000020200000202000002020000fb
:1019dc0002020000020200000202000002020000eb
:1019ec0002020000020200000202000002020000db
:1019fc0003020000020200000202000002020000ca
:101a0c0002020000020200000202000002020000ba
:101a1c0002020000020200000202000002020000aa
:101a2c00020200000202000002020000020200009a
:101a3c00000000000000000000000000000000009a
:101d9c000000000000000000007c00004444000033
:101dac00440000007c440000444400007c0000001f
:101dbc00486400005448000000000000004400008b
:101dcc00201000000844000000000000000000008b
:101ddc0000000000000000000000000000000000f7
:101dec0000000000000000000000000000000000e7
:101dfc0000000000000000000000000000000000d7
:101e0c0000000000000000000000000000000000c6
:101e1c0000000000000000000000000000000000b6
:101e2c0000000000000000000000000000000000a6
:101e3c000000000000000000000000000000000096
:101e4c000000000000000000003f00002121000005
:101e5c00212100002121000021210000212100006e
:101e6c00212100002121000021210000212100005e
:101e7c00212100002121000021210000212100004e
:101e8c00212100002121000021210000212100003e
:101e9c00212100002121000021210000212100002e
:101eac00212100002121000021210000212100001e
:101ebc00212100002121000021210000212100000e
:101ecc0021210000212100002121000021210000fe
:101edc0021210000212100002121000021210000ee
:101eec0021210000212100002121000021210000de
:101efc0021210000212100002121000021210000ce
:101f0c0021210000212100002121000021210000bd
:101f1c00212100003f000000000000000000000034
:101f2c0000000000000000000000000000000000a5
:101f3c000000000000000000000000000000000095
:101f4c000000000000800000c0e00000f0f800007d
:101f5c00f0e00000c0800000000000000000000065
:101f6c000000000000000000000000000000000065
:101f7c00ff00000000000000000000000818000036
:101f8c0038780000f8f80000f8f80000f8f80000c5
:101f9c00f8f80000f8f80000f8f80000f8780000f5
:101fac0038180000080000000000000000000000cd
:101fbc00ff00000000000000000000000000000016
:101fcc000000000000000000e0300000188c000051
:101fdc00040400008c18000030e000000000000039
:101fec0000000000000000000000000000000000e5
:101ffc00ff000000000000000000000000000000d6
:10200c00000000000008000010e0000060b00000bc
:10201c0030600000c0000000000000000000000064
:10202c0000000000000000000000000000000000a4
:10203c00000000000000000000200000303800000c
:10204c003c3e00003f3f00003f3f00003f3f000090
:10205c003f3f00003f3f00003f3e00003c38000087
:10206c003020000000000000000000000000000014
:10207c00ff00000000000000000000000000000055
:10208c000000000000010000030700000f1f00000b
:10209c003f1f00000f0700000301000000000000bc
:1020ac000000000000000000000000000000000024
:1020bc00ff00000000000000000000000000000015
:1020cc00000000000000000001030000063d0000bd
:1020dc007f7900003d0600000301000000000000b5
:1020ec0000000000000000000000000000000000e4
:1020fc00ff000000000000000000000000000000d5
:10210c0000000000000000000f080000182800006c
:10211c00291a00000c0f0000102000000000000025
:10212c0000000000000000000000000000000000a3
:10213c000202000002020000020200000202000083
:10214c000202000002020000020200000202000073
:10215c000202000002020000020200000202000063
:10216c000202000002020000020200000202000053
:10217c000302000002020000020200000202000042
:10218c000202000002020000020200000202000033
:10219c000202000002020000020200000202000023
:1021ac000202000002020000020200000202000013
:1021bc000302000002020000020200000202000002
:1021cc0002020000020200000202000002020000f3
:1021dc0002020000020200000202000002020000e3
:1021ec0002020000020200000202000002020000d3
:1021fc0003020000020200000202000002020000c2
:10220c0002020000020200000202000002020000b2
:10221c0002020000c242000042420000c202000062
:10222c000202000002020000020200000202000092
:10223c000000000000000000000000000000000092
:10224c000000000000000000000000000000000082
:10225c000000000000000000000000000000000072
:10226c000000000000000000000000000000000062
:10227c000000000000000000000000000000000052
:10228c000000000000000000000000000000000042
:10229c000000000000000000000000000000000032
:1022ac000000000000000000000000000000000022
:1022bc000000000000000000000000000000000012
:1022cc000000000000000000000000000000000002
:1022dc0000000000000000000000000000000000f2
:1022ec0000000000000000000000000000000000e2
:1022fc0000000000000000000000000000000000d2
:10230c0000000000000000000000000000000000c1
:10231c00fcfc0000fffc00003cfc0000fffc00008b
:10232c00fc000000000000000000000000000000a5
:10233c000000000000000000000000000000000091
:10234c000000000000000000000000000000000081
:10235c000000000000000000000000000000000071
:10236c000000000000000000000000000000000061
:10237c000000000000000000000000000000000051
:10238c000000000000000000000000000000000041
:10239c000000000000000000000000000000000031
:1023ac000000000000000000000000000000000021
:1023bc000000000000000000000000000000000011
:1023cc000000000000000000000000000000000001
:1023dc0000000000000000000000000000000000f1
:1023ec0000000000000000000000000000000000e1
:1023fc0000000000000000000000000000000000d1
:10240c0000000000000000000000000000000000c0
:10241c000303000003030000030300000303000098
:10242c00030000000000000000000000000000009d
:10243c000000000000000000000000000000000090
:10244c000000000000000000000000000000000080
:10245c000000000000000000000000000000000070
:10246c000000000000000000000000000000000060
:10247c000000000000000000000000000000000050
:10248c000000000000000000000000000000000040
:10249c000000000000000000000000000000000030
:1024ac000000000000000000000000000000000020
:1024bc000000000000000000000000000000000010
:1024cc000000000000000000000000000000000000
:1024dc0000000000000000000000000000000000f0
:1024ec0000000000000000000000000000000000e0
:1024fc0000000000000000000000000000000000d0
:10250c0000000000000000000000000000000000bf
:10251c0000000000000000000000000000000000af
:10252c00000000000000000000000000000000009f
:10253c00000000000000000000000000000000008f
:10254c00000000000000000000000000000000007f
:10255c00000000000000000000000000000000006f
:10256c00000000000000000000000000000000005f
:10257c00000000000000000000000000000000004f
:10258c00000000000000000000000000000000003f
:10259c000000000000000000007c0000444400002b
:1025ac00440000007c440000444400007c00000017
:1025bc004864000054480000000000000044000083
:1025cc002010000008440000000000000000000083
:1025dc0000000000000000000000000000000000ef
:1025ec0000000000000000000000000000000000df
:1025fc0000000000000000000000000000000000cf
:10260c0000000000000000000000000000000000be
:10261c0000000000000000000000000000000000ae
:10262c00000000000000000000000000000000009e
:10263c00000000000000000000000000000000008e
:10264c000000000000000000003f000021210000fd
:10265c002121000021210000212100002121000066
:10266c002121000021210000212100002121000056
:10267c002121000021210000212100002121000046
:10268c002121000021210000212100002121000036
:10269c002121000021210000212100002121000026
:1026ac002121000021210000212100002121000016
:1026bc002121000021210000212100002121000006
:1026cc0021210000212100002121000021210000f6
:1026dc0021210000212100002121000021210000e6
:1026ec0021210000212100002121000021210000d6
:1026fc0021210000212100002121000021210000c6
:10270c0021210000212100002121000021210000b5
:10271c00212100003f00000000000000000000002c
:10272c00000000000000000000000000000000009d
:10273c00020100002d2d0000204400004f4f00002e
:10274c00522000005359000053540000454d000026
:10275c00202d00002d0d00000a000000446f000029
:10276c006f72000020690000733a00002000000026
:10277c00414c0000415200004d210000212100007d
:10278c00004f0000504500004e000000434c00007c
:10279c004f53000045440000000a00000d000000eb
:1027ac00446f00006f720000206c00006f6300002b
:1027bc006b200000697300003a200000004c000000
:1027cc004f4300004b45000044000000554e0000f4
:1027dc004c4f0000434b000045440000004c0000ef
:1027ec00696700006874000020690000733a0000fb
:1027fc00200000004f4e0000004f00004646000035
:10280c000043000075720000726500006e740000d9
:10281c00204300004f320000206c00006576000061
:10282c00656c00003a200000004500006e76000048
:10283c00697200006f6e00006d6500006e74000020
:10284c00206c00006967000068740000206c0000b8
:10285c0065760000656c00003a2000000000000066
:020000040000fa
:10286c000200fa00004f78001e427800e04f520040
:10287c00050032001517800004022000048272004b
:10288c00141788000400370015178000f4fd2f0082
:10289c0004826200141788000080fa000000060011
:1028ac000200fa00004f78001e427800e04f520000
:1028bc0004003200141780000440a0001417880094
:1028cc000400370015178000f4fe2f00048262000c
:1028dc00141788000080fa00000006000200fa00bd
:1028ec00004f78001e427800e04f52000400320086
:1028fc00141780000410a00014178800040037007f
:10290c0015178000d4ff2f00048262001417880072
:10291c000080fa00000006000200fa00004f780068
:10292c001e427800e04f5200040032001417800061
:10293c000400a0001417880004003700151780004d
:10294c00e4ff2f0004826200141788000080fa0054
:10295c00000006000200fa00004f78001e427800ca
:10296c00e04f520005003200551680000402200092
:10297c00048272005416880004003700551680003b
:10298c00f4fd2f0004826200541688000080fa00c7
:10299c00000006000200fa00004f78001e4278008a
:1029ac00e04f520004003200541680000440a00096
:1029bc00541688000400370055168000f4fe2f00d2
:1029cc0004826200541688000080fa0000000600a1
:1029dc000000fa00dea2a900de82a900de22a90016
:1029ec00de02a900a8a2a800c6a2a900a882a8007d
:1029fc00c682a900a802a800c602a900a822a800a5
:102a0c00c622a900a842a800c642a900a862a80034
:102a1c00c662a900d202a900d222a900d242a90002
:102a2c00d262a9000080fa00000006000200fa0041
:102a3c00004f78001e427800e04f520008003a0028
:102a4c00d202a900d222a900d242a900d262a900c6
:102a5c00c662a900c642a900c622a900c602a900e6
:102a6c001e427800e14f520008003a00d202a80042
:102a7c00d222a800d242a800d262a800c662a80046
:102a8c00c642a800c622a800c602a8000080fa0010
:102a9c00000006000400fa00204798002e42900027
:102aac00044f7800b516800004ff2f0004826200ea
:102abc00b41688005516800004ff2f0004826200b3
:102acc00541688009e4278006fc26200144798002a
:102adc001e4290008482fb00541680000482720017
:102aec00541688009e4278000582fb004422de00ca
:102afc00044f78001e4278008482fb00b4168000dc
:102b0c0004827200b41688000080fa0000000600ef
:102b1c000200fa00a4168000044f78001e427800d0
:102b2c00450020000522dd00044f7800441680008b
:102b3c00144798001e4290006f42620014479800a0
:102b4c001e4290001e424200144798001e42900004
:102b5c00044078000080fa00000006000000fa0033
:102b6c0010c0b3004eff07000040eb004cff070005
:102b7c000080fa00000006000200fa00004f780006
:102b8c000040eb0064ff07000040eb0053ff070020
:102b9c001e407800bfff0700f0ff07000080fa001e
:102bac00000006000400fa00100798000002eb0079
:102bbc00040f7800010037001e0fe8001e02900081
:102bcc009e027800848f5200fbff39000080fa00cf
:102bdc00000006000200fa000040eb004eff070068
:102bec0010c0b3003dff070010c0b3008fff0700fb
:102bfc0010c0b3002aff0700c5ff07000042780091
:102c0c00044f78000040eb0025ff0700030037005d
:102c1c00bfff070000427800044f78001e42780086
:102c2c00e04f5200faff35000080fa000000060069
:102c3c000200fa00004f7800f4c3b3009e42780003
:102c4c0084cf52000a003e0010c0b30039000700c8
:102c5c0004c4b3001e42720004407800c6ff070093
:102c6c0014c0b300044078006ce8b7000f003700c4
:102c7c001e427800e04f52000c0035000040eb0083
:102c8c002c00070004ccb3001e42420084427800a2
:102c9c0004c4b30004c2720004407800b6ff0700fd
:102cac000042eb00044078006ce8b7001e4078004e
:102cbc006ae8b7000080fa00000006000200fa0083
:102ccc00004f78001e427800e74f520006003e008d
:102cdc0084cbb3001e42720004407800a6ff0700ac
:102cec001e4078006be8b7000080fa000000060078
:102cfc000200fa00004f7800114798001e4078003f
:102d0c00cbff07001e409000ecff07000080fa008c
:102d1c00000006000200fa00004f780004ccb3005b
:102d2c001e4272000440780093ff07000080fa00f6
:102d3c00000006000200fa00004f78000040eb0093
:102d4c00f5fe07001e427800e04f52000c003a00de
:102d5c000040eb00e1fe070010c0b3000dff0700c0
:102d6c000040eb00fbfe0700f0c3b30082ff07003e
:102d7c000042eb00044078006ce8b7000b00370011
:102d8c000040eb00d5fe07000040eb0001ff070000
:102d9c0010c0b300effe0700f0c3b30076ff0700ce
:102dac0014c0b300044078006ce8b7000080fa004f
:102dbc00000006000200fa00004f780010c0b300bb
:102dcc00d5fe07000040eb00c4fe07001e40780053
:102ddc0030ff070061ff07000080fa0000000600ca
:102dec000200fa0010c0b30010ff070010c0b300bf
:102dfc00c9fe070010c0b300b8fe070057ff07005c
:102e0c0010c0b300a6fe070041ff07000042780087
:102e1c00044f78000040eb00a1fe07000040eb00df
:102e2c0002ff07000040eb00bbfe07000040eb0078
:102e3c00aafe07001e427800044078000080fa00c9
:102e4c00000006000200fa000042eb001447980054
:102e5c001d0037009e4090000040eb00a4ff0700cf
:102e6c000042eb00044f78000300370000c0eb0079
:102e7c00d0ff07001e4fe800f4c3b3009e42780059
:102e8c0084cf5200f9ff36009e40900000c4b3007e
:102e9c0097ff07000042eb00044f78000300370057
:102eac0000c0eb00c3ff07001e4fe800f4c3b300e3
:102ebc009e42780084cf5200f9ff36001e429000eb
:102ecc000442e800144798001e429000e74f52005d
:102edc00e0ff36000080fa00000006000200fa0055
:102eec000042eb00144798001d0037009e409000f4
:102efc000040eb007eff07000042eb00044f78001f
:102f0c00030037000040eb00aaff07001e4fe8004b
:102f1c00f4c3b3009e42780084cf5200f9ff360010
:102f2c009e40900000c4b30071ff07000042eb000c
:102f3c00044f7800030037000040eb009dff0700b2
:102f4c001e4fe800f4c3b3009e42780084cf5200b9
:102f5c00f9ff36001e4290000442e8001447980026
:102f6c001e429000e74f5200e0ff36000080fa004e
:102f7c00000006000000fa0095fe07000040eb0080
:102f8c00c4fe07000040eb0063fe07000040eb00ae
:102f9c0052fe07000040eb0041fe07000040eb0032
:102fac007cfe07000040eb006afe070010c0b30077
:102fbc002bfe0700a0002000fafe07000040eb00eb
:102fcc0027fe0700a0002000f6fe070010c0b3008b
:102fdc0023fe070010c0b30056ff0700e0c3b30088
:102fec00e5fe070000ccb300e3fe070080cbb30086
:102ffc00e1fe070000c4b300dffe0700f0c3b3001e
:10300c00ddfe07000040eb004aff0700e0c3b30001
:10301c00d9fe070000ccb300d7fe070080cbb3006d
:10302c00d5fe070000c4b300d3fe0700f0c3b30005
:10303c00d1fe0700a9ff0700e0f9280002000700f5
:10304c000080fa00000006000400fa001007980047
:10305c000042eb0014479800300037009e4090006f
:10306c000040eb0022ff07000042eb00044f780009
:10307c000c0037001e4290000482fb00c722dd00ca
:10308c001e4378000682fb00048242009e029000e0
:10309c0004824200144278000440780045ff070087
:1030ac001e4fe800f4c3b3009e42780084cf520058
:1030bc00f0ff36009e40900000c4b3000cff0700e8
:1030cc000042eb00044f78000d0037001e429000c8
:1030dc000482fb00c722dd001e4378000682fb0041
:1030ec00048242000404b0009e029000048242005c
:1030fc0014427800044078002eff07001e4fe800b1
:10310c00f4c3b3009e42780084cf5200efff360028
:10311c001e4290000442e800144798001e429000a2
:10312c00e74f5200cdff36000080fa000000060089
:10313c000400fa0020479800314798000042eb0049
:10314c00044f78003e4290000482fb004322de00d4
:10315c0004427800844078002e409000e4fe070082
:10316c001fff070000427800044f78003e42900099
:10317c000482fb004322de00044278008440780085
:10318c002e409000dafe07003e4290000482fb00c5
:10319c006702620015002000042add0084427800da
:1031ac001e42780004c272000440780001ff070040
:1031bc000080fa00000006000400fa002047980086
:1031cc00314798000042eb00044f78003e429000db
:1031dc000482fb004322de00044278008440780025
:1031ec002e409000c2fe0700fdfe07000042780052
:1031fc00044f78003e4290000482fb004322de0024
:10320c0004427800844078002e409000b8fe0700fd
:10321c003e4290000482fb00670262001500200011
:10322c00042add000442780084c2ea001e427800c1
:10323c0004c2620004407800defe07000080fa0041
:10324c00000006000c00fa00004f9800114f980087
:10325c00224f98000002eb00040f78000002eb00f4
:10326c00140798000002eb00240798009e4a900077
:10327c000e4a900004c25200644798002e4a9000f7
:10328c000482fb00140798002e4a90008482fb00f5
:10329c00e4ff2f0004aab90004027800630f420077
:1032ac00740037001e029000844278001e4a900081
:1032bc0084c242002e029000044378000e4a900013
:1032cc0004424300854078000440780098ff0700d2
:1032dc001e029000044278009e4a900084c2520064
:1032ec002e029000044378000e4a900004424300e2
:1032fc0085407800044078008dff07001e02900086
:10330c00844278001e4a900084c242002e02900033
:10331c00044278000e4b9000044253008540780024
:10332c000440780082ff07001e02900004427800df
:10333c009e4a900084c252002e02900004427800f3
:10334c000e4b9000044253008540780004407800f6
:10335c0077ff07002e029000844278001e4a9000ee
:10336c0084c242001e029000044378001e4a900062
:10337c00044343006e4290000442530085407800a1
:10338c00044078006aff07002e0290000442780087
:10339c009e4a900084c252001e02900004437800a2
:1033ac001e4a9000044343006e42900004425300b6
:1033bc0085407800044078005dff07002e029000e5
:1033cc00844278001e4a900084c242001e02900083
:1033dc00044278001e4b9000044353006e42900050
:1033ec0004425300854078000440780050ff0700e9
:1033fc002e029000044278009e4a900084c2520033
:10340c001e029000044278001e4b900004435300af
:10341c006e429000044253008540780004407800ce
:10342c0043ff07001e027800e00f520005003d002c
:10343c002e0290004222dd00660242001e0f420066
:10344c0009003700ae0290001e0290000482520068
:10345c004222dd006a0242001e0f42001e02900052
:10346c000402e900140798002e0290000402e80000
:10347c0024079800ae0290001e029000848f520028
:10348c0088ff34000080fa00000006000600fa00f5
:10349c0020479800314798004247980053479800be
:1034ac000042eb00044f78000042eb00044f780020
:1034bc000b0037002e4290001e424200be4090008e
:1034cc00044078001aff07002e4290001e42420072
:1034dc00de4090000440780015ff07001e4fe80006
:1034ec001e4278008482fb004e4290000483fb0055
:1034fc002e4290000482fb00040253000402e800f8
:10350c00848f5200ebff35000042eb00044f780033
:10351c000b0037003e4290001e424200844078006f
:10352c002e40900002ff07003e4290001e424200d7
:10353c00844078004e409000fdfe07001e4fe800ce
:10354c001e4278008482fb005e4290000483fb00e4
:10355c003e4290000482fb00040253000402e80087
:10356c00848f5200ebff35000080fa00000006004b
:10357c000400fa0020479800a4862000144278002a
:10358c000482fb00e5024200f4072000848f520005
:10359c000f003400b4862000144278000442e80086
:1035ac00044078006be8b700b48620001442780021
:1035bc00e74f5200030036000042eb000440780055
:1035cc006be8b7000042eb00044078006ae8b700f3
:1035dc00b586200095427800a4862000144278001d
:1035ec008540780004407800c1fd07000042eb00e4
:1035fc00044f78001a0037002e4290000402fb00a2
:10360c006522b9000402780005f62f00848242007e
:10361c001e4378000682fb0004824200e59b2800d2
:10362c0065427a0004407800e2fd0700a486200081
:10363c00144278000442e800044078006ae8b700bd
:10364c00b586200095427800a486200014427800ac
:10365c008540780004407800a5fd07001e4fe80067
:10366c001e427800e44f5200e3ff36000040eb00ae
:10367c00d0fd0700a4862000144278000442e80024
:10368c00044078006ae8b7000080fa0000000600e9
:10369c000400fa0020479800a48620001442780009
:1036ac000482fb00e8024200f4072000848f5200e1
:1036bc0014003400b4862000144278000442e80060
:1036cc00044078006be8b700b48620001442780000
:1036dc000442e800044078006be8b700b486200090
:1036ec0014427800e74f5200030036000042eb0012
:1036fc00044078006be8b7000042eb00044078000f
:10370c006ae8b7000042eb00044f7800560037001f
:10371c00b586200095427800a486200014427800db
:10372c00854078000440780071fd07002e4290001f
:10373c000402fb000402b100c422dd001e43780029
:10374c000682fb0004824200e540280065427a00b4
:10375c000440780097fd0700b486200014427800de
:10376c000442e8008442780084cbb30004c27200a7
:10377c000440780000fd0700a586200095427800e3
:10378c00f4c3b30084cf52000c003e0010c0b30051
:10379c0068fd0700a58620009542780004c4b3009c
:1037ac0004c2720004407800f3fc070014c0b3009c
:1037bc00044078006ce8b70012003700a4862000a3
:1037cc0014427800e04f52000e0035000040eb0030
:1037dc0058fd0700a58620009542780004ccb30064
:1037ec0004c242008442780004c4b30004c27200d4
:1037fc0004407800e0fc07000042eb000440780035
:10380c006ce8b7002e4290000402fb000402b100e9
:10381c00c422dd001e4378000682fb0004824200b5
:10382c0068024200e540280065427a0004407800b6
:10383c0060fd0700a4862000144278000442e800d2
:10384c00044078006ae8b700b586200095427800fd
:10385c00a48620001442780085407800044078004b
:10386c0023fd07001e4fe8001e427800e74f520070
:10387c00a7ff36000080fa00000006000200fa00e4
:10388c00000f7800050037001e0278001442780003
:10389c000440780036ff07001e0fe8001e02780077
:1038ac0014427800e04f5200f7ff3a000080fa0013
:1038bc00000006000600fa00404798004e429000b7
:1038cc000482fb00cfa2de000400be00f2f207006f
:1038dc000002be006266260063fa23000400be00ec
:1038ec0090f207000002be000400be00cff20700f9
:1038fc000002be00244798000042eb00044f780001
:10390c00140037002e42900014479800070037002f
:10391c009e4090001e40780005fe07009e429000dd
:10392c002e42900004c24200144798001e429000a0
:10393c008482fb002e4290000482fb0006042000cf
:10394c0004025300848f5200f1ff35001e427800b0
:10395c00634f4200e4c7b3009e42780084cf52000c
:10396c00e8ff36004e42900004cfe9000f0037000c
:10397c000042eb0014479800060037009e40900070
:10398c001e407800eafd07001e42900004c2e800c9
:10399c00144798009e429000e4c3b30084cf5200b9
:1039ac00f6ff36004e4290001e4f4200b4c7b300e3
:1039bc009e42780084cf5200edff36000080fa0062
:1039cc00000006000400fa002047980031479800d8
:1039dc002e4290006e4242001447980094c3b300ec
:1039ec00044f78000b0037003e429000e14f52002c
:1039fc0004003a009e4078001e409000ccfd070069
:103a0c00030037009e4078001e409000eafd07003e
:103a1c001e4fe800c4c3b3009e42780084cf52000e
:103a2c00f1ff36000080fa00000006000200fa00e8
:103a3c00004f780011479800d586200095427800f9
:103a4c001e42900084cf5200110032001e429000a2
:103a5c00e14f520006003a00e0f928007afd070019
:103a6c000042eb000440780072e8b7000500370014
:103a7c00e0b9280074fd07000042eb000440780018
:103a8c0072e8b7001e4090006de8b7001f003700c9
:103a9c0024872000144278009e42780084cf520084
:103aac001a00320024872000144278009e427800cd
:103abc0084cf52000b00360024872000144278007b
:103acc0011c0b30004407800beff0700248720001b
:103adc00144278000442e8000440780072e8b70011
:103aec000a00370024872000144278008040eb0045
:103afc0004407800b3ff07002487200014427800ac
:103b0c000442e9000440780072e8b7000080fa0033
:103b1c00000006000000fa00d302a900d702a90099
:103b2c00c162a900c562a900dec2a900e2c2a90057
:103b3c00d322a8000082eb00441588000082eb0021
:103b4c00341688000080fa00000006000000fa001d
:103b5c0021002000800c2000130407000080fa00d4
:103b6c00000006000000fa0081022000800c2000fa
:103b7c000d0407000080fa00000006000400fa00a3
:103b8c00d30307000002be00048fbe001400200007
:103b9c00050020003e034200ae834a00f40f2000d3
:103bac0005002000060078000703780084037800e5
:103bbc000502780007006000040263000500200085
:103bcc00c022dd00040020000403be006102b80026
:103bdc000403730085837300e00f5300e08f5b00d8
:103bec0008003a00051780000404200004826200db
:103bfc00e00f520002003a00e2c2a80001003700b8
:103c0c00e2c2a90014002000050020003e0342007f
:103c1c00ae834a00f41f2000050020000600780047
:103c2c000703780084037800050278000700600021
:103c3c000402630005002000c022dd000400200007
:103c4c000403be006102b800040373008583730093
:103c5c00e00f5300e08f5b0009003a00448720001e
:103c6c0014427800f54f520002003a0044c5b300ec
:103c7c000100370054c1b3000440780074e8b70069
:103c8c0044872000144278000482fb000400780072
:103c9c00ee0307000080fa00000006000400fa00a2
:103cac000042eb00044f780005438000f431200003
:103cbc00848f520003003600044380000432b100ac
:103ccc00010037000002eb00140798001e02900060
:103cdc00050020004606200006abb900060378005c
:103cec006020b90080037800070343008402780049
:103cfc0044062000042ab80005034300860278001d
:103d0c00e2c42000030020000400be006ef2070095
:103d1c000002be00044f780044c6b3009e427800f7
:103d2c0084cf52000200360044c6b300044f780022
:103d3c001e427800044078000080fa000000060063
:103d4c000400fa000042eb00044f7800f5428000ba
:103d5c0034382000848f520003003600f442800077
:103d6c004438b100010037000002eb001407980042
:103d7c001e029000050020004606200006abb9008c
:103d8c00060378006020b900800378000703430025
:103d9c008402780044062000042ab800050343007e
:103dac0086027800c2da2000030020000400be0066
:103dbc0045f207000002be00044f780044c6b30071
:103dcc009e42780084cf52000200360044c6b300f5
:103ddc00044f78001e427800044078000080fa00fe
:103dec00000006000200fa00d5ff07000042780030
:103dfc00044f7800a9ff0700004278001447980090
:103e0c009e42900014c3b30084cf520008003600c9
:103e1c0014c0b3000440780046e8b70014c0b300e7
:103e2c000440780045e8b7001fe1a8000f003700f8
:103e3c001e429000ea4f52000c003e0064842000a9
:103e4c0014427800e14f520008003a000042eb00a7
:103e5c000440780046e8b7000042eb0004407800cc
:103e6c0045e8b700e2c2a9001fe1a900a516800031
:103e7c000420200004826200e00f52000c0032008b
:103e8c00051780000404200004826200e00f520039
:103e9c0007003a0074c2b3009e42780084cf5200ef
:103eac0003003e0014c0b3000440780044e8b7009f
:103ebc00451680000480200004826200e00f52004e
:103ecc0005003a00451680000400210004826200bf
:103edc00e00f52000f0032000485200014427800dd
:103eec00e04f520007003a0014c0b30004407800c1
:103efc0042e8b70014c0b3000440780050e8b700a3
:103f0c000a0037000042eb000440780042e8b7009a
:103f1c00060037000042eb000440780042e8b7008e
:103f2c000042eb000440780050e8b700970307000c
:103f3c000c04070000027800e00f520004003a0065
:103f4c000304070000027800e00f52000400320066
:103f5c0014c0b3000440780043e8b70003003700f6
:103f6c000042eb000440780043e8b7000080fa0000
:103f7c00000006000000fa004516800004802000b6
:103f8c0004826200e00f52000200320014c0b30041
:103f9c0008003700451680000400210004826200ee
:103fac00e00f52000200320024c0b30001003700c1
:103fbc0000c2eb00044078000080fa00000006000c
:103fcc000200fa00ebff070000427800044f780073
:103fdc001e427800e14f420024003200048420008d
:103fec00144278000482fb00e539290065427a000e
:103ffc009e4f520019003a000484200014427800ad
:10400c00e14f52000f003a000042eb0004407800f0
:10401c0041e8b700ae0207000003be0004e2240032
:10402c00050020000602420087824a006442880094
:10403c00754288000042eb000440780040e8b7006d
:10404c000b00370004842000144278000442e8007e
:10405c000440780040e8b700050037000042eb0050
:10406c000440780040e8b700010037000000000071
:10407c000080fa00000006000400fa00b4030700f8
:10408c0000027800040f7800b603070000027800e5
:10409c00140798001e029000f90f520043003600de
:1040ac009e029000f4032000848f52003f003e00db
:1040bc00040220009e027800848f520008003e000b
:1040cc001484200014427800e04f520037003a006c
:1040dc0014c0b3000440780045e8b7003300370043
:1040ec00040220009e027800848f52000c003600df
:1040fc00040420009e027800848f520008003e00c9
:10410c006484200014427800e04f520027003a00eb
:10411c000042eb000440780045e8b700230037006c
:10412c00040420009e027800848f52000e0036009a
:10413c00040620009e027800848f52000a003e0084
:10414c004484200014427800e04f520002003a00f0
:10415c0014c0b300010037000042eb0004407800ab
:10416c0044e8b70011003700040620009e027800d6
:10417c00848f52000d003600040820009e02780047
:10418c00848f520009003e006484200014427800a1
:10419c00e14f520005003a000042eb000440780069
:1041ac0046e8b700e2c2a9001fe1a9000080fa00ae
:1041bc00000006000000fa00043a29000400780010
:1041cc0049010700443b2900040078004601070020
:1041dc006484200014427800e14f520004003a003d
:1041ec00e43b2900040078003f0107000b00370076
:1041fc005484200014427800e14f520004003a002d
:10420c00743c2900040078003701070003003700d4
:10421c00c43c29000400780033010700343d290018
:10422c000400780030010700643d29000400780088
:10423c002d0107001484200014427800e14f520035
:10424c0004003a00543e29000400780026010700bf
:10425c0003003700c43e2900040078002201070047
:10426c00343d2900040078001f010700543f290049
:10427c00040078001c0107000517800004042000ce
:10428c0004826200e00f5200040032000440290056
:10429c0004007800140107000300370034402900a3
:1042ac000400780010010700343d29000400780058
:1042bc000d01070074402900040078000a01070072
:1042cc0076fe0700004278000482fb0004007800b0
:1042dc0013010700343d2900040078000201070097
:1042ec00b441290004007800ff00070094fe070089
:1042fc00004278000482fb000400780008010700eb
:10430c00343d290004007800f7000700343d2900f3
:10431c0004007800f40007000080fa00000006009a
:10432c000400fa00ea0107000002be00048fbe0080
:10433c005484200014427800e14f520002003a00ed
:10434c0002fe07000100370006fe0700648420000f
:10435c0014427800e04f52000100320007fe0700c3
:10436c004484200014427800e14f52000b003a00c4
:10437c00e2c2a80004712200050020003e034200a6
:10438c00ae834a000602be004442880055428800b3
:10439c000042eb000440780044e8b700f47f2000b2
:1043ac00050020001e03be000600780007037800fd
:1043bc0084037800050278000700600004026300a3
:1043cc0005002000c022dd00040020000403be0014
:1043dc006102b8000403730085837300e00f53007f
:1043ec00e08f5b0001003a0072ff07000080fa00ca
:1043fc00000006000400fa00b50107000002be0030
:10440c00048fbe0044428000554280001e03be0053
:10441c00840f5300858f5b0006003a00051780005f
:10442c000404200004826200e00f520001003200fc
:10443c00e2c2a90064428000754280001e03be00e7
:10444c00840f5300858f5b000a003a0064842000bf
:10445c0014427800e14f5200060032000042eb009b
:10446c000440780045e8b70014c0b300044078005d
:10447c0041e8b7000080fa00000006000400fa00d2
:10448c00881f78003484200014427800e04f5200da
:10449c0001003200f8fe07008d0107000002be008b
:1044ac00048fbe001e02be0052002000030020003c
:1044bc000400be0094f007000002be00e00f5200a2
:1044cc00e08f5a0007003a00188420001844780046
:1044dc00f2fd070000427800884078000440780024
:1044ec0052fd07004f0478000080fa00000006001f
:1044fc000000fa000042eb000440780045e8b700e9
:10450c000042eb000440780046e8b70014c0b3004a
:10451c000440780041e8b7000042eb00044078000a
:10452c0044e8b7007bfd07005001070011000700ad
:10453c00910207008ffa07000f0207000080fa00b3
:10454c00000006000000fa0026fe0700248420006c
:10455c0014427800e14f520001003a0098fe070027
:10456c00c6ff07006eff0700a2ff07000080fa00dd
:10457c00000006000000fa0004012000a4108800ce
:10458c000d42a9008d20a80075108000c4ff2f00db
:10459c0004826200741088000de2a8000f42a8008b
:1045ac000080fa00000006000000fa0004872000da
:1045bc0014427800044078000080fa0000000600e5
:1045cc000200fa000487200014427800e04f5200e9
:1045dc0002003a0000c2eb0014003700e486200011
:1045ec00144278000483fb00058020008502430000
:1045fc00154f78000442e800044078006ee8b700dc
:10460c00e486200014427800f443b20004407800a1
:10461c006ee8b70004872000144278000442e900d9
:10462c000440780070e8b7001e427800044078001f
:10463c000080fa00000006000400fa00881f7800d1
:10464c00100798000042eb00044f78000800370078
:10465c009e4278000582fb009e029000048442007a
:10466c00d7ff070000427800044c78001e4fe8008a
:10467c000487200014427800e04f5200f4ff3a0007
:10468c001e427800044078004f0478000080fa0045
:10469c00000006000200fa00004f78000000000045
:1046ac00751080000410200004826200e00f52009c
:1046bc00fbff32006410800066026200e60f5200bd
:1046cc0004003a009e4278000582fb0084108800aa
:1046dc00030037009e4278000582fb00841088009e
:1046ec000080fa00000006000200fa00000f7800bb
:1046fc00050037001e027800144278000440780050
:10470c00e4ff07001e0fe8001e0278001442780038
:10471c00e04f5200f7ff3a000080fa00000006005c
:10472c000a00fa00400798006200470001000900e7
:10473c000018eb000058eb000042eb00044f78002f
:10474c009e4078008182fb004e039000a400200064
:10475c00110009000483d80001027800044278009b
:10476c000443b00085024700a44298001e4fe800a5
:10477c00ce029000a4002000110009008482d80011
:10478c0000027800440798004e029000e00f52009f
:10479c00ebff3a000042eb00144798000d00370085
:1047ac001e4278008482fb001e4290000482fb00b3
:1047bc00048252000402e9000402470024429000e3
:1047cc0004407800b3ff07001e4290000442e8004a
:1047dc00144798001e4290009e4f5200f0ff390083
:1047ec000080fa0000000600801f7800849fbe0045
:1047fc00869fbe003400f80000002000a001880055
:10480c000000fa008520a900f486200014427800ec
:10481c008483fb0095108000854278000680200080
:10482c0006834300054b78000442e80004407800fe
:10483c006fe8b700f486200014427800f443b2000d
:10484c00044078006fe8b700058720009542780097
:10485c00f4c3b30084cf520005003e00048720004f
:10486c00144278000442e8000440780070e8b70075
:10487c000080fa003400f9004f03be004f02be0066
:10488c004f007800004006000000fa008c60a90080
:10489c0005e1a9008460a9000080fa000000060070
:1048ac000200fa00000f78008460a9001e02780054
:1048bc00044278006742620067426200674262000d
:1048cc000482fb00670262004c22dd00a60480001b
:1048dc00f5ff28008502630004827200a40488009e
:1048ec009e027800688262004322de000442780057
:1048fc00614262000482fb00610262004322dd001f
:10490c006604800075ff2f0085026300048272002c
:10491c00640488000080fa00000006000400fa001d
:10492c00000f7800110798000002eb0004088800c3
:10493c001e029000140888001e02780024088800cb
:10494c000080fa00000006000000fa000408800055
:10495c00040078000080fa00000006000200fa0053
:10496c00000f78001e027800040888000080fa000e
:10497c00000006000400fa0090ff2f00c8ff07009b
:10498c000000eb00f5ff0700744d2000050020002f
:10499c00048fbe001e0278008400780090f82d0071
:1049ac00deff07004440a8008e80a900b40c8000f4
:1049bc000400a1000410a1000420a100b40c880084
:1049cc008680a9000080fa00000006000000fa00b2
:1049dc000002eb00340888000082eb0064088800b9
:1049ec001021a900840880000440a0000450a000fd
:1049fc008408880084c0a9008cc0a80011e1a8001c
:104a0c000080fa00000006000000fa000002eb0033
:104a1c005408880084382100740888001221a900e9
:104a2c0084e0a9008ce0a80013e1a8000080fa0043
:104a3c00000006000000fa000002eb00a408880049
:104a4c000082eb00d40888001e21a900f408800025
:104a5c000440a0000450a000f408880086a0a9001f
:104a6c008ea0a8000080fa00000006000000fa00ea
:104a7c00c0ff0700d5ff0700e3ff0700edff0700ad
:104a8c000080fa00000006000200fa00000f780017
:104a9c000002eb00340888001e0278000402420079
:104aac00640888000080fa00000006000200fa008a
:104abc00000f78000002eb00a40888001e027800aa
:104acc0004024200d40888000080fa0000000600ae
:104adc000000fa0034438000454380000400be000f
:104aec000080fa0000000600841f78003400f800f3
:104afc0004002000a40188000000fa000002eb0072
:104b0c00040888008460a9000080fa003400f900d1
:104b1c004f02780000400600849fbe003400f8006d
:104b2c0004002000a40188000000fa003443800037
:104b3c004543800061024200e0824a003443880011
:104b4c00454388000002eb005408880084e0a9006b
:104b5c000080fa003400f9004f02be00004006004d
:104b6c000600fa0020079800d9ff07000002be00db
:104b7c00040f78002e0290001e02420014079800c9
:104b8c0000000000d2ff07000003be001e029000d0
:104b9c0005002000840f5300858f5b00f9ff3a005d
:104bac000080fa00000006000400fa00000f7800f4
:104bbc00110798006487200014427800e14f5200de
:104bcc001f0032001e0290009e0f520002003a009d
:104bdc00d702a8001b0037001e029000e00f520005
:104bec0002003a00d702a90016003700a516800073
:104bfc000410200004826200e00f520005003a000d
:104c0c001e0290001e021200040078009eff070096
:104c1c0007003700a51680000410200004826200f3
:104c2c00e00f5200020032001e00900096ff0700b9
:104c3c0014c0b3000440780076e8b70001003700d8
:104c4c00000000000080fa00000006000200fa00dc
:104c5c00000f78007487200014427800e14f520056
:104c6c00060032001e00780090ff070014c0b3004d
:104c7c000440780077e8b70001003700000000001e
:104c8c000080fa0000000600801f7800849fbe00a0
:104c9c003400f80000002000a00188000000fa0099
:104cac00a51680000410200004826200e00f520060
:104cbc0002003200d702a90006003700a5168000ba
:104ccc000410200004826200e00f520001003a0040
:104cdc00d702a8000042eb000440780076e8b70049
:104cec000002eb003408880084c0a9000080fa00a0
:104cfc003400f9004f02be004f007800004006005f
:104d0c00801f7800849fbe003400f8000000200053
:104d1c00a00188000000fa00151680000480200015
:104d2c0004826200e00f520002003200c562a9004a
:104d3c0006003700151680000480200004826200f3
:104d4c00e00f520001003a00c562a8000042eb00df
:104d5c000440780077e8b7000002eb00a408880054
:104d6c0086a0a9000080fa003400f9004f02be00b2
:104d7c004f007800004006000000fa00cda2a90008
:104d8c00cdc2a9000080fa00000006000400fa0061
:104d9c004fff07000002be00048fbe00d44280000b
:104dac00e5428000be0f5200ae8f5a006500320003
:104dbc001e02be0042012000030020000400be00c1
:104dcc0051ee07000002be00e00f5200e08f5a00c7
:104ddc0003003a00d1a2a800d1c2a90055003700a7
:104dec001e02be00f2002000030020000400be00e2
:104dfc0045ee07000002be00e00f5200e08f5a00a3
:104e0c0007003a0015438000441f2000848f520095
:104e1c004800360014438000944288004500370057
:104e2c001e02be00a2002000030020000400be00f1
:104e3c0035ee07000002be00e00f5200e08f5a0072
:104e4c0003003a00d1a2a900d1c2a8003900370052
:104e5c001e02be0052002000030020000400be0011
:104e6c0029ee07000002be00e00f5200e08f5a004e
:104e7c0030003a0024438000a44288009542800010
:104e8c00441f2000848f5200110036009442800091
:104e9c00441fb100050020000400be0081ed070096
:104eac000002be00c2382f0073d323000400be00e2
:104ebc00d1ed07000002be000400be005bed070050
:104ecc000002be0004027800b442880002003700e1
:104edc000002eb00b4428800a5428000c42b2000e5
:104eec00848f520011003600a4428000c42bb10004
:104efc00050020000400be006aed07000002be00a1
:104f0c00b2b02700a3cd23000400be00baed070009
:104f1c000002be000400be0044ed07000002be000b
:104f2c0004027800c4428800020037000002eb0043
:104f3c00c44288001e02be00d4428800e5428800ac
:104f4c0001003700000000000080fa00000006009d
:104f5c000000fa00b4428000040078000080fa00df
:104f6c00000006000000fa00c44280000400780033
:104f7c000080fa00000006000000fa00a1a2a900bf
:104f8c00041580000480a1000490a1000415880081
:104f9c00041580000450a0000460a0000470a00060
:104fac0004158800a022a8001415800004d0a000cd
:104fbc0004e0a00004f0a00014158800a342a8008f
:104fcc00141580000420a0000430a0000440a100af
:104fdc000450a10014158800a222a900a202a90065
:104fec002515800004f0210004827200241588002d
:104ffc00a4e2a8002515800004fc2f0004826200a6
:10500c00f401b30024158800a782a900a682a90088
:10501c00341580000400a1000410a1000420a1009c
:10502c000430a10034158800341580000480a100e0
:10503c000490a10004a0a10004b0a10034158800c4
:10504c004515800004c02f000482620044158800be
:10505c0035168000f43f200004827200341688005c
:10506c00043c200054158800a042a8008d60a800c4
:10507c008560a900a1e2a8000080fa0000000600eb
:10508c00841f78003400f80004002000a40188007c
:10509c000000fa0004148000f4428800141480000c
:1050ac0004438800241480001443880034148000c6
:1050bc00244388008560a9000080fa003400f900c0
:0850cc004f02780000400600cd
:020000040000fa
:1050d4006608000004000000000000006a080000e8
:1050e40004000000020000000000000001000000b5
:1050f40072080000020000000000000040080000e8
:10510400120000000000000074080000020000000b
:1051140002000000150000007608000002000000f4
:1051240000000000520800000c0000000000000015
:105134005e080000080000000200000000000000fb
:105144000000000000000000000800004000000013
:10515400000000006e0800000400000002000000cf
:0c5164000000000000000000000000003f
:020000040000fa
:105170000400fa00000f780011079800dffc070018
:08518000f3fc0700feff3700fd
:020000040000fa
:0200000401f009
:04000000f17f00008c
:020000040000fa
:0200000401f009
:04000400ff7f00007a
:020000040000fa
:0200000401f009
:04001400ffff0000ea
:00000001FF
