:020000040000fa
:080000000001040000000000f3
:020000040000fa
:0400080028020000ca
:020000040000fa
:04000c0028020000c6
:020000040000fa
:0400100028020000c2
:020000040000fa
:0400140028020000be
:020000040000fa
:0400180028020000ba
:020000040000fa
:04001c0028020000b6
:020000040000fa
:0400200028020000b2
:020000040000fa
:0400240028020000ae
:020000040000fa
:0400280028020000aa
:020000040000fa
:04002c0028020000a6
:020000040000fa
:0400300028020000a2
:020000040000fa
:04003400c8010000ff
:020000040000fa
:04003800280200009a
:020000040000fa
:04003c002802000096
:020000040000fa
:04004000ea010000d1
:020000040000fa
:04004400280200008e
:020000040000fa
:04004800280200008a
:020000040000fa
:04004c002802000086
:020000040000fa
:040050002802000082
:020000040000fa
:0400540000020000a6
:020000040000fa
:04005800280200007a
:020000040000fa
:04005c002802000076
:020000040000fa
:040060002802000072
:020000040000fa
:04006400280200006e
:020000040000fa
:04006800280200006a
:020000040000fa
:04006c002802000066
:020000040000fa
:040070002802000062
:020000040000fa
:04007400280200005e
:020000040000fa
:04007800280200005a
:020000040000fa
:04007c002802000056
:020000040000fa
:040080002802000052
:020000040000fa
:04008400280200004e
:020000040000fa
:04008800280200004a
:020000040000fa
:04008c002802000046
:020000040000fa
:040090002802000042
:020000040000fa
:04009400280200003e
:020000040000fa
:04009800280200003a
:020000040000fa
:04009c002802000036
:020000040000fa
:0400a0002802000032
:020000040000fa
:0400a400280200002e
:020000040000fa
:0400a800280200002a
:020000040000fa
:0400ac002802000026
:020000040000fa
:0400b0002802000022
:020000040000fa
:0400b400280200001e
:020000040000fa
:0400b800280200001a
:020000040000fa
:0400bc002802000016
:020000040000fa
:0400c0002802000012
:020000040000fa
:0400c400280200000e
:020000040000fa
:0400c800280200000a
:020000040000fa
:0400cc002802000006
:020000040000fa
:0400d0002802000002
:020000040000fa
:0400d40028020000fe
:020000040000fa
:0400d80028020000fa
:020000040000fa
:0401080028020000c9
:020000040000fa
:04010c0028020000c5
:020000040000fa
:0401100028020000c1
:020000040000fa
:0401140028020000bd
:020000040000fa
:0401180028020000b9
:020000040000fa
:04011c0028020000b5
:020000040000fa
:0401200028020000b1
:020000040000fa
:0401240028020000ad
:020000040000fa
:0401280028020000a9
:020000040000fa
:04012c0028020000a5
:020000040000fa
:0401300028020000a1
:020000040000fa
:04013400c8010000fe
:020000040000fa
:040138002802000099
:020000040000fa
:04013c002802000095
:020000040000fa
:04014000ea010000d0
:020000040000fa
:04014400280200008d
:020000040000fa
:040148002802000089
:020000040000fa
:04014c002802000085
:020000040000fa
:040150002802000081
:020000040000fa
:0401540000020000a5
:020000040000fa
:040158002802000079
:020000040000fa
:04015c002802000075
:020000040000fa
:040160002802000071
:020000040000fa
:04016400280200006d
:020000040000fa
:040168002802000069
:020000040000fa
:04016c002802000065
:020000040000fa
:040170002802000061
:020000040000fa
:04017400280200005d
:020000040000fa
:040178002802000059
:020000040000fa
:04017c002802000055
:020000040000fa
:040180002802000051
:020000040000fa
:04018400280200004d
:020000040000fa
:040188002802000049
:020000040000fa
:04018c002802000045
:020000040000fa
:040190002802000041
:020000040000fa
:04019400280200003d
:020000040000fa
:040198002802000039
:020000040000fa
:04019c002802000035
:020000040000fa
:0401a0002802000031
:020000040000fa
:0401a400280200002d
:020000040000fa
:0401a8002802000029
:020000040000fa
:0401ac002802000025
:020000040000fa
:0401b0002802000021
:020000040000fa
:0401b400280200001d
:020000040000fa
:0401b8002802000019
:020000040000fa
:0401bc002802000015
:020000040000fa
:0401c0002802000011
:020000040000fa
:0401c400280200000d
:020000040000fa
:0401c8002802000009
:020000040000fa
:0401cc002802000005
:020000040000fa
:0401d0002802000001
:020000040000fa
:0401d40028020000fd
:020000040000fa
:0401d80028020000f9
:020000040000fa
:10020000af8220000eff20000e01880000000000d9
:10021000000020000000e000020032000001200089
:1002200020028800140007008b0007000000e00097
:1002300003003a0060322200010020000200370073
:100240000000200001002000810f7000010032003a
:1002500014000700000020000000e000020032004f
:1002600000000200000000004c230200000000001b
:100270000040da000000fe004440a90040db2000fe
:100280000000e0000300320000002000a001880010
:100290004440a800000006008a1f78008b1f7800e9
:1002a0000000060091018800800478000000eb0047
:1002b0001a003700e284440032a0b4009905ba0065
:1002c000e284440032a0b4009906ba00e2844400fb
:1002d00032a0b4000006eb00476fde00fd07b2005d
:1002e000636ce10003003a00ebff07000000eb0045
:1002f0000a003700606ce10004003a00005deb008a
:100300008b05e900fdff3e00040037006168e10055
:10031000010032000086eb000b00070019c7ba008d
:100320001905ba000e04e00003003a000a00e000dc
:10033000e0ff3a0000000600fe07b2009e018800c0
:100340008a047800f5ff3700395dba008b05e900b3
:100350000c003200295dba008b05e900080032006c
:100360000c00e00003003a00e284440032a0b40034
:10037000f5ff370019ddba008b05e900faff3a00f6
:100380008904e800e184440032a0b40000000600c3
:10039000809fbe003400f80000002000a00188000b
:1003a0000000fa000041800011418000610040001f
:1003b000e080480000418800114188000021ef00e2
:1003c0008460a9000080fa003400f9004f00be00ec
:1003d000004006003400f800881f78000800200064
:1003e000a80188004f0478000000fa000621ef0001
:1003f00084c0a9000080fa003400f9000040060023
:10040000801f78003400f80000002000a001880060
:100410000000fa0000148000a04088001014800042
:10042000b0408800201480007040880030148000a4
:100430008040880040148000904088008560a900ba
:100440000080fa003400f9004f00780000400600f8
:100450000040da000000fe00000005000001be00c0
:100460003f0007000470a70003f0a1006509b10078
:10047000160032000d0035006828e1000600350046
:10048000f0ff2f00f1ff27000300e00013003b0006
:1004900001002800000005000000400081804800a5
:1004a0008502e900fcff3a0008003700f88f42009f
:1004b00002003c008000eb00000005008100d1003c
:1004c0000080d3008502e800fcff3a000300e00052
:1004d00002003b0060001000e080180000000600f1
:1004e0000001be001e0007000470a70003f0a10079
:1004f00003f8a30013003a006509b10010003200b0
:10050000090035006928e1000200350001002800db
:100510000000050000004000818048008502e900dd
:10052000fcff3a0000000600f88f4200050035008d
:100530008100d1000080d3008502e800fcff3a0072
:10054000000006008000eb00000005004f89de007f
:10055000820178007e0237006011b8008c023700fb
:10056000c70ade00f107b200f50fb2000800320042
:10057000e1cf4200020032000170a000240005001b
:10058000810f7000010032000408050044000500de
:10059000810f700002003a00140005008502e90096
:1005a0000000400081c04800fcff3b000170a0003b
:1005b00024000500889fbe008a9fbe008c9fbe005d
:1005c0001b0020000202be0005866800060028000d
:1005d000060666004709de00f20fb2008200320014
:1005e0000243e80080003200c729de00f30fb200aa
:1005f0007d0032000343e8007b003200f107b200c7
:100600000170a000f507b2000570a000c708dd006a
:100610004903de00868070004700dd00c72add0048
:100620004923de00868272004722dd000305510067
:10063000040350008583580003003100000040008f
:10064000818048000a05e9008c1f78008a9fbe005f
:1006500004005000858058000402420085824a0050
:1006600000004000818048000005eb000004be004f
:100670006033b8000406be000d48e10056003100aa
:10068000110009004dccd8000c01b8000d02b800d3
:100690008481410060824a008283530003045c002d
:1006a00084845c0060055d000a00e00025003a00db
:1006b000800578000d40e100490031008800780095
:1006c00007007800110009004d88d8000c01b8001f
:1006d0000d02b8008481410060824a00600311006d
:1006e00083835b0004045c00e0845c000900e0009c
:1006f00021003a004f01be000300e0002b00320051
:10070000e3016000070673008c8171000100320074
:10071000640070004200de004e5edd000c007000e0
:10072000c258de0001e0a00083010700cf0178007d
:10073000818071004f06be004f05be004f04be0011
:10074000000006008c8343000d044c00e0844c0044
:1007500060054d000000e9000a00e000d4ff32000f
:100760008c8343000d044c00e0844c0060054d0078
:100770000000e900ceff37000c0343008d834b00df
:1007800060044c00e0844c000000e9000900e00037
:10079000d8ff32000c0343008d834b0060044c00f3
:1007a000e0844c000000e900d2ff37004200de0088
:1007b0004e5edd000c007000c258de0001e0a000bb
:1007c000cf0178000300e000daff32006000100083
:1007d000e0801800d7ff3700f0ff2f00aaff370096
:1007e000f0ff2f00b9ff37000404be002f010700ff
:1007f000870678000004fd008104fd002b0107003e
:10080000078366000678a300030032000960a70092
:100810000800be002c0037000d78a3000200320053
:100820000800be00280037000778a30026003a0021
:1008300001f0a10009f0a1000668a3000300320046
:10084000f1ff2700f0ff2f00baff37000d68a3006b
:10085000030032000800be008c807000b5ff370036
:100860000768a30007003a000648a300030032000f
:10087000f1ff2700f0ff2f00aeff37000d48a30067
:10088000030032006000b8008c807000a9ff3700c0
:100890000748a3000400320001f8270000002000f0
:1008a0008c807000a3ff3700760107000004fd0074
:1008b0008104fd0002057800720107000802be00f5
:1008c0008a01780059ff37000160a0001202200061
:1008d0004241880097ff37000100e000120032001b
:1008e0000500e00010003200889fbe008a9fbe0015
:1008f0008c9fbe000006eb0001f8a300030032004d
:1009000060001000e08018000cf0a00005f8a300c3
:100910000300320060021200e0821a000cf0a20014
:100920008005eb0041ff37006000b80002000500c1
:10093000038368000700280007036300470ade00fe
:100940000480a100c71ade000580a100f70f200077
:100950000720e100420032000728e1004000320099
:10096000889fbe008a9fbe008c1f7800f107b200ee
:10097000f307b2000400e000640032000170a00040
:100980000500e000680032000370a0008505420009
:10099000eb07b1000204b8000302b80084844400ed
:1009a00060854a00020ab800848444000a854a002f
:1009b000030ab80004054500040033000804d00011
:1009c0008984d2000a85d2008b05e9006158e100d4
:1009d0003d003500021020000901610003082000dd
:1009e00089816100f707200087836400088673000f
:1009f000c84cde00c853dd00878474004855de0013
:100a00000300e0000600320082037600040032009a
:100a10008904e80060054d000a88a3000c003a0034
:100a2000f70f20000758e10044003d000a70a100c4
:100a3000c75ddd000a8575008a0073000900780033
:100a40004f0678004f05be004f04be0000000600b0
:100a50000a05d1008984d3008b05e800f0ff370038
:100a6000881f7800060478009000070007027800cd
:100a70000001fd008101fd008c0007008702780065
:100a8000850372000778a300050032000001fd0015
:100a90008101fd009f0007004f0478000000060060
:100aa000850372000748a30003003200f0ff2f0007
:100ab000f1ff2700f8ff37000000200001f82700b1
:100ac00088807000f4ff3700880178004848dd0016
:100ad000808171004848de00c850dd0001007000d0
:100ae000c850de00060478000b01780016000700ed
:100af00088807000d2ff37000500e000050032005a
:100b0000170020003a0007009dff370081037000a6
:100b1000f9ff3a00860078004f0678004f05be00c6
:100b20004f04be000000050083037100f9ff32008e
:100b3000270020002e00070094ff370001f827004f
:100b400086807000f4ff37000100e00026003200cc
:100b5000610111007810e10023003c006022b80020
:100b60007010e10004003500800278000100780078
:100b70008000eb00700151000200e0000900340029
:100b800070031100062add00822ade008603dd00e4
:100b9000878272000200de00860bdd000700700015
:100ba0008208de0084817100f4ff27000482620065
:100bb0008481710004002800848262006102600068
:100bc00005f0a60000000600048271000700320054
:100bd0000000e800e0804800000006000002be00bf
:100be0006000b800efff37006000b80000000600aa
:100bf000889fbe000004eb006138e10016003a0057
:100c00000100e00008003a00c800de004800dd00f6
:100c1000880020000100e00003003a00c800de0068
:100c20004800dd00680444008184cf00e98454005a
:100c3000060034008908dd00f08314008703de001d
:100c4000878070000900dd0009044400610214007f
:100c50004f04be00000006000300e00008003a0058
:100c6000c811de004811dd00880020000300e0000c
:100c700003003a00c811de004811dd00680444009a
:100c80008384cf00e9845400060034008919dd0014
:100c9000f08314008713de00878171000911dd00e5
:100ca00009044400e1021400e9ff37002700200096
:100cb00001f0a70017002000470bde00f60fb2007e
:100cc000040032000643e8000a0032004702b30085
:100cd0000000060001037800f607b200060370006a
:100ce00002003a000703b300000006008702b300c9
:100cf0000000060001037800f607b200060370004a
:100d0000020032000770a000000006000760a0008b
:100d1000000006000478a300040032000578a30058
:100d2000030032000168a30001003a000200be0087
:100d30000160a00000000600810170002700320061
:100d40008002eb0001f8a3000300320060001000f5
:100d5000e080180015002000f40720000202420085
:100d600020003400f7032000870360000604200001
:100d70000003630002082000000161004700de005c
:100d8000c909dd0000807100c708de000600e00030
:100d90000800320087037100060032001000b00026
:100da0000180b0000188a30002003200c108de000b
:100db0000402e800f107b200f30f20000320e10075
:100dc00003003d004722dd0081007200290037004a
:100dd00001f827000000eb00260037006000b80093
:100de00000000600680212007f20e10002003400cb
:100df0006000b8001f0037006011b8007020e100eb
:100e00000400350080017800010078008000eb00cc
:100e1000700252000400e00009003400f0031200e8
:100e20000719dd008419de000703dd0086817100eb
:100e30000400de00070bdd00060070008408de0001
:100e4000f7ff2700838363008703710006002800f3
:100e500003036300070032000700e00003003a00cc
:100e60006101600002817300020032001000b000d6
:100e70000180b0000500a6000000060001f0a000ff
:100e8000000006004f0ade004709de00f107b2004d
:100e9000f20fb2000b003200f207b1000170a000a7
:100ea000c708dd00c901de00838070004700dd0057
:100eb0000400a6000000060060001000e08018009a
:100ec00000000600810f700001003a0000000600db
:100ed0008182cf000500e00010003e008082cf003c
:100ee000ee8242007028e1000400390007003e0055
:100ef000800078000000eb000e00370070831200c5
:100f00008600de000500dd000a0037007083520015
:100f10008600dd000000eb0006003700e282520090
:100f20008508dd00708312000603de0086807000f5
:100f30000500dd007507b0000501ea000400a60009
:100f40000000060060001000e080180000000600ad
:100f5000881f7800030478000300e00007003d00cc
:100f600060001000e080180060011900e0811900a5
:100f700002003b0001f02d000300370004000700d1
:100f800008f0a70001f0a0004f0478000000060060
:100f9000889fbe008a9fbe0000827000040271001c
:100fa00004827100260032000004be000200be0070
:100fb0006011b8006b092000950220000182cf006b
:100fc0000a0039000541b1000082cf000700390056
:100fd0000541b1000982cf00040039000541b1008c
:100fe0000882cf00010039000541b10005425200de
:100ff000120032000a003b0082817100610164002e
:101000008100d1000080d3008984d3000884d300fc
:101010008b05e8000442e800f7ff3a0007003700bc
:101020000804440089844c00000048008180480086
:101030008b05e9000442e900f9ff3a0003000700cc
:101040004f05be004f04be000000060081002000d6
:10105000618055000b003d000b00200061fe2f0059
:101060000100e1001d003400828171006101640013
:101070008904d1000884d3000000e800faff3a0098
:101080007100200061006400030070000200600035
:101090000900320061044400e0844c000988a50086
:1010a000050032008b05e8006808e10002003a0004
:1010b0008904d1000884d300f20f20000258e10017
:1010c00005003d00c75ddd00f907b20089807500ad
:1010d00008007800000006000bf827008b0078005d
:0410e0000000050007
:020000040000fa
:1010e40000000000000000000000000000000000fc
:1010f40000000000000000000000000000000000ec
:10110400000000003eff0000ff3e00000000000061
:1011140000000000000d00000d00000000000000b1
:10112400000400000703000000040000070300009f
:1011340000000000000000000000000000000000ab
:1011440010fe0000fe10000010fe0000fe10000063
:10115400010f00000f010000010f00000f0100004b
:101164001c3e000022ff0000ff420000ce8c000065
:1011740003070000040f00000f0400000703000031
:101184000000000006c60000f03c00000e02000053
:101194000004000007030000000600000600000031
:1011a4001e3f0000e1c10000412100003f1e00007d
:1011b400060f0000090900000b0c00001e160000b9
:1011c400000000000407000003000000000000000d
:1011d400000000000000000000000000000000000b
:1011e40000000000f8fe00000701000000000000fd
:1011f40000000000000700000e08000000000000ce
:101204000000000001070000fef8000000000000dc
:1012140000000000080e00000701000000000000ac
:1012240020a80000f870000070f80000a82000005a
:1012340000000000000000000000000000000000aa
:101244002020000020fc0000fc20000020200000e2
:101254000000000000010000010000000000000088
:10126400000000000000000000000000000000007a
:1012740000000000203c00001c00000000000000f2
:10128400202000002020000020200000202000005a
:10129400000000000000000000000000000000004a
:1012a400000000000000000000000000000000003a
:1012b40000000000000c00000c0000000000000012
:1012c4000000000000c00000f03c00000f0300001c
:1012d400000c00000f0300000000000000000000ec
:1012e400feff00000101000001010000fffe0000fc
:1012f400070f000008080000080800000f0700009e
:101304000004000006ff0000ff00000000000000d1
:1013140000080000080f00000f080000080000008b
:101324000203000081c10000613100001f0e0000b3
:101334000e0f00000908000008080000080c000057
:10134400020300000121000021210000ffde000053
:10135400040c000008080000080800000f07000043
:10136400e0f00000988c000086ff0000ff00000001
:101374000000000000000000080f00000f0800003b
:101384003f3f00002121000021210000e1c10000b5
:10139400040c000008080000080800000f07000003
:1013a400fcfe00002321000021210000e0c0000019
:1013b400070f000008080000080800000f070000dd
:1013c4000303000001810000e17900001f07000011
:1013d40000000000000f00000f00000000000000eb
:1013e400deff00002121000021210000ffde0000bb
:1013f400070f000008080000080800000f0700009d
:101404001e3f00002121000021210000fffe0000fa
:101414000008000008080000080c00000703000092
:101424000000000000180000180000000000000088
:10143400000000000006000006000000000000009c
:101444000000000000180000180000000000000068
:1014540000000000101e00000e000000000000004c
:1014640040e00000b01800000c060000020000007c
:101474000000000001030000060c0000080000004a
:1014840000a00000a0a00000a0a00000a000000098
:101494000000000000000000000000000000000048
:1014a40000020000060c000018b00000e04000003c
:1014b400000800000c06000003010000000000000a
:1014c4000203000001c10000e13100001f0e000012
:1014d40000000000000d00000d00000000000000ee
:1014e4000203000001c10000e13100001f0e0000f2
:1014f40000000000000d00000d00000000000000ce
:10150400f8fc00008683000083860000fcf80000dd
:101514000f0f000000000000000000000f0f00008b
:10152400ffff00002121000021210000ffde000058
:101534000f0f000008080000080800000f07000053
:10154400fcfe00000301000001010000030600008e
:10155400030700000c080000080800000c06000047
:1015640001ff0000ff01000001030000fefc000079
:10157400080f00000f080000080c0000070300001b
:1015840001ff0000ff21000021710000030300009f
:10159400080f00000f080000080800000c0c0000f1
:1015a40001ff0000ff21000021710000030300007f
:1015b400080f00000f0800000000000000000000f9
:1015c400fcfe00000301000041410000c3c600000e
:1015d400030700000c08000008080000070f0000c3
:1015e400ffff00002020000020200000ffff00007b
:1015f4000f0f000000000000000000000f0f0000ab
:101604000001000001ff0000ff01000001000000d4
:1016140000080000080f00000f0800000800000088
:10162400000000000000000001ff0000ff010000b6
:10163400060e000008080000080f00000700000064
:1016440001ff0000ff700000d88c000007030000b9
:10165400080f00000f000000000100000f0e000042
:1016640001ff0000ff010000000000000000000076
:10167400080f00000f080000080800000c0c000010
:10168400ffff00000c780000780c0000ffff000052
:101694000f0f000000000000000000000f0f00000a
:1016a400ffff00001c38000070e00000ffff000096
:1016b4000f0f000000000000000000000f0f0000ea
:1016c400feff00000101000001010000fffe000018
:1016d400070f000008080000080800000f070000ba
:1016e40001ff0000ff210000212100003f1e000037
:1016f400080f00000f0800000000000000000000b8
:10170400feff00000101000001010000fffe0000d7
:10171400070f0000080e00001c3800002f0700000f
:1017240001ff0000ff21000021610000ff9e000076
:10173400080f00000f080000000000000f0f000059
:101744000e1f00003121000021610000c786000047
:10175400060e000008080000080800000f0700003b
:101764000303000001ff0000ff0100000303000069
:1017740000000000080f00000f0800000000000037
:10178400ffff00000000000000000000ffff000059
:10179400070f000008080000080800000f070000f9
:1017a400ffff00000000000000000000ffff000039
:1017b40001030000060c00000c06000003010000f9
:1017c400ffff000000e00000e0000000ffff000059
:1017d400010f00000e030000030e00000f010000c3
:1017e400070f000098f00000f09800000f070000b9
:1017f4000e0f000001000000000100000f0e0000a9
:101804000f1f000030e00000e03000001f0f000058
:1018140000000000080f00000f0800000000000096
:1018240003830000c1610000311900000f070000ac
:101834000f0f000008080000080800000c0c00004e
:1018440000000000ffff0000010100000000000094
:10185400000000000f0f0000080800000000000056
:1018640055aa000055aa000055aa000055aa000078
:1018740055aa000055aa000055aa000055aa000068
:101884000000000001010000ffff00000000000054
:1018940000000000080800000f0f00000000000016
:1018a400080c000006030000030600000c080000fa
:1018b4000000000000000000000000000000000024
:1018c4000000000000000000000000000000000014
:1018d4001010000010100000101000001010000084
:1018e40000000000080f00000700000000000000d6
:1018f40000000000000000000000000000000000e4
:10190400009000009090000090f00000e0000000c3
:10191400070f000008080000080700000f08000077
:1019240001ff0000ff10000010300000e0c00000c4
:10193400080f000007080000080800000f07000057
:10194400e0f0000010100000101000003020000033
:10195400070f000008080000080800000c0400003d
:10196400c0e000003010000011ff0000ff00000084
:10197400070f000008080000080700000f08000017
:10198400e0f000009090000090900000f0e0000073
:10199400070f000008080000080800000c040000fd
:1019a40000100000feff00001111000003020000ff
:1019b400000800000f0f00000800000000000000f5
:1019c400e0f000001010000010e00000f010000033
:1019d400276f000048480000487f00003f000000d7
:1019e40001ff0000ff20000010100000f0e00000e4
:1019f400080f00000f000000000000000f0f00009f
:101a04000010000010f60000f600000000000000c6
:101a140000080000080f00000f0800000800000084
:101a24000000000010100000f6f6000000000000a6
:101a340030600000404000007f3f000000000000d4
:101a440001ff0000ffc00000c06000003010000073
:101a5400080f00000f000000010300000e0c00003e
:101a64000001000001ff0000ff0000000000000072
:101a740000080000080f00000f0800000800000024
:101a8400f0f0000030e00000e0300000f0e0000082
:101a94000f0f000000070000070000000f0f0000f8
:101aa40010f00000e010000010100000f0e0000052
:101ab400000f00000f000000000000000f0f0000e6
:101ac400e0f000001010000010100000f0e0000032
:101ad400070f000008080000080800000f070000b6
:101ae40010f00000e010000010100000f0e0000012
:101af400407f00007f480000080800000f07000036
:101b0400e0f000001010000010e00000f0100000f1
:101b1400070f000008080000487f00007f40000015
:101b240010f00000e0100000101000003020000051
:101b3400000f00000f000000000000000000000083
:101b440060f0000090900000901000003020000031
:101b5400040c000008080000090900000f0600003a
:101b640010100000feff0000101000000000000034
:101b740000000000070f0000080c00000400000033
:101b8400f0f000000000000000f00000f000000091
:101b9400070f000008080000080700000f080000f5
:101ba400f0f000000000000000000000f0f0000071
:101bb40001030000060c00000c06000003010000f5
:101bc400f0f000000080000080000000f0f0000051
:101bd400070f00000c070000070c00000f070000af
:101be4001030000060c00000c06000003010000031
:101bf400080c000006030000030600000c080000a7
:101c0400f0f000000000000000000000f0f0000010
:101c1400474f000048480000486800003f1f00008c
:101c24003030000010900000d07000003010000030
:101c34000c0e00000b090000080800000c0c00004a
:101c4400000000000000000000000000005f000031
:101c5400000000000007000000070000001400005e
:101c64007f1400007f140000242a00007f2a000053
:101c740012230000130800006462000036490000cb
:101c84005522000050000000050300000000000081
:101c9400001c00002241000000000000412200005e
:101ca4001c000000082a00001c2a0000080800008c
:101cb400083e00000808000000500000300000004a
:101cc40000080000080800000808000000300000b8
:101cd4003000000000200000100800000402000092
:101ce4003e510000494500003e000000427f0000d4
:101cf40040000000426100005149000046210000fc
:101d0400414500004b31000018140000127f000010
:101d14001027000045450000453900003c4a0000fa
:101d2400494900003001000071090000050300006a
:101d340036490000494900003606000049490000c0
:101d4400291e0000003600003600000000000000dc
:101d540056360000000000000008000014220000b5
:101d64004114000014140000141400004122000067
:101d740014080000000200000151000009060000e0
:101d840032490000794100003e7e0000111100003c
:101d9400117e00007f49000049490000363e0000e2
:101da40041410000412200007f4100004122000027
:101db4001c7f000049490000494100007f090000e0
:101dc40009010000013e00004141000051320000c1
:101dd4007f080000080800007f000000417f000029
:101de4004100000020400000413f0000017f00004e
:101df40008140000224100007f4000004040000021
:101e0400407f000002040000027f00007f04000005
:101e1400081000007f3e000041410000413e0000e8
:101e24007f09000009090000063e0000415100003e
:101e3400215e00007f0900001929000046460000c9
:101e44004949000049310000010100007f01000000
:101e5400013f000040400000403f00001f20000000
:101e6400402000001f7f000020180000207f000099
:101e740063140000081400006303000004780000e9
:101e840004030000615100004945000043000000c4
:101e9400007f00004141000002040000081000001f
:101ea40020410000417f0000000000000402000007
:101eb40001020000044000004040000040400000d7
:101ec400000100000204000000200000545400003f
:101ed400547800007f480000444400003838000073
:101ee40044440000442000003844000044480000fa
:101ef4007f3800005454000054180000087e00008d
:101f0400090100000208000014540000543c0000c1
:101f14007f0800000404000078000000447d0000f5
:101f24004000000020400000443d0000000000008c
:101f34007f10000028440000004100007f400000a2
:101f4400007c000004180000047800007c080000f5
:101f540004040000783800004444000044380000c1
:101f64007c1400001414000008080000141400007d
:101f7400187c00007c0800000404000008480000ed
:101f84005454000054200000043f0000444000006a
:101f9400203c000040400000207c00001c20000089
:101fa400402000001c3c000040300000403c000089
:101fb4004428000010280000440c00005050000089
:101fc400503c000044640000544c000044000000f5
:101fd4000836000041000000000000007f000000ff
:101fe400000000004136000008000000080800005e
:101ff4002a1c0000080800001c2a00000808000031
:1020040000000000000000000000000000000000cc
:1020140000000000000000000000000000000000bc
:1020240000000000000000000000000000000000ac
:10203400000000000000000000000000000000009c
:10245400000000000000000020200000f000000048
:102464000000000000000000000000000000000068
:102474000000000000000000000000000000000058
:10248400ff00000000000000000000000000000049
:1024940000000000000000000020000010100000f8
:1024a400f0e0000000000000000000000000000058
:1024b4000000000000000000000000000000000018
:1024c400ff00000000000000000000000000000009
:1024d40000000000000000000020000090900000b8
:1024e400d0200000000000000000000000000000f8
:1024f40000000000000000000000000000000000d8
:10250400ff000000000000000000000000000000c8
:10251400000000000000000000000000e0100000c7
:1025240010100000e00000000000000000000000a7
:102534000000000000000000000000000000000097
:102544000000000000000000000000000000000087
:102554000000000000000000080800000f08000050
:10256400080000000000000000000000000000005f
:102574000000000000000000000000000000000057
:10258400ff00000000000000000000000000000048
:102594000000000000000000000c00000c0a000015
:1025a4000908000000000000000000000000000016
:1025b4000000000000000000000000000000000017
:1025c400ff00000000000000000000000000000008
:1025d4000000000000000000000c000008080000db
:1025e40008070000000000000000000000000000d8
:1025f40000000000000000000000000000000000d7
:10260400ff000000000000000000000000000000c7
:1026140000000000000000000000000007080000a7
:10262400080800000700000000000000000000008f
:102634000000000000000000000000000000000096
:102644000202000002020000020200000202000076
:102654000202000002020000020200000202000066
:102664000202000002020000020200000202000056
:102674000202000002020000020200000202000046
:102684000302000002020000020200000202000035
:102694000202000002020000020200000202000026
:1026a4000202000002020000020200000202000016
:1026b4000202000002020000020200000202000006
:1026c40003020000020200000202000002020000f5
:1026d40002020000020200000202000002020000e6
:1026e40002020000020200000202000002020000d6
:1026f40002020000020200000202000002020000c6
:1027040003020000020200000202000002020000b4
:1027140002020000020200000202000002020000a5
:102724000202000002020000020200000202000095
:102734000202000002020000020200000202000085
:102744000000000000000000000000000000000085
:102ab400007c000044440000440000007c4400000a
:102ac400444400007c00000000440000201000008a
:102ad40008440000000000000000000000000000a6
:102ae40000000000000000000000000000000000e2
:102af40000000000000000000000000000000000d2
:102b040000000000000000000000000000000000c1
:102b140000000000000000000000000000000000b1
:102b240000000000000000000000000000000000a1
:102b34000000000000000000000000000000000091
:102b44000000000000000000000000000000000081
:102b54000000000000000000003f000021210000f0
:102b64002121000021210000212100002121000059
:102b74002121000021210000212100002121000049
:102b84002121000021210000212100002121000039
:102b94002121000021210000212100002121000029
:102ba4002121000021210000212100002121000019
:102bb4002121000021210000212100002121000009
:102bc40021210000212100002121000021210000f9
:102bd40021210000212100002121000021210000e9
:102be40021210000212100002121000021210000d9
:102bf40021210000212100002121000021210000c9
:102c040021210000212100002121000021210000b8
:102c140021210000212100002121000021210000a8
:102c2400213f000000000000000000000000000040
:102c34000000000000000000000000000000000090
:082c440000080000000300007d
:020000040000fa
:102c4c000200fa00004f78001e4078000004e000fb
:102c5c0004003200101780000050a00010178800ec
:102c6c0003003700101780000050a10010178800d7
:102c7c000080fa00000006000200fa00004f780005
:102c8c001e4078000004e0000400320010178000a1
:102c9c000040a000101788000300370010178000b8
:102cac000040a100101788000080fa000000060008
:102cbc000200fa00004f78001e4078000004e0008b
:102ccc0004003200101780000010a00010178800bc
:102cdc0003003700101780000010a10010178800a7
:102cec000080fa00000006000200fa00004f780095
:102cfc001e4078000004e000040032001017800031
:102d0c000000a00010178800030037001017800087
:102d1c000000a100101788000080fa0000000600d7
:102d2c000200fa00004f78001e4078000004e0001a
:102d3c0004003200501680000050a000501688008d
:102d4c0003003700501680000050a1005016880078
:102d5c000080fa00000006000200fa00004f780024
:102d6c001e4078000004e000040032005016800081
:102d7c000040a00050168800030037005016800059
:102d8c000040a100501688000080fa0000000600e8
:102d9c000000fa00dea2a900de82a900de22a90052
:102dac00de02a900a8a2a800c6a2a900a882a800b9
:102dbc00c682a900a802a800c602a900a822a800e1
:102dcc00c622a900a842a800c642a900a862a80071
:102ddc00c662a900d202a900d222a900d242a9003f
:102dec00d262a9000080fa00000006000200fa007e
:102dfc00004f78001e407800e14f500008003a0068
:102e0c00d202a800d222a800d242a800d262a80006
:102e1c00c662a800c642a800c622a800c602a80026
:102e2c001e4078000004e00008003a00d202a9001d
:102e3c00d222a900d242a900d262a900c662a9007e
:102e4c00c642a900c622a900c602a9000080fa0049
:102e5c00000006000400fa008e80e800804878002c
:102e6c000e80e800104f7800b116800000ff2f0094
:102e7c0000806000b01688005116800000ff2f0003
:102e8c0000806000501688001e417800ef40610001
:102e9c000e00e800014878000e00e80010407800b1
:102eac000080fb00511680000080700050168800d6
:102ebc001e80fb004400de00004f78001e80fb00eb
:102ecc00b116800000807000b01688000080fa00f7
:102edc00000006000200fa00a0168000004f7800e7
:102eec001e4078004400dd00004f78004116800041
:102efc000e00e800014878000e00e8001040780051
:102f0c00ef4060000e00e800014878000e00e80079
:102f1c00104078009e4040000e00e8000148780008
:102f2c000e00e800104078000080fa000000060057
:102f3c000000fa0010c0b3004fff07001000200083
:102f4c00b70307000040eb004bff07000080fa00be
:102f5c00000006000200fa00004f78000040eb0071
:102f6c0061ff07000040eb0051ff07001e40780096
:102f7c00b8ff0700eeff07000080fa000000060013
:102f8c000200fa000040eb0057ff070010c0b3002e
:102f9c0047ff07000040eb0094ff070010c0b30090
:102fac0035ff0700cbff0700004f78000040eb0017
:102fbc0031ff070002003700c6ff0700004f780002
:102fcc001e4078000004e000fbff35000080fa0092
:102fdc00000006000200fa00004f7800f0c3b300b6
:102fec009e40780080cf500008003e0010c0b30017
:102ffc00340007001e4078000064a000d5ff0700d5
:10300c0010c0b30026e8b7000a0037001e40780055
:10301c000004e000070035000040eb002900070029
:10302c0000ccb3001e4040000064a000c9ff0700a4
:10303c002668ef001e41780041822000824878000b
:10304c000080fa00000006000200fa00004f780031
:10305c001e407800e74f500006003e0080cbb300c6
:10306c001e407000bbff07001e41780051822000fb
:10307c00824878000080fa00000006000200fa0086
:10308c00004f78000e00e800014878001e407800e0
:10309c00d0ff07000e00e80010407800eaff0700a0
:1030ac000080fa00000006000200fa00004f7800d1
:1030bc0000ccb3001e407000a6ff07000080fa0091
:1030cc00000006000200fa00004f78000040eb0000
:1030dc0005ff07001e4078000004e0000a003a00db
:1030ec000040eb00f2fe070010c0b3001aff07000f
:1030fc000040eb000aff0700f0c3b30095ff070088
:10310c002668ef000a0037000040eb00e8fe0700dd
:10311c000040eb0010ff070010c0b30000ff0700d9
:10312c00f0c3b3008bff070010c0b30026e8b70054
:10313c000080fa00000006000200fa000040eb00dc
:10314c002aff070010c0b300e7fe070010c0b30051
:10315c00d7fe070076ff070010c0b300c6fe0700bd
:10316c005cff0700004f78000040eb00c2fe070038
:10317c0010c0b3001dff07000040eb00dafe070093
:10318c000040eb00cafe07001e4078000080fa00e9
:10319c00000006000200fa008040eb000e00e80080
:1031ac0001487800210037000e00e80090407800bc
:1031bc000040eb00b1ff07000040eb00004f78002f
:1031cc00030037000040eb007e0007001e4fe800b4
:1031dc00f0c3b3009e40780080cf5000f9ff36005a
:1031ec000e00e8009040780000c4b300a3ff070075
:1031fc000040eb00004f7800030037000040eb006c
:10320c00700007001e4fe800f0c3b3009e4078002a
:10321c0080cf5000f9ff36000e00e8001040780017
:10322c008040e8000e00e800014878000e00e8003d
:10323c0010407800e74f5000dbff36000080fa00aa
:10324c00000006000200fa008040eb000e00e800cf
:10325c0001487800210037000e00e800904078000b
:10326c000040eb0085ff07000040eb00004f7800aa
:10327c000300370000c0eb00520007001e4fe800af
:10328c00f0c3b3009e40780080cf5000f9ff3600a9
:10329c000e00e8009040780000c4b30077ff0700f0
:1032ac000040eb00004f78000300370000c0eb003b
:1032bc00440007001e4fe800f0c3b3009e407800a6
:1032cc0080cf5000f9ff36000e00e8001040780067
:1032dc008040e8000e00e800014878000e00e8008d
:1032ec0010407800e74f5000dbff36000080fa00fa
:1032fc00000006000000fa000040eb00d5fe0700bd
:10330c000040eb0078fe07000040eb0068fe070071
:10331c000040eb0058fe07000040eb008efe07005b
:10332c000040eb007efe070010c0b30044fe070017
:10333c00a0002000ba0207000040eb0040fe07008e
:10334c00a0002000b602070010c0b3003cfe07002e
:10335c0010c0b3005bff0700e0c3b300fdfe070025
:10336c0000ccb300fbfe070080cbb300f9fe0700d6
:10337c0000c4b300f7fe0700f0c3b300f5fe07006e
:10338c000040eb004fff0700e0c3b300f1fe070065
:10339c0000ccb300effe070080cbb300edfe0700be
:1033ac0000c4b300ebfe0700f0c3b300e9fe070056
:1033bc0078ff0700202229000d0007000080fa008a
:1033cc00000006000200fa00004f780010c0b300a5
:1033dc0045fe07000040eb0035fe07001e4078005c
:1033ec009cfe0700d2fe07000080fa0000000600d9
:1033fc000400fa008e80e800800878008040eb0022
:10340c000e00e80001487800340037000e00e80098
:10341c00904078000040eb0018ff07000040eb00e4
:10342c00004f78000c0037000e00e80010407800c8
:10343c000080fb00c700dd001e80fb000080400008
:10344c008e80e800910078000080400010407800e9
:10345c00dcff07001e4fe800f0c3b3009e4078006d
:10346c0080cf5000f0ff36000e00e800904078004e
:10347c0000c4b30001ff07000040eb00004f7800d0
:10348c000d0037000e00e800104078000080fb00b3
:10349c00c700dd001e80fb00008040000004b0006f
:1034ac008e80e80091007800008040001040780089
:1034bc00c4ff07001e4fe800f0c3b3009e40780025
:1034cc0080cf5000efff36000e00e800104078006f
:1034dc008040e8000e00e800014878000e00e8008b
:1034ec0010407800e74f5000c8ff36000080fa000b
:1034fc00000006000400fa000e81e8000049780084
:10350c0063004700014878000040eb00004f780052
:10351c0063004700104078000080fb004300de0091
:10352c0000407800804078000e80e8001040780061
:10353c00d2fe070000ff0700004f78006300470031
:10354c00104078000080fb004300de000040780053
:10355c00804078000e80e80010407800c7fe07001d
:10356c0063004700104078000080fb00670060009b
:10357c00110020000008dd00804078001e4078001b
:10358c0000c070008fff07000080fa0000000600ea
:10359c000400fa000e81e80000497800630047003f
:1035ac00014878000040eb00004f780063004700b2
:1035bc00104078000080fb004300de0000407800e3
:1035cc00804078000e80e80010407800abfe0700c9
:1035dc00d9fe0700004f78006300470010407800c8
:1035ec000080fb004300de00004078008040780043
:1035fc000e80e80010407800a0fe07006300470032
:10360c00104078000080fb00670060001100200073
:10361c000008dd000040780080c0ea001e40780001
:10362c0000c0600067ff07000080fa000000060081
:10363c000c00fa00e8014700804978006900470057
:10364c00014878006a004700024878000000eb004f
:10365c00000f78008000eb000e80e8000108780075
:10366c008000eb0064004700010878006900470007
:10367c0090407800680047001040780080c05000ef
:10368c0066004700014878006a0047001040780047
:10369c008080fb000e80e800010878006a0047007b
:1036ac00104078008080fb00e0ff2f000088b900fc
:1036bc0000007800630f40008f0037000e80e80098
:1036cc0010007800804078006900470010407800b6
:1036dc0080c0400064004700100078000041780072
:1036ec0068004700104078000040410081ff07004f
:1036fc000e80e8001000780000407800e9004700d8
:10370c009140780080c050006400470010007800a1
:10371c0000417800680047001040780000404100ec
:10372c0074ff07000e80e8001000780080407800dd
:10373c00690047001040780080c0400064004700da
:10374c0010007800004078006801470012417800b2
:10375c000040510067ff07000e80e8001000780061
:10376c0000407800e90047009140780080c050008c
:10377c0064004700100078000040780068014700a2
:10378c0012417800004051005aff070064004700c6
:10379c0010007800804078006900470010407800e5
:1037ac0080c040000e80e8001000780000417800d6
:1037bc006900470010407800004141006600470056
:1037cc0010407800004051004aff07006400470099
:1037dc001000780000407800e90047009140780024
:1037ec0080c050000e80e800100078000041780086
:1037fc006900470010407800004141006600470016
:10380c0010407800004051003aff07006400470068
:10381c001000780080407800690047001040780064
:10382c0080c040000e80e800100078000040780056
:10383c0069014700124178000041510066004700c1
:10384c0010407800004051002aff07006400470038
:10385c001000780000407800e900470091407800a3
:10386c0080c050000e80e800100078000040780006
:10387c006901470012417800004151006600470081
:10388c0010407800004051001aff07001e0078001d
:10389c000000e00006003d006400470010007800c6
:1038ac004200dd00660040001e0f40000d00370096
:1038bc0064004700900078000e80e800100078004b
:1038cc00008050004200dd006a0040001e0f4000e6
:1038dc000e80e800100078008000e9000e80e800ff
:1038ec000108780064004700100078008000e800b0
:1038fc0064004700010878006400470090007800dd
:10390c000e80e80010007800808f50006bff3400b0
:10391c000080fa00000006000600fa000e82e800a3
:10392c00004a7800630047000148780064004700b3
:10393c000248780065004700034878000040eb001f
:10394c00004f78000040eb00004f78000d0037006e
:10395c000e80e800104078001e404000e300470055
:10396c0091407800e3fe07000e80e80010407800dc
:10397c001e404000e500470091407800ddfe070046
:10398c001e4fe8009e80fb0064004700104078004a
:10399c000081fb000e80e800104078000080fb00e6
:1039ac00000051000000e800808f5000e8ff350057
:1039bc000040eb00004f78000f0037006300470019
:1039cc00104078001e404000804078000e80e800d7
:1039dc0010407800c7fe07006300470010407800d5
:1039ec001e40400080407800640047001040780082
:1039fc00c0fe07001e4fe8009e80fb0065004700dc
:103a0c00104078000081fb006300470010407800f4
:103a1c000080fb00000051000000e800808f500087
:103a2c00e6ff35000080fa00000006000400fa00f2
:103a3c008e80e8008048780024c8bf000080fb001e
:103a4c00e5004000f0072000808f50000800340093
:103a5c0025c8bf000040e80025e8b70025c8bf0016
:103a6c00e74f5000010036002568ef002468ef0096
:103a7c00518220009140780024c8bf007ffd0700d0
:103a8c000040eb00004f7800150037000e80e80076
:103a9c00104078000000fb006500b90000007800c1
:103aac0001f62f00808040001e80fb00008040004b
:103abc0021e22800008040001040780041fe070001
:103acc0024c8bf000040e80024e8b7005182200061
:103adc009140780024c8bf0068fd07001e4fe80025
:103aec001e407800e44f5000e8ff36000040eb0029
:103afc0034fe070024c8bf000040e80024e8b700eb
:103b0c000080fa00000006000400fa008e80e80035
:103b1c008048780024c8bf000080fb00e80040000b
:103b2c00f0072000808f50000b00340025c8bf0028
:103b3c000040e80025e8b70025c8bf000040e800b9
:103b4c0025e8b70025c8bf00e74f5000010036003c
:103b5c002568ef002468ef000040eb00004f780070
:103b6c0042003700518220009140780024c8bf00e9
:103b7c0042fd07000e80e800104078000000fb00ba
:103b8c000002b100c400dd001e80fb00008040007c
:103b9c0021872800008040001040780009fe0700b3
:103bac0025c8bf000040e8008040780080cbb300ff
:103bbc0000c07000e7fc07004182200091407800b3
:103bcc00f0c3b30080cf500008003e0010c0b3001b
:103bdc003cfd070024c8bf000064a000ddfc07000a
:103bec0010c0b30026e8b7000c00370024c8bf0093
:103bfc000004e000090035000040eb0031fd070037
:103c0c00418220009140780000ccb30000c04000fd
:103c1c000064a000cffc07002668ef000e80e800cf
:103c2c00104078000000fb000002b100c400dd0071
:103c3c001e80fb00008040006800400021872800a7
:103c4c000080400010407800defd070024c8bf0053
:103c5c000040e80024e8b700518220009140780031
:103c6c0024c8bf0005fd07001e4fe8001e40780069
:103c7c00e74f5000bbff36000080fa000000060042
:103c8c000200fa00000f7800040037001e007800d4
:103c9c001040780065ff07001e0fe8001e0078003a
:103cac00104078000004e000f8ff3a000080fa00b1
:103cbc00000006000600fa00e40047008048780087
:103ccc0064004700104078000080fb00cf80de00cd
:103cdc001bf207006266260063fa230032f207002b
:103cec00fcf107000e81e800004978000040eb0071
:103cfc00004f78001b0037000e00e8008e80e800b3
:103d0c00114878000b0037000e00e8009040780056
:103d1c001e407800f7fd07000e00e8009040780088
:103d2c000e80e8001040780080c040000e00e800d3
:103d3c00014878000e00e800104078008080fb00fd
:103d4c000e80e800104078000080fb000204200088
:103d5c0000005100808f5000ebff35009e40780032
:103d6c0063cf4000e0c7b3009e40780080cf500086
:103d7c00e1ff3600640047001040780000cfe900f6
:103d8c00150037008040eb000e00e8000148780079
:103d9c00090037000e00e800904078001e407800c3
:103dac00d4fd07000e00e8001040780080c0e80049
:103dbc000e00e800014878000e00e8009040780002
:103dcc00e0c3b30080cf5000f2ff36006400470020
:103ddc00104078001e4f4000b0c7b3009e407800e2
:103dec0080cf5000e7ff36000080fa00000006008c
:103dfc000200fa00004f780027c8bf009e4f500009
:103e0c00020032002022290079fd07001e417800b3
:103e1c0071822000824878000080fa0000000600c1
:103e2c000600fa00e400470080087800ff01070054
:103e3c00000f780064004700100078009e004000de
:103e4c000e80e8000108780000000000f701070070
:103e5c000001be000e80e800100078008000eb002e
:103e6c00800f5100818f5900f8ff3a000080fa0052
:103e7c00000006000200fa00004f78000e00e80077
:103e8c00014878001e80fb00e20f50001e0032003b
:103e9c00e20f500005003c000000e000080032007a
:103eac00e10f50000f00320032003700e30f5000da
:103ebc001e003200e40f5000250032002d003700a8
:103ecc000e00e800104078000080fb00110020007c
:103edc000008dd002116800000807000201688008c
:103eec00240037000e00e800104078000080fb0032
:103efc00110020000008dd005116800000807000c9
:103f0c00501688001b0037000e00e80010407800a7
:103f1c000080fb00110020000008dd0081168000ed
:103f2c000080700080168800120037000e00e80038
:103f3c00104078000080fb00110020000008dd001c
:103f4c00b116800000807000b016880009003700a0
:103f5c000e00e800104078000080fb0011002000eb
:103f6c000008dd0011178000008070001017880019
:103f7c00000000000080fa00000006000200fa00b9
:103f8c00004f78000e00e800014878001e80fb000e
:103f9c00e20f500020003200e20f500005003c0000
:103fac000000e00008003200e10f50001000320069
:103fbc0037003700e30f500021003200e40f5000af
:103fcc0029003200320037000e00e8001040780063
:103fdc000080fb00110020000008dd000080ea00da
:103fec002116800001006000201688002800370090
:103ffc000e00e800104078000080fb00110020004b
:10400c000008dd000080ea0051168000010060000d
:10401c00501688001e0037000e00e8001040780093
:10402c000080fb00110020000008dd000080ea0089
:10403c008116800001006000801688001400370093
:10404c000e00e800104078000080fb0011002000fa
:10405c000008dd000080ea00b1168000010060005d
:10406c00b01688000a0037000e00e80010407800f7
:10407c000080fb00110020000008dd000080ea0039
:10408c00111780000100600010178800000000006c
:10409c000080fa00000006000400fa000e81e8001f
:1040ac000049780063004700014878000e80e80062
:1040bc00104078000080fb00e20f5000200032001e
:1040cc00e20f500005003c000000e0000800320048
:1040dc00e10f50001000320037003700e30f5000a2
:1040ec0021003200e40f500029003200320037006a
:1040fc0063004700104078000080fb001100200096
:10410c000008dd0080407800101680000040780028
:10411c0000cf600028003700630047001040780093
:10412c000080fb00110020000008dd0080407800ba
:10413c00401680000040780000cf60001e00370061
:10414c0063004700104078000080fb001100200045
:10415c000008dd0080407800701680000040780078
:10416c0000cf600014003700630047001040780057
:10417c000080fb00110020000008dd00804078006a
:10418c00a01680000040780000cf60000a003700c5
:10419c0063004700104078000080fb0011002000f5
:1041ac000008dd0080407800001780000040780097
:1041bc0000cf6000000000001e4078000080fa0074
:1041cc00000006000200fa00004f78000e00e80024
:1041dc00014878000e00e800904078001e407800fe
:1041ec00adff0700e14f500005003a000e00e8005b
:1041fc00904078001e40780060ff070004003700f4
:10420c000e00e800904078001e40780019ff07006f
:10421c000080fa00000006000400fa00000f78008d
:10422c000e80e800014878009e00780000c4290048
:10423c000088b900000078000000e90060088800e0
:10424c00600880008000e8000e80e80010407800d4
:10425c000080fb000088b90000007800c200de007e
:10426c00b04721000008b8000100d100000c880004
:10427c000080fa00000006000000fa0011c0b30034
:10428c0040012000e4ff07000080fa000000060057
:10429c000000fa0011c0b30040012000deff07004f
:1042ac000080fa00000006000000fa0011c0b30004
:1042bc0040012000d8ff07000080fa000000060033
:1042cc000200fa0080408000004f78001e40780009
:1042dc000080fa00000006000000fa0090000700c1
:1042ec00b20007000000e00003003a00b300070032
:1042fc000000e0000200320010c0b30004e8b70078
:10430c000080fa00000006000200fa00411680004e
:10431c00010f7800604080009e007800808f500074
:10432c001800320000c8bf000080fb002162290089
:10433c0000804000104078000080fb009e0f500071
:10434c000a003a0000c8bf00e34f500003003a00d7
:10435c000168ef000068ef000700370000c8bf00dd
:10436c000040e80000e8b7000300370010c0b300bd
:10437c0001e8b7000068ef009e00780061408800fb
:10438c0001003700000000000080fa000000060069
:10439c000000fa000080fa00000006000000fa009d
:1043ac000080fa00000006000000fa0004c8bf00fc
:1043bc000004e0000100320084000700c0ff070089
:1043cc008bfe07000080fa00000006000000fa00d7
:1043dc000268ef000968ef0010c0b30001e8b700f5
:1043ec000a68ef000868ef000628ef000068ef008d
:1043fc00a7ff07000071220077000700810007006b
:10440c000f000700bbfb0700400007000080fa000c
:10441c00000006000000fa00afff070003c8bf0051
:10442c000004e00001003200b7ff0700deff0700c8
:10443c00d7ff0700d9ff07000080fa000000060034
:10444c000000fa00a1a2a90001158000f0cf2f00f6
:10445c00008060000015880001158000000e20000f
:10446c000100700000158800a022a8001115800022
:10447c0000002e000100700010158800a342a80057
:10448c001115800030fc2f00008060000030a0006f
:10449c0010158800a222a900a202a90021158000f3
:1044ac0000f021000100700020158800a4e2a80093
:1044bc002115800000fc2f0000806000f001b3008b
:1044cc0020158800a782a900a682a90031158000ba
:1044dc0000ff2f000080600030158800311580002f
:1044ec00f00f2f000080600030158800a822ef002c
:1044fc003007200050158800a042a8008d60a8004d
:10450c008560a8000080fa00000006000000fa0098
:10451c00cda2a900cdc2a9000080fa0000000600bf
:10452c000000fa00cfa2a800cfc2a90050002000c2
:10453c003bfe0700a0408000c0408800cfa2a9002d
:10454c00cfc2a8005000200035fe0700b04080000c
:10455c00d0408800c0408000c00db1008000eb004e
:10456c00faef0700324d2a0043d12300edf007008b
:10457c00b7ef070000007800e0408800d0408000d2
:10458c008020b1008000eb00f0ef0700a2772c0038
:10459c0093ca2300e3f00700adef0700000078009a
:1045ac00f04088000080fa00000006000000fa00cd
:1045bc00e04080000080fa00000006000000fa00d5
:1045cc00f04080000080fa00000006000000fa00b5
:1045dc000080fa00000006000200fa00000f7800cc
:1045ec000021ef009e007800110888000421a9002a
:1045fc008460a9008c60a80005e1a8000080fa0086
:10460c00000006000000fa00d202a9000c21ef0005
:10461c008021ef008221ef0070002000200c880028
:10462c0011e1a8000080fa00000006000000fa006a
:10463c0000418000114180000080fa00000006005b
:020000040000fa
:10464c002008000004000000000000000e0800001c
:10465c000a00000000000000240800000400000014
:10466c0000000000000800000e0000000000000028
:10467c0018080000080000000000000028080000d6
:0c468c0002000000000000000000000020
:020000040000fa
:104698000400fa00000f78000e80e8000108780096
:0c46a8004bff07005cff0700feff37001f
:020000040000fa
:0200000401f009
:040000000587000070
:020000040000fa
:0200000401f009
:040004003f000000b9
:00000001FF
